:1000000010E40120A54000008541000077100000A9
:10001000EF1000001B150000C315000000000000D9
:100020000000000000000000000000007B1800003D
:10003000BF18000000000000A3190000BD4100002F
:10004000E9410000F1410000F941000001420000D7
:100050000942000011420000194200002142000044
:1000600029420000314200003942000041420000B4
:100070004942000051420000594200006142000024
:10008000694200009543000095430000954300003D
:100090009543000095430000954300009543000000
:1000A0007142000079420000814200008942000054
:1000B000914200009942000095430000A1420000D7
:1000C000A9420000B1420000B9420000C142000054
:1000D000C9420000D1420000D9420000954300000F
:1000E00095430000954300009543000095430000B0
:1000F00095430000954300009543000095430000A0
:10010000273F0000393F00004B3F00005D3F0000EB
:10011000954300009543000095430000954300007F
:10012000954300009543000095430000954300006F
:10013000ED3E000095430000412D00009543000076
:1001400095430000E14200006F3F0000E9420000DB
:10015000954300009543000095430000954300003F
:100160009543000095430000F1420000F942000071
:10017000014300000943000011430000194300003F
:1001800021430000294300003143000039430000AF
:1001900041430000494300005143000095430000E3
:1001A000954300009543000095430000594300002B
:1001B000954300009543000061430000694300003F
:1001C000714300007943000081430000894300002F
:1001D00095430000954300009543000095430000BF
:1001E00095430000954300009543000095430000AF
:1001F000954300009543000095430000954300009F
:10020000954300009543000095430000954300008E
:1003F000954300009543000095430000FFFFFFFF79
:10040000FFFFFFFFFFFFFFFFFFFFFFFFFEFFFFFFFD
:100410002DE9F0439FB00FF6A836269CDFF804893B
:100420008DF83B40029100240B944FF0FF370446B7
:1004300091461D460AE019F8011B0298A0470028C2
:10044000029000F0A1800B98401C0B9099F80000DE
:1004500050B12528EFD10021002205910692079185
:10046000089209910A9203E00B98A0E041F0010183
:1004700019F8010F2028F9D023280CD02B2804D0FC
:100480002D2805D0302809D080E041F00201EFE7A7
:1004900041F00401ECE741F00801E9E741F0100107
:1004A000E6E70D920AE00D98404505DA00EB800082
:1004B00002EB4002303A0D9209F1010999F800204F
:1004C000A2F130000A28EED399F800002E2818BFB8
:1004D0000C9726D119F8010F2A2808D1286828601E
:1004E00009F1010950F8042B28600C9219E02D281D
:1004F0000CBF09F10109002000220C920BE040B969
:100500000C9A424505DA02EB820203EB4203303BD0
:100510000C9309F1010999F80030A3F130020A2A7D
:10052000EDD3ADF83810304699F8001000F098FD82
:1005300008B119F8010B8DF83A009DF83A006828C7
:1005400005D199F8000068280CD1622106E06C28DA
:1005500004BF99F800006C2804D171218DF83A107D
:1005600009F1010910A804902A4619F8013B6946CF
:10057000204600F05CF838B910AA6946204600F021
:1005800086F900287FF562AF384610E02A2888D126
:100590002A682A6052F8040B2A6000280D9003D5BF
:1005A00040420D9041F0040109F101098CE71FB0B0
:1005B000BDE8F083622820D0682811D06A2803D0D3
:1005C0006C2827D0712825D10868C01D20F00700AD
:1005D0000860D0E9002308300860194610467047CB
:1005E000002A0A680A60106803D0121D0A6000B26F
:1005F00017E0121D0A6080B217E0002A0A680A603C
:10060000106803D0121D0A6040B20AE0121D0A6091
:10061000C0B20AE0002A0A680A60106803D0121DFE
:100620000A60C1177047121D0A600021704770B53B
:100630001C460D46B4F125002E69114600F01581C7
:100640002038022863D9133840D00B3816D0401E0A
:100650001ED0401E02285AD9001F19D0401F00F09A
:100660008180401E32D0401E00F0CB80C01E00F0C2
:10067000DA80801E2AD0C01E28D0FCE06869421CA7
:100680006A610A680A6052F8043B0A603354FCE06D
:1006900095F83A000122FFF78DFFC5E90001002916
:1006A00004D56869411C69612D220DE0288F8107FE
:1006B00004D56869411C69612B2205E0C00721D57A
:1006C0006869411C6961202232541BE095F83A00A8
:1006D0000022FFF76FFFC5E9000195F83800010718
:1006E00010D5D5E90023002B08BF002A0AD044F01A
:1006F0002000782806D1686930213154401C421C02
:100700006A613454214668693044E86087E00868CB
:10071000C01D20F007000860D0E900230830086001
:10072000C5E90023D5E90001C80F04D06869411C60
:1007300069612D220DE0288F810704D56869411C6D
:1007400069612B2205E0C00704D56869411C696115
:100750002022325468693044E8602146284600F07F
:10076000C4F992E005F13A02507820B14FF0FF341D
:100770000FF6540062E01078622808D0682824D070
:100780006A2812D06C282ED071280ED02BE00A686F
:100790000A6052F8040B0A6020B94FF0FF340FF6DC
:1007A00040004BE0E96A01706FE00A680A6052F8A5
:1007B000040B0A6020B94FF0FF340FF624003DE02F
:1007C000EA6AD317C0E900235FE00A680A6052F8BA
:1007D000040B0A6020B94FF0FF340FF604002DE03F
:1007E000E96A018051E00A680A6052F8040B0A6065
:1007F00020B94FF0FF340FF2E8701FE0E96A0160A2
:1008000043E00A680A6052F8040B0A60002120F0F5
:10081000000221F0FF33C5E90023EE60782128466D
:1008200000F0BBF831E00868086050F8044B08603D
:10083000EC603CB94FF0FF340FF2BC7000F01CFCD0
:10084000201A70BD2E6B002E04D5204600F034FC1B
:10085000044608E032460021204600F049FC00280A
:1008600014BF041B3446AC610FE06869411C696128
:100870002522325409E06969481C686125227254B6
:10088000210002D0431C6B613454002070BD2DE95F
:10089000FC410F46064690467A6B7869396ABC6A15
:1008A000121AB869521A796A121AF869521A121A87
:1008B00097F83800141B41070FD42020002C8DF826
:1008C00000000ADD254601236A463946304600F01D
:1008D0005FFB00285DD16D1EF5D17B69424639462C
:1008E000304600F055FB002853D130208DF8000031
:1008F0003D6A002D09DD01236A463946304600F085
:1009000047FB002845D16D1EF5D1BB69FA68394611
:10091000304600F03DFB00283BD130208DF8000030
:100920007D6A002D08DD01236A463946304600F015
:100930002FFB70BB6D1EF6D1F868B969FB694218D0
:100940003946304600F024FB18BB30208DF80000FB
:10095000BD6A002D08DD01236A463946304600F0A5
:1009600017FBB0B96D1EF6D197F8380041070DD5C9
:100970002020002C8DF8000008DD01236A4639464E
:10098000304600F005FB20B9641EF6D10020BDE81A
:10099000F6814FF0FF30BDE8F6812DE9FC430746B4
:1009A0006F293E6908BF082405D041F0200078284F
:1009B00014BF0A2410243C25D7E90023642918BF5A
:1009C00069299046994605D1002B03D5D8F1000836
:1009D00069EB4909B9F1000F08BFB8F1000F1FD149
:1009E000386BE8B9082C4CD197F83800010748D586
:1009F00030203B2586F83B0043E000280ED597F8D1
:100A0000380000F01400102808D17B6B7969386A2F
:100A10005B1A1B1A9A1A002AC8BF3A62BDE8F38310
:100A20008DF80010404649462246E31700F08CFB43
:100A30003032D0B26D1E3A28019504DB9DF80000DB
:100A4000A0F151018A187255404649462246E317E3
:100A500000F07AFB80465FEA010908BFB8F1000F99
:100A600003D0F86871198842DCD3082C09D197F8B3
:100A70003800010705D5705D302802D06D1E30208A
:100A80007055C5F13C02BA617119F960386B824248
:100A9000B3DA821A3A624FF6EF70398F0140398724
:100AA000BDE8F3832DE9D04306460F4614464FF0C8
:100AB0000008DFF8749212E0E00707D542464B4683
:100AC0003046394600F058FC06460F464046494637
:100AD00042464B4600F050FC641080468946002C8C
:100AE000EAD130463946BDE8D0832DE9F0470646C5
:100AF00089468EB0D6E90001CDE9020104AC306B25
:100B0000002802D50620306305E001BF49F020002F
:100B1000672801213163D6E9002358004015401CA5
:100B20000DD119030BD0A9F1610103201A29B0617D
:100B300002D20FF2E04110E00FF2DC410DE059006B
:100B40004915491C0ED118030CD1A9F161010320EC
:100B50001A29B06116D30FF2C841F068032200F0E1
:100B6000DDFCDBE023F00047B7F5801F1046194697
:100B700022F000050DD20022002F08BF002D0192A7
:100B800003D116E00FF29441E7E701AA00F01AFD45
:100B900008E06648664900EB17500190654803403D
:100BA00010461943019B644D47F29752534393FB00
:100BB000F5F2C6E9000120F0000331F0004104BF66
:100BC000002B002300F0A280DDE90240019220F01A
:100BD0000045D2F1070204DD20462946FFF762FFF7
:100BE0000AE0524200205549FFF75CFF02460B46DF
:100BF0002046294600F01EFD044649F0200ABAF1BD
:100C0000660F306B06BF019D0A3506252D18142D81
:100C1000C8BF1425302088468DF810000DF111074B
:100C2000002D33DD2046414600F028FE01460A46ED
:100C300007F1080304200A27B2FBF7F707EB870E3A
:100C4000A2EB4E02303203F8012C0A22B7FBF2F27B
:100C500002EB820EA7EB4E073037401E03F8027DF1
:100C6000E9D1083D002D03F10807D9DD084600F061
:100C700019FE02460B462046414600F021FE0022A6
:100C80002F4B00F079FB04468846CBE70DF11100AD
:100C90003F1A0DF1110404E00198401E7F1E0190DF
:100CA000641C20783028F7D0BAF1660F02D1019881
:100CB000401C04E0BAF1650F0CBF01200020336B2B
:100CC000C3189F42B8BF7B1E002B1ED4BB4204DA60
:100CD000E05C3528A8BF392000DA30201946621EB2
:100CE00002EB010800E05B1E18F80179491E8742FB
:100CF000F9D0392802D1605C401C6054002904D529
:100D00000198401C14465B1C0190019800B20090B1
:100D10001BB222464946304600F014F80EB0BDE83A
:100D2000F0870000CBCCCC0C0000244002FCFFFF7D
:100D30000000E03FFFFF0F80A08601000000F03FB1
:100D400084D797412DE9F84783B005468A469146F6
:100D5000984600F027FEB8F1000F406A2F6B067826
:100D600003DC4FF001080FF2BC294AF02000BDF966
:100D70003040662808BF641C13D0672840F08F807D
:100D800014F1040F7ADBBC4278DA95F83800641C61
:100D9000010702D4B845B8BF474620B23F1A48BF42
:100DA00000270FFA84FAE868A969BAF1000F23DC7A
:100DB0004A1C30234354002F03DC95F83800010708
:100DC00002D5E8688654521C17EB0A0FB8BF7C4264
:100DD00024B2E71960424745B8BFB846AA616862C5
:100DE0000FFA88F4EC61E868AB692246494618447A
:100DF00000F094FB3F1B18E022B29045084416DA3D
:100E00004246494600F08AFBA8694044A861AAEB23
:100E10000801002F696203DC95F838100A0704D531
:100E2000E9680E54E869401CE861AF6299E0494600
:100E300000F074FBA869002F5044A8EB040803DC01
:100E400095F838100A0702D5E9680E54401CA861CD
:100E50000FFA88F08742EB68A869B8BFB8460FFA66
:100E600088F209EB0A01184400F058FBA9690FFA4F
:100E700088F00144A961381A686272E0B84504DA62
:100E800095F838100A0758BF47467F1E48BF00270D
:100E9000BAF1670F0CBF4FF0650A4FF0450AA96918
:100EA000EB68481CA861002F19F8012B5A5403DC89
:100EB00095F838100A0719D5E968431CAB610E5440
:100EC000002F13DDA8F1010630B28742D5F80CC01F
:100ED000B8BF3E4632B249460CEB030000F01EFBA1
:100EE000A86936B23018BF1BA8616F62E868A969AB
:100EF0000844002C80F800A003D42B224270811CEF
:100F000003E02D2141706442811C00206A460AE002
:100F100023460A2493FBF4F404EB8406A3EB460374
:100F200002F8013B401C24B2002CF1DC012806DC55
:100F30004AF02002652A04BF302201F8012B48B98B
:100F4000302001F8010B07E0401E1DF8003030335F
:100F500001F8013B0028F7DCEA68A8691044091A87
:100F6000E96195F8380000F0140010280DD16A6985
:100F7000A969686A8A18E9698218A86A8A188218B1
:100F8000686B8242BCBF821A2A6204B0BDE8F08757
:100F9000F8B505460E4617461C46002074B117F8F2
:100FA000011BB068A847B06030B1F06A401CF06225
:100FB0000020641EF3D1F2BD4FF0FF30F2BD0000FF
:100FC000686A6C747A4C00007072696E74665F7344
:100FD0003A20256E20646973616C6C6F77656400DC
:100FE0007072696E74663A2062616420256E2061B9
:100FF0007267756D656E74007072696E74665F738A
:101000003A2062616420257320617267756D656E98
:10101000740000006E616E004E414E00696E660005
:10102000494E4600300030B4002513E050F8042B40
:10103000D30744BFA9F101039A18091F042942F8F4
:10104000045BFAD213468C0744BF15809B1CC9076A
:1010500048BF1D7050F8041B0029E7D130BC704711
:10106000C9B202788A421AB11CBF10F8012FF9E701
:1010700018BF00207047FEE780B500B906A00549FB
:101080000B681BB122220021984701E000F08EFC82
:10109000222002BD00C40120636F6E737472616907
:1010A0006E742068616E646C65723A2062616420BF
:1010B0006D6573736167650000F10103810704D0FA
:1010C00010F8011B820781B1FAD10268A2F1013147
:1010D000914311F0803104BF50F8042FF6E709BAAC
:1010E000B1FA81F100EBD100401CC01A7047FEE755
:1010F000C9B2830706D0521E22D310F8013B994291
:10110000F7D11FE0083A13D302F1040241EA0121AA
:1011100041EA014150F8043B121F21BF4B40A3F1AB
:10112000013C2CEA030C1CF0803FF3D0C9B2001F35
:10113000083210F8013B521E28BF91EA030FF8D87D
:1011400018BF0120401E7047BBBBE1B1B2F5803F24
:1011500080F07E80022A1ED98C46B1FBF2F102FBA0
:1011600011C31B0443EA1043B3FBF2FC02FB1C3324
:1011700080B240EA0343B3FBF2F002FB103240EAD4
:101180000C4000237047022A05D98446B0FBF2F0D8
:1011900002FB10C270474AB105D100F001024908B4
:1011A0005FEA3000704700220023704700F002BC65
:1011B0000B000200002100207047904271EB030CED
:1011C000F6D3B3F5803F2FD2F0B5B3FA83F7B1FA77
:1011D00081F4A7F10F0E3D1B5340CEF1200602FA19
:1011E0000EF2F3415340B5F10F0746D80F3C2C44A3
:1011F0004140C4F12006A040F1414140B1FBF3F66B
:1012000003FB1611A2FB0645001BA94102D2761E64
:101210008018594180EA010221FA0EF362FA0EF2B7
:1012200000215A403046F0BD30B4B1FBF3FC03FB63
:101230001C11A2FB0C45001BA94103D2ACF1010C0F
:101240008018594130BC02460B4660460021704769
:10125000B2F1807F65D3F0B5B2FA82F7B1FA81F4CA
:10126000C7F10F063D1B22FA06F307F1110EF241FA
:1012700020355A40B5F10F07B8D94140C4F12006D6
:10128000A040F1414140B1FBF3FC03FB1C11A2FB68
:101290000C45001BA94103D2BCF1010C8018594137
:1012A0000F2F12D30F3FC90341EA5041B1FBF3F6B0
:1012B00003FB1611A2FB0645D4EBC030A94102D2B4
:1012C000761E8018594146EACC3C07B34140C7F12D
:1012D0002006B840F1414140B1FBF3F603FB161183
:1012E000A2FB0645001BA94102D2761E8018594177
:1012F00080EA010221FA0EF3C7F1200462FA0EF22D
:101300000CFA07F05A402CFA04F13043F0BD80EAA1
:10131000010221FA0EF3002162FA0EF260465A40F1
:10132000F0BD8C46B1FBF2F102FB11C31B0243EA94
:101330001063B3FBF2FC02FB1C331B024CEA0020DF
:1013400043EA1063B3FBF2FC02FB1C331B024CEAC2
:10135000002043EA1063B3FBF2FC02FB1C331B02C8
:101360004CEA002043EA1063B3FBF2FC02FB1C32A0
:101370004CEA002000237047B0B581EA030C0CF062
:10138000004C40F2FF7515EA11541DBF15EA1357C2
:10139000AC42AF4239E0E41923EA455343F48013E9
:1013A000C90241F0004141EA505EC7021100A7FBAB
:1013B000020200284FF00000EEFB01204FF0000178
:1013C000E3FB072118BF42F0010240180021494108
:1013D000E3FB0E01A4F580640F0302D252004041EA
:1013E000494154F101046CDD470872F1004250F1AB
:1013F000000051EB0451A1F580115CBF41EA0C01E2
:10140000B0BD4CEA05510020B0BD05EA1357AC420F
:1014100014BFAF4241E050EA410E1CBF52EA430EF6
:1014200002E061460020B0BD24423C441BD15FEA8B
:10143000070EF6D0090302BF01460020AEF1140EDC
:10144000B1FA81F7AEEB070401FA07FE0C37C7F1DA
:10145000200100FA07F7C8404EEA000E23EA455380
:1014600043F48013A2E733F00043B3FA83F704BFD9
:10147000B2FA82FE77440B3FE41BB7F1200E2FBF78
:1014800002FA0EF3BB40C7F1200E22FA0EFE38BF5F
:1014900043EA0E03BA40641C82E750EA410E14BFCF
:1014A00052EA430E6FF000014FF4001717EB430FA1
:1014B0008ABF194617EB410FB5E74CEA05510020EA
:1014C000B0BDD4F10104B4F120070FDAC4F1200754
:1014D000520828BF42F0010210FA07F501FA07F797
:1014E000E1BF2A43E0403843E1400FE0352C98DC6F
:1014F000C7F1200452EA400220FA07F218BF42F076
:10150000010231FA07F0A1400A43002172F10042C2
:1015100050F1000051EB0C01B0BDFEE762B38B0748
:1015200008D0521E11F8013B00F8013B00F0248066
:101530008B07F6D1830740F0208000BF103A07D315
:1015400030B4B1E83810103AA0E83810F9D230BC05
:10155000530724BFB1E80810A0E8081044BF51F8B1
:10156000043B40F8043BD20724BF31F8022B20F89B
:10157000022B44BF0B7803707047121F17D35B0018
:1015800009D151F8043B20F8023B1B0C121F20F834
:10159000023BF6D20BE051F8043B00F8013B1B0A7A
:1015A00020F8023B1B0C121F00F8013BF3D238BF9E
:1015B000121D521E24BF11F8013B00F8013BF8D860
:1015C0007047FEE710B5144600F002F8226010BD27
:1015D000C1F30A5343B14A0012F5001F28D2A3F207
:1015E000FE32A1EB0251704750EA410C20D001F0CD
:1015F000004C31EA0C01B1FA81F204BFB0FA80F379
:10160000D2180B3AB2F120032CBF00FA03F191403B
:1016100041EA0C013EBFC2F1200C20FA0CF3194341
:101620009040524240F2FD33D21A01EB0351704711
:1016300000227047F0B540F2FF7581EA030C0CF010
:10164000004C15EA11541DBF15EA1357AC42AF42C6
:10165000E5E0BC41C1F31301C3F31303801A9941C0
:1016600043F4801304D2641E40004941801859415C
:10167000C90241EA5051B1FBF3F603FB1611A2FB7C
:101680000675D7EBC020A94102D2761E80185941B9
:10169000C90241EA5051B1FBF3FE03FB1E11A2FB4C
:1016A0000E75D7EBC020A94103D2AEF1010E801810
:1016B0005941890241EA9051760546EA8E2EB1FBE6
:1016C000F3F603FB1611A2FB0675D7EB8020A941A8
:1016D00002D2761E80185941C90241EA50514EEAA1
:1016E000060EB1FBF3F603FB1611A2FB0675D7EB52
:1016F000C020A94102D2761E80185941C90241EA90
:101700005051B1FBF3F703FB1711A2FB0735D3EBE5
:10171000C020A94167F100070CBF004247F0010754
:1017200066F3D5274FEA1E31B80814F5806412DD40
:10173000BD0775F1004250EB0E5051EB045111F50D
:10174000801F5CBF41EA0C01F0BD4CF07F6141F0AD
:10175000E0410020F0BDBD076D0840EA0E5041F4A5
:101760008011D4F10104B4F120060ADAC4F1200694
:101770000200E04001FA06F3E1401843B24015438D
:101780000EE0342C13DCC6F1200445EA40056D0858
:1017900020FA06F2154321FA06F0A1400D4300217C
:1017A00075F1004250F1000051EB0C01F0BD00203A
:1017B0005FEA0C01F0BDCFB992185B41B3FA83F731
:1017C00004BFB2FA82F6BF190B3FB7F120062FBF54
:1017D00002FA06F3BB40C7F1200622FA06F638BF2C
:1017E0003343BA401CB1E419641E33E77F4231F041
:1017F0000041B1FA81F404BFB0FA80F6A4190B3CA1
:10180000B4F120062FBF00FA06F1A140C4F1200672
:1018100020FA06F638BF3143A0403C1B1AE7AC4221
:101820001ABF05EA1357AF4212E050EA41061CBF47
:1018300052EA4306BFE750EA4107304661461CBF03
:1018400041EA0551F0BD52EA430C08BFC143F0BD67
:1018500000204FF4001616EB410F98BF16EB430F14
:1018600008BF16EB410F24BFC14305E016EB430F41
:101870000CBF61464CEA0551F0BDFEE7400D49182A
:1018800040EA81200CD2490DA1F58061491C40F04D
:10189000004005DBD1F11F0154BFC840C01770479D
:1018A00000207047014648B1B0FA80F18840C91C59
:1018B000C1F58461090501EBD02140057047FEE7C1
:1018C00070B44FF0004591EA030F40F17D806B400A
:1018D000841A71EB030603D2001BB1411219734144
:1018E0004FF4001C1CEB410F34BF7CEB430442E07F
:1018F0000C0DA4EB1356352E4FDC45EAC323DB0A4F
:1019000045EAC121C912B6F120050DDD63FA05F6DD
:10191000EB4086EA0305124218BF45F00105C018E6
:1019200051F100010CD213E062FA06F5F240554085
:10193000F3415A40B340F3405A408018594107D30D
:1019400049085FEA30005FEA350528BF45F0010528
:1019500001F58011420875F1004250F1000041EBA1
:1019600004514E0016F5001F70BC38BF70470020B0
:10197000090D090570471CEB410F10D252EA4306CE
:101980000BD0BCEB410F05D80C0DAB43661E342EBB
:10199000B6DD02E0AB438018594170BC704770BCA3
:1019A0007047FEE700487047A0000020012000F0CB
:1019B000C1B800007047000070B44FF0004591EAD4
:1019C000030F7FF585AF6B40841A71EB030604D2D9
:1019D0006E40001BB141121973414FF4001C1CEB07
:1019E000410F34BF7CEB430683E00C0DA4EB135690
:1019F000362E00F37C80012E45EAC32341DC43EA06
:101A0000525312BFD20292025B08240545EAC1215B
:101A100041EA5051D2EBC020994125D407D1B0FA08
:101A200080F610FA06F162D00020203608E0B1FA04
:101A300081F6B140C6F1200220FA02F21143B04013
:101A40004FEAF474B4EB465434F001064FEA7404E0
:101A50000AD8D6F50016760D04F00044F04061FA7D
:101A600006F25040F1404840C00A40EA415021F09F
:101A7000004128BF5FEA500550F1000044EBD1213E
:101A800035E0DB0A45EAC121C90AB6F120050EDDC1
:101A900042EA0242120CC5F1200603FA06F6EB40B8
:101AA00042EA06056D42984161F100010DE062FADB
:101AB00006F5F240554063FA06FC82EA0C02F34058
:101AC0005A406D42904161EB030111F4801F05D132
:101AD000641E620502D06D004041494121F480112D
:101AE000430875F1004350F1000041EB045170BC14
:101AF00070471CEB410F15D223F0004352EA430616
:101B00000BD04FEA4C0CBCEB410F04D80C0D661EF9
:101B1000342EB7DDEBE7801A994150EA410608BF41
:101B20000021E4E708BF1CEB430F28BF6FF0000162
:101B3000DDE7000080B5AFF30080024A11001820F5
:101B4000ABBEFBE7260002002DE9F14F82B0002674
:101B50004FF4A074F02500F094FB00F08BFB3220D2
:101B600000F0E4FC0DF106020A21212000F0A9FC9E
:101B70000700BF190DF107020B21212000F0A1FC85
:101B8000C0198DF804009DF806009DF8071051EA71
:101B9000002147F2217081420AD01F2000904FF4AB
:101BA0007843DFF8C4280021002000F025FFFEE77D
:101BB0001F2000904FF47843DFF8B0280021002068
:101BC00000F01AFF9DF8046000F078F986198DF88E
:101BD00004609DF8046003220921212000F054FCD8
:101BE00086198DF804609DF804604322122121209B
:101BF00000F04AFC86198DF804609DF804604A22C2
:101C00006721212000F040FC86198DF804609DF8C2
:101C1000046000220C21212000F036FC86198DF88A
:101C200004609DF80460FF221321212000F02CFCA9
:101C3000861920229C21212000F026FC0700BF19D4
:101C40005FF0FC085FF006099DF8080000F072F8EC
:101C500000222B21212000F017FC82461AEB070AF4
:101C600000222D21212000F00FFC83461BEB0A0BE4
:101C700000222E21212000F007FC10EB0B008DF834
:101C8000040014F11000ADF80000424692B2920830
:101C9000D2B21721212000F0F7FBBDF8002092B24C
:101CA0009208D2B21821212000F0EEFB4A4692B2EF
:101CB0005208D2B21921212000F0E6FB2A0092B28C
:101CC0005208D2B21A21212000F0DEFB220092B28B
:101CD0009208D2B22921212000F0D6FB2A0092B22C
:101CE0005208D2B22C21212000F0CEFB5FEA8912EB
:101CF00012F040025FEA081010F030000243A80022
:101D000010F004000243BDF8000010F0030002438D
:101D1000D2B23221212000F0B7FBAA0012F0040257
:101D200014F003000243D2B22A21212000F0ACFBC0
:101D3000BDE8F78F2DE9F84306003000C0B24C280B
:101D400005DBC1220D21212000F09EFB04E0412291
:101D50000D21212000F098FB5FF000095FF00108E1
:101D60003000C0B2972804DB96200600012700242B
:101D70008EE03000C0B24C281DDB01273000C0B21D
:101D8000D0F1960000F05CFE0022DFF8E436FFF7A9
:101D900051FC04000D003800C0B22421484310F566
:101DA0008A7000F04DFE22002B00FFF7E5FA00F0EC
:101DB00059FE04006CE03000C0B233281DDB01275F
:101DC0003000C0B2D0F14B0000F03AFE0022DFF844
:101DD000A436FFF72FFC04000D003800C0B2242108
:101DE000484310F58A7000F02BFE22002B00FFF70D
:101DF000C3FA00F037FE04004AE03000C0B22628E3
:101E00001DDB02273000C0B2D0F1320000F018FE16
:101E10000022DFF86436FFF70DFC04000D003800E7
:101E2000C0B22421484310F58A7000F009FE220058
:101E30002B00FFF7A1FA00F015FE040028E03000A7
:101E4000C0B2132822DB03273000C0B2FFF72AFDFF
:101E500002000B000020DFF82416FFF731FD0022FE
:101E6000DFF81836FFF7E6FB04000D003800C0B2BB
:101E70002421484310F58A7000F0E2FD22002B0077
:101E8000FFF77AFA00F0EEFD040001E00E270024CF
:101E90003A00D2B21121212000F0F6FA2200D2B28B
:101EA0003321212000F0F0FA220092B2120AD2B2BD
:101EB0003421212000F0E8FABDE8F1832DE9F84F44
:101EC00000208DF800009DF8004003223D212120D4
:101ED00000F0DAFA04198DF800409DF800407F22E6
:101EE0004221212000F0D0FA04198DF800409DF81D
:101EF000004009224D21212000F0C6FA04198DF876
:101F000000409DF80040FF226421212000F0BCFA2F
:101F100004198DF800409DF8004020226521212001
:101F200000F0B2FA04198DF800409DF8004000223C
:101F30006621212000F0A8FA04198DF800409DF8D0
:101F4000004048226721212000F09EFA04198DF8F4
:101F500000409DF80040C5220F21212000F094FA96
:101F600004198DF800409DF80040FF221321212024
:101F700000F08AFA04198DF800409DF80040E02234
:101F80006321212000F080FA04198DF800409DF8AB
:101F9000004011221421212000F076FA04198DF856
:101FA00000409DF800403F222221212000F06CFAE1
:101FB00004198DF800409DF80040072223212120BC
:101FC00000F062FA04198DF800409DF800404022AC
:101FD0002421212000F058FA04198DF800409DF8C2
:101FE000004030222521212000F04EFA04198DF8FE
:101FF00000409DF80040A1222621212000F044FA53
:1020000004198DF800409DF8004000222B2121206A
:1020100000F03AFA04198DF800409DF80040AA2219
:102020006B21212000F030FA04198DF800409DF852
:10203000004041220D21212000F026FA04198DF8DC
:1020400000409DF8004005229021212000F01CFA5C
:1020500004198DF800409DF80040012291212120B3
:1020600000F012FA04198DF800409DF80040032298
:102070009221212000F008FA04198DF800409DF803
:10208000004000229321212000F0FEF904198DF870
:1020900000409DF8004090229421212000F0F4F9A6
:1020A00004198DF800409DF800408A2295212120D6
:1020B00000F0EAF904198DF800409DF8004006226E
:1020C0009621212000F0E0F904198DF800409DF8D8
:1020D00000400B229721212000F0D6F904198DF839
:1020E00000409DF8004095229821212000F0CCF975
:1020F00004198DF800409DF80040A022992121206C
:1021000000F0C2F904198DF800409DF800401E222D
:102110009A21212000F0B8F904198DF800409DF8AB
:10212000004008229B21212000F0AEF904198DF80F
:1021300000409DF8004020229C21212000F0A4F9BD
:1021400004198DF800409DF8004081229E21212035
:1021500000F09AF904198DF800409DF8004004221F
:10216000A621212000F090F904198DF800409DF877
:1021700000400C227E21212000F086F904198DF800
:1021800000409DF8004016227F21212000F07CF9BC
:1021900004198DF800409DF800402A22802121205A
:1021A00000F072F904198DF800409DF800404E22AD
:1021B0008121212000F068F904198DF800409DF874
:1021C000004061228221212000F05EF904198DF87F
:1021D00000409DF800406F228321212000F054F937
:1021E00004198DF800409DF800407B2284212120B5
:1021F00000F04AF9041986228521212000F044F9D3
:1022000005002D198E228621212000F03DF90600BF
:10221000761997228721212000F036F90700BF198F
:10222000A4228821212000F02FF9804618EB07080E
:10223000AF228921212000F027F9814619EB0809F6
:10224000C5228A21212000F01FF982461AEB090AD3
:10225000D7228B21212000F017F983461BEB0A0BB4
:10226000E8228C21212000F00FF910EB0B00C0B206
:10227000BDE8F28F80B580221221212000F004F900
:1022800001BD80B501220321812000F009FC01225B
:102290000321802000F004FC01BD0000002000218B
:1022A000080080B2642802DA00BF491CF8E77047D2
:1022B00010B50121812000F083FC0121802000F075
:1022C0007FFCFFF7EBFF6E4C206850F001002060B0
:1022D000206850F002002060FFF7E0FF206840080F
:1022E00040002060FFF7DAFF206830F00200206035
:1022F000FFF7D4FF10BD10B50121812000F060FC74
:102300000121802000F05CFCFFF7C8FF5C4C2068D6
:10231000400840002060FFF7C1FF206850F0020035
:102320002060FFF7BBFF206850F001002060FFF73E
:10233000B5FF10BDF8B504000121802000F040FC7D
:1023400000252800C0B208281EDA200605D54C4812
:10235000016851F00101016004E049480168490841
:10236000490001606400FFF799FF454E306850F066
:1023700002003060FFF792FF306830F002003060FA
:10238000FFF78CFF6D1CDCE70021802000F018FCBB
:10239000FFF784FF3A4F386850F002003860FFF7CB
:1023A0007DFF3848066816F00106386830F00200F4
:1023B0003860FFF773FF0121802000F001FC30003E
:1023C000C0B2F2BD70B500250121812000F0F8FBFC
:1023D0000021802000F0F4FB00242000C0B2082877
:1023E00016DAFFF75BFF264E306850F002003060CF
:1023F000FFF754FF6D0023480068C00700D56D1C2F
:10240000FFF74CFF306830F002003060641CE4E7F6
:102410000121802000F0D4FBFFF740FF2800C0B26C
:1024200070BD10B50121812000F0CAFB0121802080
:1024300000F0C6FB124C206830F002002060FFF76D
:102440002DFF206850F001002060FFF727FF206873
:1024500050F002002060FFF721FF206830F00200FA
:102460002060FFF71BFF10BDD8410000E0410000D5
:1024700000C0624000C052400000494000C04240DD
:1024800000F10F4010F10F402DE9F04704000D005E
:1024900016000027FFF70CFF6000C0B2FFF74AFFED
:1024A00080462800C0B2FFF745FF81463000C0B229
:1024B000FFF740FF8246FFF71EFF5046C0B2BDE85F
:1024C000F0872DE9F04704000D0016000027640096
:1024D000FFF7EEFE2000C0B2FFF72CFF804618EB9E
:1024E0000708FFF7DBFE2800C0B2FFF723FF814695
:1024F00019EB0809FFF7D2FEFFF7FDFEFFF7CEFE4E
:10250000FFF7D6FE54F00100C0B2FFF713FF82467A
:102510001AEB090AFFF756FF3070FFF782FFFFF74B
:10252000EAFE5046C0B2BDE8F087000010B50400D6
:10253000200080B200F001F810BD010089B200292E
:1025400017D00C490A6852F001020A600A490022B9
:102550000A60020092B20A4B1A600522074B1A6009
:1025600001220A600A681206FCD50A685208520065
:102570000A607047388004400000044004000440B2
:102580000800044038B50400002201214C2000F06E
:1025900087FA002201214D2000F082FA0022012159
:1025A0004E2000F07DFA002201214F2000F078FA41
:1025B00000220121502000F073FADFF83854286817
:1025C00030F4805028603220FFF7B0FF286850F4C4
:1025D000805028603220FFF7A9FF112000F0E8F8B2
:1025E0000A20FFF7A3FF3A2000F0E2F8552000F0A0
:1025F00001F9262000F0DCF8042000F0FBF8F220BE
:1026000000F0D6F8012000F0F5F8E02000F0D0F856
:102610003F2000F0EFF8252000F0ECF81C2000F03F
:10262000E9F81E2000F0E6F8202000F0E3F8122080
:1026300000F0E0F82A2000F0DDF8902000F0DAF851
:10264000242000F0D7F8112000F0D4F8002000F08A
:10265000D1F8002000F0CEF8002000F0CBF80020E8
:1026600000F0C8F8002000F0C5F8E12000F0A0F864
:10267000202000F0BFF8202000F0BCF8202000F05F
:10268000B9F8202000F0B6F8052000F0B3F80020DB
:1026900000F0B0F8152000F0ADF8A72000F0AAF87F
:1026A0003D2000F0A7F8182000F0A4F8252000F045
:1026B000A1F82A2000F09EF82B2000F09BF82B2098
:1026C00000F098F83A2000F095F8B12000F070F88A
:1026D000002000F08FF8002000F08CF8B42000F00B
:1026E00067F8072000F086F8C02000F061F80A20A3
:1026F00000F080F8022000F07DF8C12000F058F8CA
:10270000022000F077F8C52000F052F84F2000F0CA
:1027100071F85A2000F06EF8C72000F049F8402008
:1027200000F068F82A2000F043F8002000F062F87A
:10273000002000F05FF8002000F05CF8A82000F016
:1027400059F82B2000F034F8002000F053F8002056
:1027500000F050F8002000F04DF8B32000F04AF8E7
:10276000362000F025F82000C0B2002803D0C02099
:1027700000F040F802E0A02000F03CF8B72000F0A4
:1027800017F8002000F036F8292000F011F82C206E
:1027900000F00EF831BD00000100481E002906D0EF
:1027A00000210A00032AF7DA00BF521CFAE770473B
:1027B000DFF84022116831F40051116000210B0054
:1027C000DBB2082B15DA136833F4004313600306F9
:1027D00004D5136853F48043136003E0136833F4A3
:1027E00080431360136853F4004313604000491C96
:1027F000E5E7704770B50400DFF8F851286850F439
:102800000050286000263000C0B208281BDA286873
:1028100030F4004028600120FFF7BEFF200604D5F9
:10282000286850F48040286003E0286830F4804035
:102830002860286850F4004028600120FFF7ACFFB2
:102840006400761CDFE770BDDFF8EC21116851F4FD
:102850000051116000210B00DBB2102B15DA136858
:1028600033F400431360030404D5136853F4804326
:10287000136003E0136833F480431360136853F468
:10288000004313604000491CE5E77047F8B50400B9
:102890000D0016001F002A20FFF78AFF0020FFF717
:1028A000A9FF2000C0B2FFF7A5FF0020FFF7A2FF9D
:1028B0003000C0B2FFF79EFF2B20FFF779FF00200A
:1028C000FFF798FF2800C0B2FFF794FF0020FFF742
:1028D00091FF3800C0B2FFF78DFF2C20FFF768FF93
:1028E000F1BD80B52A20FFF763FF0020FFF782FFCC
:1028F0000020FFF77FFF0020FFF77CFFA820FFF7F5
:1029000079FF2B20FFF754FF0020FFF773FF002013
:10291000FFF770FF0020FFF76DFFB320FFF76AFF9E
:102920002C20FFF745FF01BD70B50400FFF7D9FF6C
:102930000025A22D0BD200200600842E05D22000F7
:1029400080B2FFF781FF761CF7E76D1CF1E770BDE1
:102950002DE9F04705000E0017009846089C30004E
:10296000C0B2C000C01D0300DBB22800C0B2C0006E
:10297000C01D0200D2B2F6B2F100C9B2EDB2E80059
:10298000C0B2FFF783FF5FF0000A5046C0B20828CC
:102990002EDA200080B2FFF757FF0020814648461C
:1029A000C0B206281DDADFF894103A00D2B2062031
:1029B000424301EB02004946C9B2084410F8C00C7A
:1029C000012111FA0AF1084204D0404680B2FFF713
:1029D0003BFF03E0200080B2FFF736FF19F1010949
:1029E000DDE7200080B2FFF72FFF1AF1010ACCE7E4
:1029F000BDE8F08780F00F402DE9FC4105000E0096
:102A000090461F00089C98F90000002812D040460C
:102A100010F10108210089B200913B009BB20078BF
:102A20000200D2B23100C9B22800C0B2FFF790FF55
:102A30006D1CE8E7BDE8F38180F00F40FC3A000030
:102A4000C11768B14840401AB0FA80F29040D21CD9
:102A5000C907C2F5846241EA025202EBD021400567
:102A600070470000C1F30A5340F2FE329B1A14DD96
:102A7000D3F120034FEAE17208DDC90241EA505167
:102A800041F00040D84080185040704703F2E130D8
:102A900010B1D24382F00040704700207047000020
:102AA000F0B503001C00E4B2640913F01F05784878
:102AB00006684FF40077A7403E430660754826003D
:102AC000F6B250F826602F00FFB2A4465FFA8CFCE5
:102AD00050F82CC0AE465FFA8EFE5CF82EC03CF477
:102AE000E06C46F827C02600F6B250F826602F00AA
:102AF000FFB2A4465FFA8CFC50F82CC0AE465FFAD9
:102B00008EFE5CF82EC05CF4807C46F827C0260060
:102B1000F6B250F826602F00FFB2A4465FFA8CFC94
:102B200050F82C00AC465FFA8CFC50F82CC0080022
:102B300040B250EA0C0C46F827C0080040B200280A
:102B40000ED055482600F6B250F826607669012767
:102B5000AF403E432700FFB250F8270046610DE02A
:102B60004D482600F6B250F8266076690127AF403E
:102B7000BE432700FFB250F8270046611000C0B2E4
:102B800000280ED044482600F6B250F82660366879
:102B90000127AF403E432700FFB250F827000660F0
:102BA0000DE03D482600F6B250F826603668012751
:102BB000AF40BE432700FFB250F827000660F0BDCB
:102BC00070B40300DBB25B0910F01F040A00D2B23C
:102BD000002A0ED0304A1D00EDB252F825506D6922
:102BE0000126A64035431E00F6B252F82620556154
:102BF0000DE0294A1D00EDB252F825506D690126FD
:102C0000A640B5431E00F6B252F82620556170BCAE
:102C10007047F0B40400E4B2640910F01F031C4ACA
:102C200015684FF40076A640354315600125194A12
:102C300015FA03F62700FFB252F82770C7F8A06014
:102C40002600F6B252F826601F00FFB28C465FFAEB
:102C50008CFC5FEA0C4C1CF4702C0A00D2B2D20936
:102C6000D2B252EA0C0C5CF4817C46F827C00A4AC6
:102C70002600F6B252F8266076699D4036EA0505D0
:102C80002600F6B252F826205561F0BC70470000CD
:102C9000388004401401002000010020DFF800F01B
:102CA000D9000020DFF800F001000020DFF88002EA
:102CB0000068C0F302207047012210F01F018A4013
:102CC000DFF8801203005BB25B0941F823207047F4
:102CD00010B4020052B2002A0AD50A01DFF85432B9
:102CE000040064B214F00F04234403F8042C05E03C
:102CF0000A01DFF85432040064B21A5510BC704760
:102D000070B4030013F00704D4F10700052801D3C1
:102D1000042001E0D4F10700251D072D01D2002574
:102D200000E0E51E012616FA00F0401E0140A94011
:102D300016FA05F56D1E2A401143080070BC704755
:102D400038B50E24DFF8F0110868E040C0071AD546
:102D500008680122A24010430860DFF8E451DFF860
:102D6000DC112A784FF4A070424311440420FFF78D
:102D700095FF2878F12802DB0020287015E02878DC
:102D8000401C287011E00F200A68C240D2070CD501
:102D90000A68012383401A430A600021DFF8A0215A
:102DA00011700121DFF8A421117031BD1FB500F0B1
:102DB000CBF90020FFF7E6FB1F20FFF7B5FD32201F
:102DC000FEF7C2FE09216E20FFF723FF8A216F2044
:102DD000FFF71FFFFFF76AFF02220021FFF790FFB6
:102DE00001003E20FFF774FF3E20FFF765FF002241
:102DF00000216020FFF754FE002200216120FFF730
:102E00004FFE002200216220FFF74AFE002200212F
:102E10006320FFF745FE002200216420FFF740FEFB
:102E2000002200216520FFF73BFE002200216620E2
:102E3000FFF736FE002200216720FFF731FE8120D8
:102E400002904FF4A0700190002000906D23DFF8F5
:102E5000EC20DFF8F811042000F01EFA00F0FCF876
:102E6000012000F0F9F9DFF8E44020780028F7D0DD
:102E7000FFF718FFDFF8D821A021782000F068F8CC
:102E8000DFF8D00100907823A0220021002000F07C
:102E900003F800202070E3E72DE9F14F0C00150046
:102EA0001E000A9F3319DBB29DF800002818421E4D
:102EB000D2B22100C9B29DF80000FFF7E7FC5FF035
:102EC000000A3000C0B282452FD200208046280080
:102ED000C0B2804526D25FF0000BA02000FB0AF1B3
:102EE000394411F80810C9B2C908C9B2C90200FBB7
:102EF0000AF23A4412F80820D2B29208D2B251EA49
:102F0000421100FB0AF0384410F80800C0B2C008B3
:102F1000C0B201438946484680B2FFF795FC18F1DC
:102F20000108D4E71AF1010ACBE7BDE8F18F0000F0
:102F30000CED00E018ED00E0A0C0044040010020CE
:102F400004C4012000E100E000E400E005C4012029
:102F50002DE9F34F81B02DED048B93465FF001090D
:102F60009FED749BB0EE498AF0EE698A5FF0000A2B
:102F70000598824566DA00208046069880455EDA2C
:102F8000CA450BDBC84509DB0598B0EB0900824553
:102F900004DA0698B0EB090080450CDBA0202D492F
:102FA00000FB0AF2114400FB0AF0584410F8080034
:102FB00001F8080040E0B0EE498AF0EE698ABAEB09
:102FC000090005000020060019EB0A00A84226DBD4
:102FD000B8EB090004000020070019EB0800A0422C
:102FE0001ADBA02000FB05F05844005DFEF75AFCF8
:102FF000524A182303FB06F31A4402EBC702D2E934
:103000000023FEF7B9F953EC182BFEF7D5FC41EC81
:10301000180B641C7F1CE0E76D1C761CD4E751EC98
:10302000180B31F00041FFF71DFD0A49A02202FBF9
:103030000AF2114401F8080018F101089DE71AF19D
:10304000010A95E7BDEC048BBDE8F78FD0F00F4087
:10305000402D0120407801202DE9F0472DED048B13
:103060009FED348B9FED369B0025032D3FDA00202A
:103070000400032C39DA1826304F06FB05F03844DB
:1030800000EBC40A681E6A1E631E611E4B4302FBEE
:1030900000304042FFF7D4FC8046894653EC192BA0
:1030A00000205FF08041FEF767F953EC192BFEF723
:1030B00063F902000B0040464946FEF7BBFA41ECBB
:1030C000100B00F02CFA8AED000B51EC180B06FBEC
:1030D00005F607EB060202EBC402D2E90023FEF775
:1030E0006BFC41EC180B641CC3E76D1CBDE70026AC
:1030F000032E1BDA00200400032C15DA18200F49D8
:1031000000FB06F20A4402EBC40500FB06F008448B
:1031100000EBC400D0E9000153EC182BFEF78AFA4B
:10312000C5E90001641CE7E7761CE1E7BDEC048B10
:10313000BDE8F087000000000000000090C30120FF
:10314000000000000000F03F80B5012201211120A5
:10315000FFF7A6FC012201214020FFF7A1FC01227C
:1031600001216F20FFF79CFC012201219A20FFF72B
:1031700097FC012201215220FFF792FC012201213C
:103180005320FFF78DFC01BD10B504002000C0B234
:10319000002808D0022812D00BD304281BD014D347
:1031A00005281ED023E0002201211120FFF778FC22
:1031B0001DE0002201214020FFF772FC17E00022F1
:1031C00001216F20FFF76CFC11E0002201219A2001
:1031D000FFF766FC0BE0002201215220FFF760FCA4
:1031E00005E0002201215320FFF75AFCFFE710BD44
:1031F00010B504002000C0B2002808D0022812D068
:103200000BD304281BD014D305281ED023E00122A1
:1032100001211120FFF744FC1DE001220121402083
:10322000FFF73EFC17E0012201216F20FFF738FC79
:1032300011E0012201219A20FFF732FC0BE001226C
:1032400001215220FFF72CFC05E00122012153202F
:10325000FFF726FCFFE710BD10B504000D48210064
:10326000C9B2415C491C2200D2B281542100C9B2CA
:10327000405C022190FBF1F201FB1200002804D116
:103280002000C0B2FFF780FF03E02000C0B2FFF7CC
:10329000AFFF10BDF8C301202DE9F04F04009DF9E8
:1032A00024600A9F0B9D300040B2002802D15FF0DD
:1032B000010C0FE0300040B2012802D15FF0020C97
:1032C00008E0300040B2022802D15FF0040C01E0B7
:1032D0005FF0100CDFF82002D0F800E05EF0020E84
:1032E000C0F800E0DFF81402D0F800E05EF0020E53
:1032F000C0F800E0DFF80802A6464FFA8EFE5FEA4B
:103300004E1E40F80E10A6464FFA8EFE5FEA4E1E85
:103310008644CEF810205FF0000EA0464FFA88F8E1
:103320005FEA48188044A8F804E0E6465FFA8EFE9B
:10333000A0464FFA88F85FEA48188044A8F814E0DD
:10334000B6464FFA8EFE5FEA0E2E1EF4E06EB046D1
:103350004FFA88F818F0070858EA0E0EA0464FFA00
:1033600088F85FEA48188044A8F806E0BE465FEA9D
:103370004E4E5FEA5E4EA0464FFA88F85FEA481864
:103380008044A8F816E0BE465FEA4E4E5FEA5E4E05
:10339000A0464FFA88F85FEA48188044A8F81EE073
:1033A000DFF860E1DEF8008038F08008CEF80080B9
:1033B000E6465FFA8EFEA0464FFA88F85FEA4818A4
:1033C0008044C8F808E05FF0000EA0464FFA88F885
:1033D0005FEA48188044C8F80CE05FEA856E02D4C2
:1033E000D7F1000E01E05FF0000EA0464FFA88F81A
:1033F0005FEA48188044C8F818E04CF20A0EA0466C
:103400004FFA88F85FEA48184044A0F81CE018001A
:10341000C0B24009313050F08000DFF8ECE0A04647
:103420004FFA88F80EF80800DFF8E0E0DEF80080D8
:103430004FF400791800C0B2400919FA00F959EAAE
:103440000808CEF800805FF0010EDFF8C480180095
:10345000C0B2401158F8200099465FFA89F95FEA36
:10346000691958F82990D9F8149013F01F0A1EFA18
:103470000AFA39EA0A09C0F81490264899465FFA10
:1034800089F95FEA691950F8290099465FFA89F9C4
:1034900019F01F09AA465FFA8AFA1AF0030AAB4626
:1034A0005FFA8BFB5FEA9B1B5FFA8BFB5BEA0A4BC5
:1034B0005BF4807B40F829B01800C0B2002801D02E
:1034C000012000E0002099465FFA89F95FEA691956
:1034D00058F829909A465FFA8AFA5FEA6A1A58F809
:1034E0002A80D8F814801EFA00FE38EA0E0EC9F8B9
:1034F00014E0BDE8F08F0000408004403C800440B0
:1035000000900040008000400010024038800440DD
:10351000000100201401002041EC100B01BD80B51A
:1035200051EC100B00F002F8F6E7000041EC100B34
:10353000480080B54015401C0ED148004015401C85
:1035400001D1090305D151EC100BC80F18BF9FED35
:10355000080B51EC100B04BD002000900022034B1F
:1035600051EC100B00F008F804BD00BF0000F03F64
:103570000000000000000000F8B52DED0A8B41ECC2
:103580001A0B48004015109D401C43EC182B23D00B
:1035900051EC1A0B31F0004108BF00281CD051EC4F
:1035A000180B48004015401C16D051EC180B31F098
:1035B000004108BF00280FD051EC1A0B0022DFF8A1
:1035C000483300F0CDF980F0A38055EC184B9FED07
:1035D000800B05F00042ACE051EC1A0B480040159E
:1035E000401C02D1090340F0898151EC180B4800BE
:1035F0004015401C01D1090353D151EC180B31F097
:10360000004308BF002A08D151EC1A0B48004015AE
:10361000401C46D1090344D10DE048004015401C30
:1036200012D1090310D151EC1A0B48004015401C6F
:1036300037D1090335D1AFF30080BDEC0A8B4FF0D1
:10364000FF306FF00041F4BD51EC1A0B31F0004136
:1036500008BF002828D151EC180B4800400D05EB9D
:10366000000234D151EC180B31F0004108BF0028A2
:1036700006D02A4651EC180B00F08AF941EC180BE1
:1036800051EC180B20F0000231F0004308BF002A73
:1036900005D048004015401C03D1090301D1AFF308
:1036A000008051EC180B2BE151EC1A0B480040152F
:1036B000401C26D1090324D153EC1A2B51EC180BD2
:1036C000BDEC0A8B01B0BDE8F040FDF755BE002A05
:1036D000C8DD40F2FF70824209DB9FED9F0B53EC87
:1036E000102B01F000410B4343EC182BC8E76FF39C
:1036F0001E5141EA025155EC184B0D4645EC184B52
:10370000BEE755EC184B9FED320B05F0004210E080
:1037100001227E4B00F0DAF911D89FED8F0B51ECAE
:10372000100B55EC184BAFF3008005F0004040EA59
:10373000010251EC100BBDEC0A8B1146F4BD53ECA9
:103740001A2B73487349FDF717FE41EC100B53EC2D
:10375000102B9FED719B03F0004251EC190B0C46AE
:10376000144353EC192B51EC100B2346FEF724F9AC
:10377000FFF778F90446FFF763F941EC1B0B53ECB4
:103780001B2B4FF078406649FDF7F6FD02460B46CD
:1037900051EC1A0BFEF794F806460F4653EC1B2B20
:1037A00060486149FDF7E8FD02460B463046394660
:1037B000FEF786F841EC1A0B21F0004100225B4B2A
:1037C00000F0CEF808D2B0EE48AAF0EE68AA55E0B4
:1037D000000000000000000053EC1A2B51EC1A0B03
:1037E000FDF7CAFD41EC1B0B53EC1B2B5048514914
:1037F000FDF7C2FD504A514BFEF7DEF853EC1B2B90
:10380000FDF7BAFD41EC1C0B53EC1B2B4C484D490A
:10381000FDF7B2FD4C4A4D4BFEF7CEF853EC1B2B97
:10382000FDF7AAFD53EC192BFEF7C6F853EC1A2B43
:10383000FDF7A2FD41EC190B53EC1C2BFEF7BCF875
:103840009FED43AB53EC1A2BFEF7B6F806460F4636
:1038500051EC1C0B53EC192BFEF732F853EC1A2BDE
:10386000FEF7AAF802460B4630463946FDF7E2FE5F
:1038700053EC182BFDF780FD41EC1A0B51EC1A0BA1
:103880002A194800400D02EB000319D0002B17DD68
:1038900040F2FF70834209DB9FED2F0B53EC102B9E
:1038A00001F000410B4343EC1A2B16E06FF31E515D
:1038B00041EA035155EC1A4B0D4645EC1A4B0CE00E
:1038C00051EC1A0B31F0004108BF002805D051EC33
:1038D0001A0B00F05DF841EC1A0B51EC1A0B20F0BA
:1038E000000231F0004308BF002A05D0480040150F
:1038F000401C03D1090301D1AFF3008051EC1A0B36
:10390000BDEC0A8BF4BD000000C89CC000C89C4000
:10391000FE822B654715F73F000000000000E03FE6
:10392000422EE63FF2E4D5BCE7E84B3E0000903C77
:10393000112E5781A03F503F5843128C8F71BC3FCE
:103940004BE8A541B752013F0BBDF3DAE8708C3F5D
:10395000000000000000F03F000000000000F07FC9
:103960004FF4001C1CEB410F94BF1CEB430F09E00C
:1039700041EA030C50EA4C0C52EA0C0C03D2994277
:1039800008BF9042704714BF8B42824270470000CC
:10399000124254D440F2FF7C1CEA11530FD063450D
:1039A00031D09B1863453CBF01EB0251704701F0D9
:1039B000004141EA0C510020AFF30080704750EA0B
:1039C000410320D001F0004C91EA0C011CD0B1FA67
:1039D00081F30B3B9A420DD9D21A994051EA0C015E
:1039E000C3F1200C20FA0CFC61449840531C40F2B7
:1039F000FF7CD7E7914041EA0C01C2F1200C20FA8C
:103A00000CF3194390407047B0FA80F31533202B24
:103A1000E0D3202AEED3203A203B9A4209D9D21A89
:103A200000FA03F141EA0C010020531C40F2FF7C34
:103A3000B8E700FA02F141EA0C0100207047524257
:103A400040F2FF7C1CEA11530DD06345DBD0B2EB92
:103A5000030C3CBFA1EB025170470CF1010221EABB
:103A6000035141F4801150EA410CCCD001F0004CDC
:103A7000352A27DC30B481EA0C01B2F1200309DADF
:103A8000C2F12003044601FA03F5D0402843D14097
:103A90009C400CE0C3F12002450020FA03F418BF5B
:103AA00044F0010421FA03F091400C43002174F129
:103AB000004550F1000051EB0C01244230BC7FF472
:103AC0007BAF70476146002076E700004FF4001C92
:103AD0001CEB410F94BF1CEB430F09E041EA030CC0
:103AE00050EA4C0C52EA0C0C03D28B4208BF8242C3
:103AF000704714BF994290427047000000000000D8
:103B000000000000004F0000000007000700001444
:103B10007F147F1400242A7F2A1200231308646272
:103B200000364955225000000503000000001C2209
:103B30004100000041221C000014083E0814000847
:103B4000083E080800005030000000080808080877
:103B5000000060600000002010080402003E51498F
:103B6000453E0000427F400000426151494600212D
:103B700041454B31001814127F1000274545453947
:103B8000003C4A49493000017109050300364949A2
:103B9000493600064949291E00003636000000005B
:103BA00056360000000814224100001414141414A6
:103BB000000041221408000201510906003249792F
:103BC000413E007E1111117E007F4949493E003E71
:103BD00041414122007F4141221C007F4949494126
:103BE000007F09090901003E4149497A007F080820
:103BF000087F0000417F4100002040413F01007FDD
:103C000008142241007F40404040007F0204027FB0
:103C1000007F0408107F003E4141413E007F0909BA
:103C20000906003E4151215E007F091929460046E0
:103C3000494949310001017F0101003F4040403FB7
:103C4000001F2040201F003F4038403F0063140801
:103C500014630003047804030061514945430000E4
:103C60007F4141000015167C1615000041417F0080
:103C700000040201020400404040404000000102F4
:103C80000400002054545478007F484444380038DD
:103C90004444442000384444487F00385454541865
:103CA00000087E090102000C5252523E007F0804B7
:103CB00004780000447D4000002040443D00007F27
:103CC000102844000000417F4000007E020C027C6E
:103CD000007E0402027C003844444438007C141402
:103CE000140800081414187C007C08040408004818
:103CF0005454542000043F444020003C4040207C69
:103D0000001C2040201C003C4030403C0044281057
:103D10002844000C5050503C004464544C44000073
:103D2000083641000000007F000000004136080016
:103D30000008040810080008082A1C0800081C2AAB
:103D400008080004027F02040010207F2010001CDD
:103D50002A322A1C001C2244221C0000F0B45949BB
:103D60000C6854F478540C60010049B200296CD0FE
:103D7000010049B2012918D067D303291FD019D3F4
:103D8000052926D020D307292DD027D3092934D0BF
:103D90002ED30B293BD035D30D293DD041D30F294C
:103DA00049D043D310294BD04FE004210A00002111
:103DB0000B004AE004210A0002210B0045E0042127
:103DC0000A0004210B0040E004210A0008210B0036
:103DD0003BE004210A000A210B0036E004210A001E
:103DE0000C210B0031E004210A000E210B002CE015
:103DF00004210A0010210B0027E004210A001221EF
:103E00000B0022E004210A0014210B001DE0042114
:103E10000A0018210B0018E004210A001C210B00E5
:103E200013E004210A001D210B000EE004210A000A
:103E30001E210B0009E004210A001F210B0004E0F1
:103E400003210A0016210B00FFE71F4980240C7094
:103E500012F007041D4D2C701D4D2C682E6856F471
:103E60007F062E601B4E1C4F3E602C6013F01F051A
:103E700055F04005194E3570194D2E78B606FBD514
:103E80002E787606FCD500260E702978C1F38101C4
:103E90000329FAD1134D1E0076B2103632214E435B
:103EA000022196FBF1F1160076B2761C91FBF6F139
:103EB00029702978022591FBF5F10B4D2970F0BC92
:103EC000704700BF38800440004006400440064070
:103ED00000F00140000027014480044005400640F6
:103EE000064006400AC401200BC4012014212748C3
:103EF0000268CA40D20702D50022254B1A7015224B
:103F00000368D340DB0702D50121214B197016212C
:103F10000368CB40DB0702D502221D4B1A705FF00D
:103F2000FF32026070471B48016851F001010160D7
:103F300001201949087070471848016851F00101C3
:103F4000016001201649087070471648016851F059
:103F5000010101600120144908707047134801688D
:103F600051F001010160012011490870704780B5CE
:103F700010480078800607D50F4800F029F840B2B5
:103F800001000E4800F02EF801BD0000A0A0044082
:103F90003C0100200C71034006C401201C71034049
:103FA00007C401202C71034008C401203C71034068
:103FB00009C4012004A00E4000A00E40A84100004A
:103FC000074A13691B791B06FAD51269D07170472D
:103FD00001798906FCD590F9070040B270470000CE
:103FE000280100200EB4C0B5024603A800210190AC
:103FF000009101AB0121044878440C30FCF708FA29
:1040000006BC5DF810FB00BF7F01000010B410F08B
:104010000703064C22684FF6FF010A40044951EAA3
:1040200003210A43226010BC704700000CED00E041
:104030000000FA0580B50B20FFF790FE0520FFF782
:10404000E5FFFEF7B3FE01BD80B500F007F80849B3
:104050000A884FF6FE7002400A8001BD72B605481C
:104060004CF2205101804DF62811018062B6704754
:10407000002005400E20054030B450F8041B79B1F3
:104080000268436802440830DC0744BFA9F1010418
:10409000E31852F8045B43F8045B091FF9D1ECE71D
:1040A00030BC704772B60548054901600A6882F362
:1040B00008880448804762B60348004708ED00E0DE
:1040C000000000006D410000CD41000010B507491F
:1040D00079441831064C7C44163404E00A68081D03
:1040E000114488470146A142F8D110BD2C000000C0
:1040F0004C0000004EF68851CEF20001086840F4F2
:1041000070000860BFF34F8FBFF36F8F4FF00070E8
:10411000E1EE100A704700000FCFFFFFCCC2010094
:10412000400100200000000051FFFFFF400100009F
:104130006802000000000020000000000120C046CE
:10414000002801D0FFF7C2FFAFF300800020AFF3DB
:104150000080FFF76FFF00F000F800F001B80000EA
:1041600007463846FDF7E6FCFBE7000080B5FFF7A1
:104170006BFF0348016851F47001016001BD00004C
:1041800088ED00E0704738B504460D46284600F03B
:1041900005F8A84218BF0024204632BD0149FFF7A8
:1041A0000FBF00BF58000020BDD3CAD5B5BDD7D6BC
:1041B000B7FBA3BA202563200A00000002488168EB
:1041C000027E891881607047D8C30120AFF3008058
:1041D000FFF790FFFFF7B2FF37373235204E470029
:1041E00037373235204F4B000048004795430000D9
:1041F00000480047954300000048004795430000F1
:1042000000480047954300000048004795430000E0
:1042100000480047954300000048004795430000D0
:1042200000480047954300000048004795430000C0
:1042300000480047954300000048004795430000B0
:1042400000480047954300000048004795430000A0
:104250000048004795430000004800479543000090
:104260000048004795430000004800479543000080
:104270000048004795430000004800479543000070
:104280000048004795430000004800479543000060
:104290000048004795430000004800479543000050
:1042A0000048004795430000004800479543000040
:1042B0000048004795430000004800479543000030
:1042C0000048004795430000004800479543000020
:1042D0000048004795430000004800479543000010
:1042E0000048004795430000004800479543000000
:1042F00000480047954300000048004795430000F0
:1043000000480047954300000048004795430000DF
:1043100000480047954300000048004795430000CF
:1043200000480047954300000048004795430000BF
:1043300000480047954300000048004795430000AF
:10434000004800479543000000480047954300009F
:10435000004800479543000000480047954300008F
:10436000004800479543000000480047954300007F
:10437000004800479543000000480047954300006F
:10438000004800479543000000480047954300005F
:1043900000002E00FFF7FEBFF0B400260020002131
:1043A0000022022302240025F02D1ADA0026300014
:1043B000B0F5A07F10DA0C4E4FF4A07707FB05F79D
:1043C0003E44365C094F5FF0A00C0CFB01FC6744D7
:1043D000BE54521C2018EBE700263200491C5D1920
:1043E000E2E7F0BC704700BF40010020402D0120F3
:1043F0000204010140C3012090C3012040C30120F9
:1044000040C301200000000040C301200000000064
:104410009C00002088000020000000000000000038
:10442000000000000000000000000000000000008C
:1044300000000000000000009043000090430000D6
:104440009043000090430000904300009043000020
:1044500090430000FFFFFFFFFFFFFFFF92430000BC
:104460009043000090430000FFFFFFFFFFFF0000AC
:1044700010B4074A0300DBB25B011A441161054A1C
:104480001368012484402343136010BC704700BFAD
:10449000009000400C80004000F00F4040F00F40C2
:1044A00080F00F40C0F00F4000F10F40009004403A
:1044B00000A0044000B0044000C0044000D004400C
:1044C00000A0064000B0064000C0064000D00640F4
:0844D00000A00E4003000000F3
:04000005000041CDE9
:00000001FF
