:10000000304D012065620000496300006758000020
:10001000C7580000FD6200002363000000000000DC
:100020000000000000000000000000002F6300003E
:1000300049650000000000004B650000816300007E
:100040009D630000A5630000AD630000B563000080
:10005000BD630000C5630000CD630000D5630000F0
:10006000DD630000E5630000ED630000F563000060
:10007000FD630000056400000D64000015640000CD
:100080001D640000456500004565000045650000F1
:1000900045650000456500004565000045650000B8
:1000A000256400002D640000356400003D640000FC
:1000B000456400004D640000456500005564000083
:1000C0005D640000656400006D64000075640000FC
:1000D0007D640000856400008D64000045650000BB
:1000E0004565000045650000456500004565000068
:1000F0004565000045650000456500004565000058
:100100006360000075600000876000009960000077
:100110004565000045650000456500004565000037
:100120004565000045650000456500004565000027
:100130002960000045650000516100004565000030
:100140004565000095640000AB6000009D64000000
:1001500045650000456500004565000045650000F7
:100160004565000045650000A5640000AD64000021
:10017000B5640000BD640000C5640000CD640000EB
:10018000D5640000DD640000E5640000ED6400005B
:10019000F5640000FD640000056500004565000091
:1001A0004565000045650000456500000D650000DF
:1001B0004565000045650000156500001D650000EF
:1001C000256500002D650000356500003D650000D7
:1001D0004565000045650000456500004565000077
:1001E0004565000045650000456500004565000067
:1001F0004565000045650000456500004565000057
:100200004565000045650000456500004565000046
:1003F000456500004565000045650000FFFFFFFF03
:10040000FFFFFFFFFFFFFFFFFFFFFFFFFEFFFFFFFD
:10041000FFFFFFFFFFFFFFFFFFFFFFFFFFFFFFFFEC
:10042000FFFFFFFFFFFFFFFFFFFFFFFFFFFFFFFFDC
:10043000FFFFFFFFFFFFFFFFFFFFFFFFFFFFFFFFCC
:10044000FFFFFFFFFFFFFFFFFFFFFFFFFFFFFFFFBC
:10045000FFFFFFFFFFFFFFFFFFFFFFDBFFFFFFFFD0
:10046000FFFFFFFFFFFFFFFFFFFFFFFFFFFFFFFF9C
:10047000FFFFFFFFFFFFFFFFFFFFFFFFFFFFFFFF8C
:10048000FFFFFFFFFFFFFFFFFFFFFFFFFFFFFFFF7C
:10049000FFFFFFFFFFFFFFFFFFFFFFFFFFFFFFFF6C
:1004A000FFFFFFFFFFFFFFFFFFFFFFFFFFFFFFFF5C
:1004B000FFFFFFFFFFFFFFFFFFFFFFFFFFFFFFFF4C
:1004C000FFFFFFFFFFFFFFFFFFFFFFFFFFFFFFFF3C
:1004D000FFFFFFFFFFFFFFFFFFFFFFFFFFFFFFFF2C
:1004E000FFFFFFFFFFFFFFFFFFFFFFFFFFFFFFFF1C
:1004F000FFFFFFFFFFFFFFFFFFFFFFFFDBFFFFFF30
:10050000FFFFFFFFFFFFFFFFFFFFFFFFFFFFFFFFFB
:10051000FFFFFFFFFFFFFFFFFFFFFFFFFFFFFFFFEB
:10052000FFFFFFFFFFFFFFFFFFFFFFFFFFFFFFFFDB
:10053000FFFFFFFFFFFFFFFFFFFFFFFFFFFFFFFFCB
:10054000FFFFFFFFFFFFFFFFFFFFFFFFFFFFFFFFBB
:10055000FFFFFFFFFFFFFFFFFFFFFFFFFFFFFFFFAB
:10056000FFFFFFFFFFFFFFFFFFFFFFFFFFFFFFFF9B
:10057000FFFFFFFFFFFFFFFFFFFFFFFFFFFFFFFF8B
:10058000FFFFFFFFFFFFFFFFFFFFFFFFFFFFFFFF7B
:10059000FFFFFFDB6DFFFFFFFFFFFFFFFFDBFFFF45
:1005A000FFFFFFFFFFFFFFFFFFFFFFFFFFFFFFFF5B
:1005B000FFFFFFFFFFFFFFFFFFFFFFFFFFFFFFFF4B
:1005C000FFFFFFFFFFFFFFFFFFFFFFFFFFFFFFFF3B
:1005D000FFFFFFFFFFFFFFFFFFFFFFFFFFFFFFFF2B
:1005E000FFFFFFFFFFFFFFFFFFFFFFFFFFFFFFFF1B
:1005F000FFFFFFFFFFFFFFFFFFFFFFFFFFFFFFFF0B
:10060000FFFFFFFFFFFFFFFFFFFFFFFFFFFFFFFFFA
:10061000FFFFFFFFFFFFFFFFFFFFFFFFFFFFFFFFEA
:10062000FFFFFFFFFFFFFFFFFFFFFFFFFFFFFFFFDA
:10063000DB92DBFFFFFFFFFFFFFFFFFFFFFFFFFF7F
:10064000FFFFFFFFFFFFFFFFFFFFFFFFFFFFFFFFBA
:10065000FFFFFFFFFFFFFFFFFFFFFFFFFFFFFFFFAA
:10066000FFFFFFFFFFFFFFFFFFFFFFFFFFFFFFFF9A
:10067000FFFFFFFFFFFFFFFFFFFFFFFFFFFFFFFF8A
:10068000FFFFFFFFFFFFFFFFFFFFFFFFFFFFFFFF7A
:10069000FFFF6D6DFFFFFFFFFFFFFFFFFFFFFFFF8E
:1006A000FFFFFFFFFFFFFFFFFFFFFFFFFFFFFFFF5A
:1006B000FFFFFFFFFFFFFFFFFFFFFF6D6D6D6DFF92
:1006C000FFFF6D6DFFFFFFFFFFFFFFFFFFDB6DFF14
:1006D000FFFFFFFFFF6D6DFFFFFFFFFFFFFFFFFF4E
:1006E000FFFFFFFFFFFFFFFFFFFFFFFFFFFFFFFF1A
:1006F000FFFFFFFFFFFFFFFFFFFFFFFFFFFFFFFF0A
:10070000FFFFFFFFFFFFFFFFFFFFFFFFFFFFFFFFF9
:10071000FFFFFFFFFFFFFFFFFFFFFFFFFFFFFFFFE9
:10072000FFFFFFFFFFFFFFFFFFFFFFFFFFFFFFFFD9
:10073000FFFF6D0000FFFFFFFFFFFFFFFFFFFFFF59
:10074000FFFFFFFFFFFFFFFFFFFFFFFFFFFFFFFFB9
:10075000FFFFFFFFFFFFFFFFFFFF6D6D00000000C9
:10076000FFFF6D0000FFFFFFFFDB9292FFFFFFFF27
:10077000FFFFFFFFFF6D0000FFFFFFFFFFFFFFB662
:10078000FFFFFFFFFFFFFFFFFFFFFFFFFFFFFFFF79
:10079000FFFFFFFFFFFFFFFFFFFFFFFFFFFFFFFF69
:1007A000FFFFFFFFFFFFFFFFFFFFFFFFFFFFFFFF59
:1007B000FFFFFFFFFFFFFFFFFFFFFFFFFFFFFFFF49
:1007C000FFFFFFFFFFFFFFFFFFFFFFFFFFFFFFFF39
:1007D000FFFF6D0000FFFFFFFFFFFFFFFFFFFFFFB9
:1007E000FFFFFFFFFFFFFFFFFFFFFFFFFFFFFFFF19
:1007F000FFFFFFFFFFFFFFFFFFFF6D0000FF6D002A
:1008000000FF6D0000FF9292FFFFFFFFFFFFFFFF61
:10081000FFFFFFFFFF6D0000FFFFFFFFFFFFFFFF78
:1008200092FFFFFFFFFFFFFFFFFFFFFFFFFFFFFF45
:10083000FFFFFFFFFFFFFFFFFFFFFFFFFFFFFFFFC8
:10084000FFFFFFFFFFFFFFFFFFFFFFFFFFFFFFFFB8
:10085000FFFFFFFFFFFFFFFFFFFFFFFFFFFFFFFFA8
:10086000FFFFFFFFFFFFFFFFFFFFFFFFFFFFFFFF98
:10087000FFFF6D0000FF6D6D6D6D6D6D6D6D6DFF3A
:10088000FFFFFF6D6D6D6DFFFFFFFF6D6D6D6D6D9A
:10089000FFFFFF6D6D6D6DFFFFFFFF0000FF6D003F
:1008A00000FF6D0000FFFFFFFFFFFF6D6D6D6DFF2F
:1008B000FFFF6D6D6D6D0000FFFFFFFFFFFFFFFF8E
:1008C000FF92FFFFFFFFFFFFFFFFFFFFFFFFFFFFA5
:1008D000FFFFFFFFFFFFFFFFFFFFFFFFFFFFFFFF28
:1008E000FFFFFFFFFFFFFFFFFFFFFFFFFFFFFFFF18
:1008F000FFFFFFFFFFFFFFFFFFFFFFFFFFFFFFFF08
:10090000FFFFFFFFFFFFFFFFFFFFFFFFFFFFFFFFF7
:10091000FFFF6D0000FF6D00000000000000000000
:10092000FFFF6D6D00000000FFFF6D6D0000000017
:1009300000FF6D6D00000000FFFFFFFFFF6D6D0009
:1009400000FF6D0000FFFFFFFFFF6D6D0000000066
:10095000FF6D6D0000000000FFFFFFFFFFFFFFFFC6
:10096000FFFFFFFFFFFFFFFFFFFFFFFFFFFFFFFF97
:10097000FFFFFFFFFFFFFFFFFFFFFFFFFFFFFFFF87
:10098000FFFFFFFFFFFFFFFFFFFFFFFFFFFFFFFF77
:10099000FFFFFFFFFFFFFFFFFFFFFFFFFFFFFFFF67
:1009A000FFFFFFFFFFFFFFFFFFFFFFFFFFFFFFFF57
:1009B000FFFF6D0000FF6D0000FF6D0000FF6D0088
:1009C00000FFFF00006D6D0000FF6D0000FF6D0077
:1009D00000FF6D00006D6D0000FFFFFF6D6D0000FA
:1009E000FFFF6D0000FFFFFFFFFF6D0000FFFF0036
:1009F000006D0000FF6D0000FFFFFFFFFFFFFFFF26
:100A0000FFFFFFDBFFFFFFFFFFFFFFFFFFFFFFFF1A
:100A1000FFFFFFFFFFFFFFFFFFFFFFFFFFFFFFFFE6
:100A2000FFFFFFFFFFFFFFFFFFFFFFFFFFFFFFFFD6
:100A3000FFFFFFFFFFFFFFFFFFFFFFFFFFFFFFFFC6
:100A4000FFFFFFFFFFFFFFFFFFFFFFFFFFFFFFFFB6
:100A5000FFFF6D0000FF6D0000FF6D0000FF6D00E7
:100A600000FFFF6D6D00000000FF6D0000FF6D00D6
:100A700000FF6D000000000000FFFF6D6D0000FF33
:100A8000FFFF6D0000FFFFFFFFFF6D0000FFFFFF96
:100A9000FF6D0000FF6D000024244924FFFFFFFFCD
:100AA000FFFFFFFFFFFFFFFFFFFFFFFFFFFFFFFF56
:100AB000FFFFFFFFFFFFFFFFFFFFFFFFFFFFFFFF46
:100AC000FFFFFFFFFFFFFFFFFFFFFFFFFFFFFFFF36
:100AD000FFFFFFFFFFFFFFFFFFFFFFFFFFFFFFFF26
:100AE000FFFFFFFFFFFFFFFFFFFFFFFFFFFFFFFF16
:100AF000FFFF6D0000FF6D0000FF6D0000FF6D0047
:100B000000FF6D6D00006D0000FF6D0000FF6D00C7
:100B100000FF6D0000FFFFDBFFFF6D6D0000FFFFBA
:100B2000FFFF6D0000FFFFFFFFFF6D0000FFFFFFF5
:100B3000FF6D0000FF6D00002424240000FFFFFF74
:100B4000FFFFFFFFFFFFFFFFFFFFFFFFFFFFFFFFB5
:100B5000FFFFFFFFFFFFFFFFFFFFFFFFFFFFFFFFA5
:100B6000FFFFFFFFFFFFFFFFFFFFFFFFFFFFFFFF95
:100B7000FFFFFFFFFFFFFFFFFFFFFFFFFFFFFFFF85
:100B8000FFFFFFFFFFFFFFFFFFFFFFFFFFFFFFFF75
:100B9000FFFF6D0000FF6D0000FF6D0000FF6D00A6
:100BA00000FF6D0000FF6D0000FF6D0000FF6D0095
:100BB00000FF6D0000FF6D6DFFFF6D0000FFFFFF88
:100BC000FFFF6D0000FFFFFFFFFF6D0000FF6D6D79
:100BD000B66D0000FF6D000000006D490024FFFFAE
:100BE000FFFFFFFFFF92FFFFFFFFFFFFFFFFFFFF82
:100BF000FFFFFFFFFFFFFFFFFFFFFFFFFFFFFFFF05
:100C0000FFFFFFFFFFFFFFFFFFFFFFFFFFFFFFFFF4
:100C1000FFFFFFFFFFFFFFFFFFFFFFFFFFFFFFFFE4
:100C2000FFFFFFFFFFFFFFFFFFFFFFFFFFFFFFFFD4
:100C3000FFFF6D0000FF6D0000FF6D0000FF6D0005
:100C400000FFFF00006D6D0000FFFF00006D6D00F4
:100C500000FFFF00006D6D0000FF6D00006D6D6D09
:100C6000FFFF6D00006D6D6D6DFFFF00006D6D008D
:100C7000004900006D6D0000B6DBFFFF24496DFFE9
:100C8000FFFFFFFFFFFF92FFFFFFFFFFFFFFFFFFE1
:100C9000FFFFFFFFFFFFFFFFFFFFFFFFFFFFFFFF64
:100CA000FFFFFFFFFFFFFFFFFFFFFFFFFFFFFFFF54
:100CB000FFFFFFFFFFFFFFFFFFFFFFFFFFFFFFFF44
:100CC000FFFFFFFFFFFFFFFFFFFFFFFFFFFFFFFF34
:100CD000FFFFFF0000FFFF0000FFFF0000FFFF001D
:100CE00000FFFFFF0000000000FFFF6D000000009C
:100CF00000FFFFFF00000000FFFFFF0000000000FA
:100D000000FFFF000000000000006D9200000000E6
:100D10002400490000000000B6FFDBDBFF00246D6B
:100D2000FFFFFFFFFFFFFF92FFFFFFFFFFFFFFFF40
:100D3000FFFFFFFFFFFFFFFFFFFFFFFFFFFFFFFFC3
:100D4000FFFFFFFFFFFFFFFFFFFFFFFFFFFFFFFFB3
:100D5000FFFFFFFFFFFFFFFFFFFFFFFFFFFFFFFFA3
:100D6000FFFFFFFFFFFFFFFFFFFFFFFFFFFFFFFF93
:100D7000FFFFFFFFFFFFFFFFFFFFFFFFFFFFFFFF83
:100D8000FFFFFFFFFFFFFFFF6DFF6D6DFFFF6D00BA
:100D900000FFFFFFFFFFFFFFFFFFFFFFFFFFFFFF62
:100DA000FFFFFFFFFFB66DB6DBDBB6924949FFDB05
:100DB0002449B6DBDBDBDBDB92240049FFFF004983
:100DC000FFFFFFFFFFFFFFFFDBFFFFFFFFFFFFFF57
:100DD000FFFFFFFFFFFFFFFFFFFFFFFFFFFFFFFF23
:100DE000FFFFFFFFFFFFFFFFFFFFFFFFFFFFFFFF13
:100DF000FFFFFFFFFFFFFFFFFFFFFFFFFFFFFFFF03
:100E0000FFFFFFFFFFFFFFFFFFFFFFFFFFFFFFFFF2
:100E1000FFFFFFFFFFFFFFFFFFFFFFFFFFFFFFFFE2
:100E2000FFFFFFFFFFB6FFFFFFFFFF00006D6D003C
:100E300000FFFFFFFFFFFFFFFFFFFFFFFFFFFFFFC1
:100E4000FFFFB692FFFFDBDBDBB6B6B66D926DFF40
:100E5000DB2400DBFF92492400242400B6FFB60007
:100E600000FFFFFFFFFFFFFFFFFFFFFFFFFFFFFF91
:100E7000FFFFFFFFFFFFFFFFFFFFFFFFFFFFFFFF82
:100E8000FFFFFFFFFFFFFFFFFFFFFFFFFFFFFFFF72
:100E9000FFFFFFFFFFFFFFFFFFFFFFFFFFFFFFFF62
:100EA000FFFFFFFFFFFFFFFFFFFFFFFFFFFFFFFF52
:100EB000FFFFFFFFFFFFFFFFFFFFFFFFFFFFFFFF42
:100EC000FFFFFFFFFFFFFFFFFFFFFFFF000000002E
:100ED000FFFFFFFFFFFFFFFFFFFFFFFFFFFFFFB66B
:100EE00092DBDBB6FFFFDBB6DBDBB6B6B66D6D497A
:100EF000FF922400FFDB49242400240024DBB6B643
:100F00002400FFFFFFFFFFFFFF92FFFFFFFFFFFF38
:100F1000FFFFFFFFFFFFFFFFFFFFFFFFFFFFFFFFE1
:100F2000FFFFFFFFFFFFFFFFFFFFFFFFFFFFFFFFD1
:100F3000FFFFFFFFFFFFFFFFFFFFFFFFFFFFFFFFC1
:100F4000FFFFFFFFFFFFFFFFFFFFFFFFFFFFFFFFB1
:100F5000FFFFFFFFFFFFFFFFFFFFFFFFFFB6B6FF33
:100F6000FFFFFFFFFFFFFFFFFFFFFFFFFFFFFFFF91
:100F7000FFFFFFFFFFFFFFFFFFFFFF926DB6B6FF12
:100F8000DBDBDBDBDBFFFFDBB6DBB6B6B6926D4946
:100F90006DDB492400FFDB24242424000024B6FF59
:100FA0006D2424FFFFFFFFFFFFFF92FFFFFFFFFF06
:100FB000FFFFFFFFFFFFFFFFFFFFFFFFFFFFFFFF41
:100FC000FFFFFFFFFFFFFFFFFFFFFFFFFFFFFFFF31
:100FD000FFFFFFFFFFFFFFFFFFFFFFFFFFFFFFFF21
:100FE000FFFFFFFFFFFFFFFFFFFFFFFFFFFFFFFF11
:100FF000FFFFFFFFFFFFFFFFFFFFB692FFFFFFFFB7
:10100000FFFFFFFFFFFFFFFFFFFFFFFFFFFFFFFFF0
:10101000FFFFFFFFFFFFFFDB6D92FFFFFFDBB6DB94
:10102000B6B6B6DBB6DBDBDBDBB6DBB6B6DBB66DA6
:101030004992FF244924DBDB24240000242424FFDC
:10104000DB242400FFFFFFFFFFFFFF92FFFFFFFFF6
:10105000FFFFFFFFFFFFFFFFFFFFFFFFFFFFFFFFA0
:10106000FFFFFFFFFFFFFFFFFFFFFFFFFFFFFFFF90
:10107000FFFFFFFFFFFFFFFFFFFFFFFFFFFFFFFF80
:10108000FFFFFFFFFFFFFFFFFFFFFFFFFFFFFFFF70
:10109000FFFFFFFFFFFFFF9292FFFFFFFFFFFFFF3A
:1010A000FFFFFFFFFFFFFFFFFFFFFFFFFFFFFFFF50
:1010B000FFFFFFFFB649DBFFFFFFDBB6DBDB92B6CE
:1010C000DBB6DBB6B6B6FFFFDBB692B692B6B6B607
:1010D000246DDBDB000049DBB6240024240024243B
:1010E000FFDB00006DFFFFFFFFFFFFFFB6FFFFFF0D
:1010F000FFFFFFFFFFFFFFFFFFFFFFFFFFFFFFFF00
:10110000FFFFFFFFFFFFFFFFFFFFFFFFFFFFFFFFEF
:10111000FFFFFFFFFFFFFFFFFFFFFFFFFFFFFFFFDF
:10112000FFFFFFFFFFFFFFFFFFFFFFFFFFFFFFFFCF
:10113000FFFFFFDB6DB6FFFFFFFFFFFFFFFFFFFFBE
:10114000FFFFFFFFFFFFFFFFFFFFFFFFFFFFFFFFAF
:10115000FFB692FFFFDBB6DBB6DBDBB6DBDBDBB675
:10116000DBDBB6B6DBB6B6DBFFDBB6B6DBB6B6B6F8
:101170006D6D49DBB62449DBDB9224490000240075
:1011800092FFDB2424DBFFFFFFFFFFFFFFDBFFFFFE
:10119000FFFFFFFFFFFFFFFFFFFFFFFFFFFFFFFF5F
:1011A000FFFFFFFFFFFFFFFFFFFFFFFFFFFFFFFF4F
:1011B000FFFFFFFFFFFFFFFFFFFFFFFFFFFFFFFF3F
:1011C000FFFFFFFFFFFFFFFFFFFFFFFFFFFFFFFF2F
:1011D000FFB6FFFFFFFFFFFFFFFFFFFFFFFFFFFF68
:1011E000FFFFFFFFFFFFFFFFFFFFFFFFFFB624240E
:1011F000496D6DDBB6FFDBB6B6DBDBDBDB92DBB666
:10120000B692DB92B6B6DBDBDBFFB6B6B6B6B6B6E9
:10121000926D4992FFDB0000DBDBB60092DBB6DBB0
:10122000DBDBDBDB2424FFFFFFFFFFFFFFFFFFFF14
:10123000FFFFFFFFFFFFFFFFFFFFFFFFFFFFFFFFBE
:10124000FFFFFFFFFFFFFFFFFFFFFFFFFFFFFFFFAE
:10125000FFFFFFFFFFFFFFFFFFFFFFFFFFFFFFFF9E
:10126000FFFFFFFFFFFFFFFFFFFFFFFFFFFFFFFF8E
:10127000FFFFFFFFFFFFFFFFFFFFFFFFFFFFFFFF7E
:10128000FFFFFFFFFFFFFFFFFFFFFFFF6D49496DFE
:101290004949496DFFDBDBB6B6B6B6B6B6B6929233
:1012A000B6DBB6B6B6B692DBB6DBDBDBB6B6B6B649
:1012B00092B649496DDB922400DBDBDB24DBB6DB35
:1012C000DBB66D49002424FFFFFFFFFFFFFFDBFFBC
:1012D000FFFFFFFFFFFFFFFFFFFFFFFFFFFFFFFF1E
:1012E000FFFFFFFFFFFFFFFFFFFFFFFFFFFFFFFF0E
:1012F000FFFFFFFFFFFFFFFFFFFFFFFFFFFFFFFFFE
:10130000FFFFFFFFFFFFFFFFFFFFFFFFFFFFFFFFED
:10131000FFFF49FFFFFFFFFFFFFFFFFFFFFFFFFF93
:10132000DBFFDBFFFFFFFFB66D2424FFDB24492436
:101330002449492449DBDBB6B6B6DBB6B6DBB6B624
:10134000DBB6DBB6DBB692B6DBB6FFFFB6B6B6B63B
:10135000DBB6926D4924DB490024DBFFB66DB6494C
:101360002449492424000000FFFFFFFFFFFFFF92F4
:10137000FFFFFFFFFFFFFFFFFFFFFFFFFFFFFFFF7D
:10138000FFFFFFFFFFFFFFFFFFFFFFFFFFFFFFFF6D
:10139000FFFFFFFFFFFFFFFFFFFFFFFFFFFFFFFF5D
:1013A000FFFFFFFFFFFFFFFFFFFFFFFFFFFFFFFF4D
:1013B000FFFFFF24FFFFFFFFFFFFFFFFFFFFFFFF18
:1013C000FFFFFFDB92492449496D2424FFFF2424B9
:1013D000494949244949DBB6B6B6B6B6B6B6DBB616
:1013E000B6DBDB92B6B6B692B6B6B6FFDBB6B6B62D
:1013F000B6DBB6B6494924DB0024249249004924CF
:1014000024000000006DFFDBDBFFFFFFFFFFFFFF9D
:1014100092FFFFFFFFFFFFFFFFFFFFFFFFFFFFFF49
:10142000FFFFFFFFFFFFFFFFFFFFFFFFFFFFFFFFCC
:10143000FFFFFFFFFFFFFFFFFFFFFFFFFFFFFFFFBC
:10144000FFFFFFFFFFFFFFFFFFFFFFFFFFFFFFFFAC
:10145000FFFFFFFF6DFFFFFFFFFFDBFFFFFFFFFF52
:101460009249246D242424492449924900DBFF49F0
:1014700049244949492424B6B6B6DB92B6B692DB74
:10148000B6B6DBB6B692DB92B6B6B6B6FFFFB6B668
:10149000B69292B6B69249B6B60000002424000077
:1014A000006D92DBDBFFDBDBFFFFFFFFFFFFFFFFDA
:1014B000FF6DFFFFFFFFFFFFFFFFFFFFFFFFFFFFCE
:1014C000FFFFFFFFFFFFFFFFFFFFFFFFFFFFFFFF2C
:1014D000FFFFFFFFFFFFFFFFFFFFFFFFFFFFFFFF1C
:1014E000FFFFFFFFFFFFFFFFFFFFFFFFFFFFFFFF0C
:1014F000FFFFFFFFFF92FFFFFFFFFFFFFF92494942
:1015000024002424240024DBFFDBFF6D4924FFDBBF
:10151000494949492449246DDBB6DB92B6B6B6DBAE
:10152000DB92B6DBB6B6B6B692B6B6DBDBDBDB92E9
:10153000DBDBDB496D492400FFDB0000002492DB8C
:10154000DBDBDBDBDBDBDB499292DBFFFFFFFFFF5B
:10155000FFFFFFFFFFFFFFFFFFFFFFFFFFFFFFFF9B
:10156000FFFFFFFFFFFFFFFFFFFFFFFFFFFFFFFF8B
:10157000FFFFFFFFFFFFFFFFFFFFFFFFFFFFFFFF7B
:10158000FFFFFFFFFFFFFFFFFFFFFFFFFFFFFFFF6B
:10159000FFFFFFFFFFFFDBFFFFFFFFFFFFFF4949EB
:1015A0002424242492DBFFDBFFDBFFFF242492DBD7
:1015B000920049494924244992FFDBDBB6B6B69232
:1015C000B6B6DBB6DBDBB6DB92B6B6B6DBDBDBB6DC
:1015D00049492424DBDB002400DBDB92DBB6FFFF80
:1015E000DBDBDBB66D926D6D49926DDBFFFFFFFFBC
:1015F000FFFFFFFFFFFFFFFFFFFFFFFFFFFFFFFFFB
:10160000FFFFFFFFFFFFFFFFFFFFFFFFFFFFFFFFEA
:10161000FFFFFFFFFFFFFFFFFFFFFFFFFFFFFFFFDA
:10162000FFFFFFFFFFFFFFFFFFFFFFFFFFFFFFFFCA
:10163000FFFFFFFFFFFFFFFFFFFFFFFFFFFFFF6D4C
:1016400049B6FFFFDBDBDBDBDBFF6DDBFF2424B612
:10165000DB6D49242424244949B6DB92B692B6B600
:1016600092DBB6DBB6B6B6DBDB6DB6B6B649242484
:10167000FFFF492449DBFF240024DBDBDBDBB6B6BC
:10168000B6496D6D4949496D246D4924FFFFFFFF3F
:10169000FFFFFFB6FFFFFFFFFFFFFFFFFFFFFFFFA3
:1016A000FFFFFFFFFFFFFFFFFFFFFFFFFFFFFFFF4A
:1016B000FFFFFFFFFFFFFFFFFFFFFFFFFFFFFFFF3A
:1016C000FFFFFFFFFFFFFFFFFFFFFFFFFFFFFFFF2A
:1016D000FFFFFFFFFFFFFF92FFFFFFFFFFFFFFFF87
:1016E0002424FFFFFFB649246D240049FFDB242496
:1016F000B6DB2400002424244924DBB6DBB6B692F2
:10170000B6B692B6B6DBB6DBB64900246DB649492B
:1017100024FFFF00496DB6B6494949DB926D006D63
:101720004949246D2449494992B6B6B66DFFFFFF79
:10173000FFFFFFFFB6FFFFFFFFFFFFFFFFFFFFFF02
:10174000FFFFFFFFFFFFFFFFFFFFFFFFFFFFFFFFA9
:10175000FFFFFFFFFFFFFFFFFFFFFFFFFFFFFFFF99
:10176000FFFFFFFFFFFFFFFFFFFFFFFFFFFFFFFF89
:10177000FFFFFFFFFFFFFFFF6DFFFFFFFFFFFFFF0B
:10178000DB0000DBDB00242424244949B6DBDB2416
:1017900024DBDB2424496D24492424DB92B6B6B62D
:1017A00092B6B6B6B66D49246DDBDB4924DBDB00AF
:1017B0002492B6B6B66DB692B66D246D6D0000007B
:1017C00049496D0049926D6D9292B6B69224FFFF21
:1017D000FFFFFFFFFF6DFFFFFFFFFFFFFFFFFFFFAB
:1017E000FFFFFFFFFFFFFFFFFFFFFFFFFFFFFFFF09
:1017F000FFFFFFFFFFFFFFFFFFFFFFFFFFFFFFFFF9
:10180000FFFFFFFFFFFFFFFFFFFFFFFFFFFFFFFFE8
:10181000FFFFFFFFFFFFFFFFFF49FFFFFFFFFFFF8E
:10182000DBB64924FFDB24492424002424FFDB9277
:101830002424B6B64924494924242424FFB66DDB68
:10184000B6B66D2449FFB64924FFDBDB242492B6EB
:10185000B6DBDBB6B6B6DBB69292496D49490000FD
:10186000246D9292249292B6B69292B6B6B66DFF5D
:10187000FFFFFFFFFFFF92FFFFFFFFFFFFFFFFFFE5
:10188000FFFFFFFFFFFFFFFFFFFFFFFFFFFFFFFF68
:10189000FFFFFFFFFFFFFFFFFFFFFFFFFFFFFFFF58
:1018A000FFFFFFFFFFFFFFFFFFFFFFFFFFFFFFFF48
:1018B000FFFFFFFFFFFFFFFFFFFF92FFFFFFFFFFA5
:1018C000FFFF492449FFFF00240049240024DBDBFB
:1018D00049006DDBB6242400002449246DDBB649A1
:1018E0006DDBB62449DBFFDB000092B692B692B600
:1018F000B6B6DBB6DBB6B6B6B6B66D24492492FFF3
:10190000B600929292B6929292929292B6B6B6B671
:10191000FFFFFFFFFFFFFFFFFFFFFFFFFFFFFFFFD7
:10192000FFFFFFFFFFFFFFFFFFFFFFFFFFFFFFFFC7
:10193000FFFFFFFFFFFFFFFFFFFFFFFFFFFFFFFFB7
:10194000FFFFFFFFFFFFFFFFFFFFFFFFFFFFFFFFA7
:10195000FFFFFFFFFFFFFFFFFFFFFFFFFFFFFFFF97
:10196000FFFFFF0024FFDBDB00242449242449DBA4
:10197000DB242492DB92244924002424496DDB00DB
:101980000092DBDB2424DB9292DBB6B6B6B6B6DB84
:10199000B6B6B6DBB6B692929292929292B6B6B6BE
:1019A000DBDB6D6D92926DB66D9292B692B6B6B665
:1019B000DBFFFFFFFFFFFFDBFFFFFFFFFFFFFFFF7F
:1019C000FFFFFFFFFFFFFFFFFFFFFFFFFFFFFFFF27
:1019D000FFFFFFFFFFFFFFFFFFFFFFFFFFFFFFFF17
:1019E000FFFFFFFFFFFFFFFFFFFFFFFFFFFFFFFF07
:1019F000FFFFFFFFFFFFFFFFFFFFFFDBFFFFFFFF1B
:101A0000FFFFFFFF2424B6DBDB2400242400242472
:101A1000DBDB244992DB9224006D49242400FFDBA8
:101A20002424B692499292DB92B6DBB692B6929299
:101A3000DB92B692DBB6B69292B6929249929292AD
:101A4000494900929292B66D6D926DB66D92B6B69E
:101A500092DBFFFFFFFFFFFFDBFFFFFFFFFFFFFF4B
:101A6000FFFFFFFFFFFFFFFFFFFFFFFFFFFFFFFF86
:101A7000FFFFFFFFFFFFFFFFFFFFFFFFFFFFFFFF76
:101A8000FFFFFFFFFFFFFFFFFFFFFFFFFFFFFFFF66
:101A9000FFFFFFFFFFFFFFFFFFFFFFFF92FFFFFFC3
:101AA000FFFFFFFFFF2449DBDB492400249249FFAD
:101AB000FFDBDB2424B6DB004900DBDB000049B69A
:101AC0006D4992B6B6926DB6DBB69292B66DB6928D
:101AD000B692B692B6B6DBB6DBB6B6DBB6929292EB
:101AE000B6000000929292926D929292B69292B645
:101AF000B624FFFFFFFFFFFFFF92FFFFFFFFFFFF87
:101B0000FFFFFFFFFFFFFFFFFFFFFFFFFFFFFFFFE5
:101B1000FFFFFFFFFFFFFFFFFFFFFFFFFFFFFFFFD5
:101B2000FFFFFFFFFFFFFFFFFFFFFFFFFFFFFFFFC5
:101B3000FFFFFFFFFFFFFFFFFFFFFFFFFF6DFFFF47
:101B4000FFFFFFDBFF922424FFFFB6DBDBDBDBFFC5
:101B500024DBFF922424FFFF24242492924992B68E
:101B6000B6B6B69292DBB692B692B6DB9292B692C7
:101B700092B6B6DBDBDBFFB6B69292B6B66D92924A
:101B80006D926DB692B6B692929292929292B6B6CB
:101B9000B69249FFFFFFFFFFFFFF6DFFFFFFFFFF53
:101BA000FFFFFFFFFFFFFFFFFFFFFFFFFFFFFFFF45
:101BB000FFFFFFFFFFFFFFFFFFFFFFFFFFFFFFFF35
:101BC000FFFFFFFFFFFFFFFFFFFFFFFFFFFFFFFF25
:101BD000FFFFFFFFFFFFFFFFFFFFFFFFFFFF6DFFA7
:101BE000FFFFFFFFFFFF6D0000DBDBDBDBDBB6B6DB
:101BF0006D002449490024DBB62424B66DB69292C8
:101C0000B6DBB692B6B692B6DB929292B6B66DB627
:101C100092B6DBB6B6B6DBDBDB9292B6B6B66D6DCE
:101C2000929292DBFF496D9292496D9292B6929296
:101C300092B6B692FFFFFFFFFFFFFFFFFFFFFFFF20
:101C4000FFFFFFFFFFFFFFFFFFFFFFFFFFFFFFFFA4
:101C5000FFFFFFFFFFFFFFFFFFFFFFFFFFFFFFFF94
:101C6000FFFFFFFFFFFFFFFFFFFFFFFFFFFFFFFF84
:101C7000FFFFFFFFFFFFFFFFFFFFFFFFFFFFFF6D06
:101C8000FFFFFFDBFFFFFF92246DDBDB6D4949495E
:101C90002424002400246DB6DB6DB692924992B6DE
:101CA0009292DBB6B6B6929292B692B692DB9292CE
:101CB000B692B6B6B6DB92DBB6B692B6DB92499276
:101CC000926D92926D246D926D9224B6926DB6B61D
:101CD000B66DB6DBB6FFFFFFFFFFFFFFFFFFFFFFA5
:101CE000FFFFFFFFFFFFFFFFFFFFFFFFFFFFFFFF04
:101CF000FFFFFFFFFFFFFFFFFFFFFFFFFFFFFFFFF4
:101D0000FFFFFFFFFFFFFFFFFFFFFFFFFFFFFFFFE3
:101D1000FFFFFFFFFFFFFFFFFFFFFFFFFFFFFFFFD3
:101D2000DBFFFFFFFFFFFFFF49242424242424249A
:101D3000002492B6DBDB92DBDBFF49929292499260
:101D40009292B6B69292B6929292B6B6B6DB92B62E
:101D5000B6B6B6B692B6B6B6DBDB92DBB6B6B6B6FC
:101D60006D929292B62400926D926D92929292B67A
:101D7000B69292B6B6FFFFFFFFFFFFFFFFFFFFFF28
:101D8000FFFFFFFFFFFFFFFFFFFFFFFFFFFFFFFF63
:101D9000FFFFFFFFFFFFFFFFFFFFFFFFFFFFFFFF53
:101DA000FFFFFFFFFFFFFFFFFFFFFFFFFFFFFFFF43
:101DB000FFFFFFFFFFFFFFFFFFFFFFFFFFFFFFFF33
:101DC000DBFFFFFFFFFFFFFFFF24004924240092F9
:101DD000B6DBDBDBDBDBFF6D246D92496D92926D30
:101DE0006D929292B6B66DB6B692B6B66DDBB6B6D9
:101DF000B6B6B6B6B692DBFFDBDBB6B6B6DB929212
:101E0000DB92929292490049926D929292926D92D7
:101E1000929292B6B66DFFFFFFFFFFFFFFFFFFFF3D
:101E2000FFFFFFFFFFFFFFFFFFFFFFFFFFFFFFFFC2
:101E3000FFFFFFFFFFFFFFFFFFFFFFFFFFFFFFFFB2
:101E4000FFFFFFFFFFFFFFFFFFFFFFFFFFFFFFFFA2
:101E5000FFFFFFFFFFFFFFFFFFFFFFFFFFFFFFFF92
:101E6000FF6DFFFFFFDBFFFFFFFF24246DB6B6DB36
:101E7000DBB6DBFFB649496D6D246D6D6D92926DD9
:101E8000B66D926DB692929292B692B6B66D92B6C9
:101E9000B6B6929292B692B6B6DBDBB6B6B6929270
:101EA000B6B6929292926DDBB692926DB6926D92A8
:101EB0009292B6B6B6B624FFFFFFFFFFFFFF6DFF9D
:101EC000FFFFFFFFFFFFFFFFFFFFFFFFFFFFFFFF22
:101ED000FFFFFFFFFFFFFFFFFFFFFFFFFFFFFFFF12
:101EE000FFFFFFFFFFFFFFFFFFFFFFFFFFFFFFFF02
:101EF000FFFFFFFFFFFFFFFFFFFFFFFFFFFFFFFFF2
:101F0000FFFF6DFFFFFFFFFFDBFFFFDBB6B6DBDB95
:101F1000B649496D4924244949490024B69292B6EC
:101F20006DB6B69292B6B6B6B6B6B69292B649B697
:101F3000B6B6B692B692B6DBB6B6DBDB9292B6B662
:101F4000B6929292B6B6DB92B649B69292926DB6BE
:101F500092B6B6B6B6B69224FFFFFFFFFFFFFF9220
:101F6000FFFFFFFFFFFFFFFFFFFFFFFFFFFFFFFF81
:101F7000FFFFFFFFFFFFFFFFFFFFFFFFFFFFFFFF71
:101F8000FFFFFFFFFFFFFFFFFFFFFFFFFFFFFFFF61
:101F9000FFFFFFFFFFFFFFFFFFFFFFFFFFFFFFFF51
:101FA000FFFFFF49DBFFFFFFFFFFFFDBFFB6496DD0
:101FB0006D492424492424242492B6929224926DBB
:101FC000926D92929292DBB6B6B6B69292DBB692D0
:101FD000B6DBDBB6B6B6B6B6DBB6B6DBDBB6B6DBC3
:101FE0006DB6B69292B6B6B62424499292B6929243
:101FF000926D92B6B692B6B692FFFFFFFFFFFFFF5B
:10200000DBFFFFFFFFFFFFFFFFFFFFFFFFFFFFFF04
:10201000FFFFFFFFFFFFFFFFFFFFFFFFFFFFFFFFD0
:10202000FFFFFFFFFFFFFFFFFFFFFFFFFFFFFFFFC0
:10203000FFFFFFFFFFFFFFFFFFFFFFFFFFFFFFFFB0
:10204000FFFFFFFF6DFFFFFFFFFFFFFF6D4949240B
:10205000246D4924246D92B6DB92929292B69249F5
:102060006DB624926D92B6B6B6B6B6B6B6DBDBDB0D
:10207000DBDBDBB692B6B6B6B6B6B6B6FFDBDBDBFD
:10208000DBB692DB6D92B6B692000049926D924932
:102090006DB649B692B6929292B6FFFFFFFFFFFF70
:1020A000FFFFFFFFFFFFFFFFFFFFFFFFFFFFFFFF40
:1020B000FFFFFFFFFFFFFFFFFFFFFFFFFFFFFFFF30
:1020C000FFFFFFFFFFFFFFFFFFFFFFFFFFFFFFFF20
:1020D000FFFFFFFFFFFFFFFFFFFFFFFFFFFFFFFF10
:1020E000FFFFFFFFFFFFFFFFFFFFFFFFDB6D494922
:1020F000242492926D6D6DB66D6D6D6D926DB6B658
:10210000926D92929292B6B6DB9292B6DBB6B6B66A
:10211000B6B6B6B6B69292B6B6DBB6B6DBFFDBDBCA
:10212000B649B692DB92B6B6B6B6DBFF926D6D924B
:102130004992926D6D92B6DBB66DFFFFFFFFFFFF18
:10214000FFFFFFFFFFFFFFFFFFFFFFFFFFFFFFFF9F
:10215000FFFFFFFFFFFFFFFFFFFFFFFFFFFFFFFF8F
:10216000FFFFFFFFFFFFFFFFFFFFFFFFFFFFFFFF7F
:10217000FFFFFFFFFFFFFFFFFFFFFFFFFFFFFFFF6F
:10218000FFFFFFFFFFFFFFFFFFFFFFFFFFDBB6B615
:1021900092929292496D6D6D926D92B6B6929292B4
:1021A00092926D4992B6929292DB92B6B6B6B6B65C
:1021B000B6B6B6B6DBB6B6DBB6B6B692B6DBDBDB2A
:1021C000B692DBDBDB926DB692B692FFDB92929217
:1021D0006D24926D6D92929292B66DFFFFFFFFFF9C
:1021E000FFFFFFFFFFFFFFFFFFFFFFFFFFFFFFFFFF
:1021F000FFFFFFFFFFFFFFFFFFFFFFFFFFFFFFFFEF
:10220000FFFFFFFFFFFFFFFFFFFFFFFFFFFFFFFFDE
:10221000FFFFFFFFFFFFFFFFFFFFFFFFFFFFFFFFCE
:10222000FFFFFFFFFFFFDBFFFFFFFFFFFFFFDB9273
:10223000B66D9292926D6D6D6D92926D9292929238
:1022400092929292B6B69292DBB6DB9292B6B6B604
:10225000DBDBB6FFDBDB92B6B692B6DBB6DBDBDBF5
:10226000B6DB6D9292B6B6929292B6922424926D9B
:10227000926D9292926D929292B69224FFFFFFFF1E
:10228000FFFFFFFFFFFFFFFFFFFFFFFFFFFFFFFF5E
:10229000FFFFFFFFFFFFFFFFFFFFFFFFFFFFFFFF4E
:1022A000FFFFFFFFFFFFFFFFFFFFFFFFFFFFFFFF3E
:1022B000FFFFFFFFFFFFFFFFFFFFFFFFFFFFFFFF2E
:1022C000FFFFFFFFFFFFFF49FFFFFFFFFFFFFFB61D
:1022D000B69292B6B69292926D926D929292B69298
:1022E00092B6926DB6926D92B692B6B69292B69240
:1022F000DBB6B692DBDBDBB6B692B6B692DBB6DB0C
:10230000DBB6B6DB92B6B6B69292B6FF4900006D68
:1023100092926DB6926D92926D92B6B66DFFFFFF7E
:10232000FFFFFFFFB6FFFFFFFFFFFFFFFFFFFFFF06
:10233000FFFFFFFFFFFFFFFFFFFFFFFFFFFFFFFFAD
:10234000FFFFFFFFFFFFFFFFFFFFFFFFFFFFFFFF9D
:10235000FFFFFFFFFFFFFFFFFFFFFFFFFFFFFFFF8D
:10236000FFFFFFFFFFFFFFFF24FFFFFFFFFFFFFF58
:1023700092B66D6D6D926D4949929292B66D924989
:1023800092929292B6B66D926D92B6DBDBB6B6B60D
:1023900092B6B6B6DBDB9292B6B692B6B6B6B6B623
:1023A000DBDBB649DBB6B69292B6929292006D49EB
:1023B0006D6D926D926D6D9292B6B6B6B6DBDBFF27
:1023C000FFFFFFFFFFFFFFFFFFFFFFFFFFFFFFFF1D
:1023D000FFFFFFFFFFFFFFFFFFFFFFFFFFFFFFFF0D
:1023E000FFFFFFFFFFFFFFFFFFFFFFFFFFFFFFFFFD
:1023F000FFFFFFFFFFFFFFFFFFFFFFFFFFFFFFFFED
:10240000FFFFFFFFFFFFFFFFFF92FFFFFFDBFFDB91
:10241000FF6D9292499292926D92929292929292C2
:1024200049926DB6B692926D92926DB6DBB6B6DBFE
:10243000B6B6B6B6B6B6DB6DB69292B6DBB6B6B683
:10244000B6DBB692B6B692B6B692926D92B6DBB6DF
:102450006D929249B6B66D9292926D9292B692FF3B
:10246000FFFFFFFFFFFFDBFFFFFFFFFFFFFFFFFFA0
:10247000FFFFFFFFFFFFFFFFFFFFFFFFFFFFFFFF6C
:10248000FFFFFFFFFFFFFFFFFFFFFFFFFFFFFFFF5C
:10249000FFFFFFFFFFFFFFFFFFFFFFFFFFFFFFFF4C
:1024A000FFFFFFFFFFFFFFFFFFFFDBFFFFFFFFFF60
:1024B000DBFF92B6926D92B6929292929292929223
:1024C000B66DB69292926D926D92B6B649DBDB9282
:1024D000B6B6B6B6B6B6DBB64992B6B6B6B692B62C
:1024E000B692FFB66D9292B6B6B66D6D9292B6FF89
:1024F000DB6D92929292926D496D9292929292DBE2
:10250000FFFFFFFFFFFFFFFFFFFFFFFFFFFFFFFFDB
:10251000FFFFFFFFFFFFFFFFFFFFFFFFFFFFFFFFCB
:10252000FFFFFFFFFFFFFFFFFFFFFFFFFFFFFFFFBB
:10253000FFFFFFFFFFFFFFFFFFFFFFFFFFFFFFFFAB
:10254000FFFFFFFFFFFFFFFFFFFFFFFFFFFFFFFF9B
:10255000FFDBFFDB92B6B692926D6D92929292B6CD
:102560006D92B6B6926D9292B6B692B6B6B6FFB608
:1025700092B6B6DBB6B692B6DB6DB692B6B6B6B666
:1025800092B6B6FFB6DBDB92B6B692926D6DB6929E
:1025900000009292926D49926D6D9292926DB64941
:1025A000FFFFFFFFFFFFFFFFFFFFFFFFFFFFFFFF3B
:1025B000FFFFFFFFFFFFFFFFFFFFFFFFFFFFFFFF2B
:1025C000FFFFFFFFFFFFFFFFFFFFFFFFFFFFFFFF1B
:1025D000FFFFFFFFFFFFFFFFFFFFFFFFFFFFFFFF0B
:1025E000FFFFFFFFFFFFFFFFFFFFFF92FFFFFFFF68
:1025F000FFFFFFFFB69292926D929292929292B6E4
:10260000B692B692B69292929292929292B6DBB6AD
:10261000B6B6B6B6B6B6B6B6B6B66DB6B6B69292EB
:1026200092B6B6DBDB92B6B692B6B6B692B69292D8
:102630002400006D6D6D6D496D926D6D9292B69234
:1026400024FFFFFFFFFFFFFFDBFFFFFFFFFFFFFF99
:10265000FFFFFFFFFFFFFFFFFFFFFFFFFFFFFFFF8A
:10266000FFFFFFFFFFFFFFFFFFFFFFFFFFFFFFFF7A
:10267000FFFFFFFFFFFFFFFFFFFFFFFFFFFFFFFF6A
:10268000FFFFFFFFFFFFFFFFFFFFFFFFB6FFFFFFA3
:10269000FFFFFFFFFFB66D6D92929292B66D924969
:1026A000926D929292B6B6DB92B6B69292B6B6DBC5
:1026B000DBB6DBB692B6B69292B6B6DBB6B6B692DB
:1026C000B692B6B6B6DBB6B6B6B6B692B69292B615
:1026D0006D24DB496D6D926D496D926D9292926D94
:1026E000B624FFFFFFFFFFFFFFB6FFFFFFFFFFFF67
:1026F000FFFFFFFFFFFFFFFFFFFFFFFFFFFFFFFFEA
:10270000FFFFFFFFFFFFFFFFFFFFFFFFFFFFFFFFD9
:10271000FFFFFFFFFFFFFFFFFFFFFFFFFFFFFFFFC9
:10272000FFFFFFFFFFFFFFFFFFFFFFFFFF49FFFF6F
:10273000FFFFFFFFFF6DB6929292926D929292927E
:102740006D92926D929249B66D92B6B6B692B6926D
:10275000DBDB929292929292B6B692DBDBB6B692A5
:10276000B69292B6B6DB92B6B6B692929292929228
:10277000926DDB92929292926D6D6D92926D926DCE
:1027800092B649FFFFFFFFFFFFFFB6FFFFFFFFFF0E
:10279000FFFFFFFFFFFFFFFFFFFFFFFFFFFFFFFF49
:1027A000FFFFFFFFFFFFFFFFFFFFFFFFFFFFFFFF39
:1027B000FFFFFFFFFFFFFFFFFFFFFFFFFFFFFFFF29
:1027C000FFFFFFFFFFFFFFFFFFFFFFFFFFFF92FF86
:1027D000FFFFFFFFFFFF4992B69292929292B6924C
:1027E0009292929292B69200926D92926DB692925D
:1027F000B6B6B692926DB6DB92B6B6B6FFDBB6DB76
:10280000929292B6B6B6DBDB92DBB6B692B69292F5
:10281000B69292492424926D926D926D926D6D6D77
:10282000B6B6DBB6FFFFFFFFFFFFFFDBFFFFFFFFDB
:10283000FFFFFFFFFFFFFFFFFFFFFFFFFFFFFFFFA8
:10284000FFFFFFFFFFFFFFFFFFFFFFFFFFFFFFFF98
:10285000FFFFFFFFFFFFFFFFFFFFFFFFFFFFFFFF88
:10286000FFFFFFFFFFFFFFFFFFFFFFFFFFFFFFFF78
:10287000FFFFFFFFFFFFDB929292929292B692B619
:102880006DB6B6929292B692929292926D92B6B6BE
:10289000B692B692B6B6DB92B6B6B6B6DBB6B6921E
:1028A000B6B6B692B6B6B6B6B6DB92B6B6B692DBEA
:1028B00092B6929249006D92926D926D6D9292B61F
:1028C0006D244924DBFFFFFFFFFFFFFFFFFFFFFF3A
:1028D000FFFFFFFFFFFFFFFFFFFFFFFFFFFFFFFF08
:1028E000FFFFFFFFFFFFFFFFFFFFFFFFFFFFFFFFF8
:1028F000FFFFFFFFFFFFFFFFFFFFFFFFFFFFFFFFE8
:10290000FFFFFFFFFFFFFFFFFFFFFFFFFFFFFFFFD7
:10291000FFFFFFFFFFFFFFFFDBDB929292B6929279
:1029200092B6B6929292B6B66D499292926D92B666
:1029300092B6B6DBB69292929249DBB6B6B6DBB6E9
:1029400092B6B692B6B6B6B6FFDBB6B6B69292926D
:10295000929292B69249B692929292B66D2424497E
:102960000024242400FFFFFFFFFFFFFFFFFFFFFF06
:10297000FFFFFFFFFFFFFFFFFFFFFFFFFFFFFFFF67
:10298000FFFFFFFFFFFFFFFFFFFFFFFFFFFFFFFF57
:10299000FFFFFFFFFFFFFFFFFFFFFFFFFFFFFFFF47
:1029A000FFFFFFFFFFFFFFFFFFFFFFFFFFFFFFFF37
:1029B000FFFFFFFFFFFFFFFFFFDB92926DB69292DA
:1029C0006D6D926D92B6B692926D92929292B6920F
:1029D00092B692B6B692B6B66D92B6B6B6B6B6B670
:1029E000DB6DB692DBB6B6B66DDBDBB69292B6DBCC
:1029F000B6926D926D6D92DB6D4900242424002403
:102A0000242424244949FFFFFFFFFFFFFFFFFFFFAE
:102A1000FFFFFFFFFFFFFFFFFFFFFFFFFFFFFFFFC6
:102A2000FFFFFFFFFFFFFFFFFFFFFFFFFFFFFFFFB6
:102A3000FFFFFFFFFFFFFFFFFFFFFFFFFFFFFFFFA6
:102A4000FFFFFFFFFFFFFFFFFFFFFFFFFFFFFFFF96
:102A5000FF92FFFFFFFFFFDBFFDB92926DB6926DEF
:102A60006D9292926D6D6D929292B6B6B69292926E
:102A700092B6B6B6FFB6B6B6DBB6B6B692B692B6F4
:102A800092B66DB69292B6B6B6DBB6B692B69292E2
:102A9000B6929292929249922424242400002424F3
:102AA00000240024242449FFFFFFFFFFFFFF6DFFE8
:102AB000FFFFFFFFFFFFFFFFFFFFFFFFFFFFFFFF26
:102AC000FFFFFFFFFFFFFFFFFFFFFFFFFFFFFFFF16
:102AD000FFFFFFFFFFFFFFFFFFFFFFFFFFFFFFFF06
:102AE000FFFFFFFFFFFFFFFFFFFFFFFFFFFFFFFFF6
:102AF000FFFF6DFFFFFFFFFFFFFF6DB6B6B69292BF
:102B0000929292926D6D6D926D929292B69292B6F1
:102B10006D9292B692DBB692DBB6B692B6B66DDB2C
:102B2000DB929292929292B6B6B6DBB6B6DB92B6D2
:102B3000DBB6926DB6926D24242424242400002454
:102B40000000244949242492FFFFFFFFFFFFFF926A
:102B5000FFFFFFFFFFFFFFFFFFFFFFFFFFFFFFFF85
:102B6000FFFFFFFFFFFFFFFFFFFFFFFFFFFFFFFF75
:102B7000FFFFFFFFFFFFFFFFFFFFFFFFFFFFFFFF65
:102B8000FFFFFFFFFFFFFFFFB692FFFFFFFFFFFF0B
:102B9000FFFFFF6DFFFFFFFFFFFFFF49926D6D6DB0
:102BA0006D6D926D6D6D92926D9292B6B6B66D6DC1
:102BB000922492B66DB6B6DBB6DBB692B6B6B6B6B2
:102BC00049B692B6DB92B6B6926DDBDBDB92B6927B
:102BD000B6B6DB6D6D929292006D6D492424244946
:102BE0004924242424244949B6FFFFFFFFFFFFFFA7
:102BF0006DFFFFFFFFFFFFFFFFFFFFFFFFFFFFFF77
:102C0000FFFFFFFFFFFFFFFFFFFFFFFFFFFFFFFFD4
:102C1000FFFFFFFFFFFFFFFFFFFFFFFFFFFFFFFFC4
:102C2000FFFFFFFFFFFFFFFFFF49FFFFFFFFFFFF6A
:102C3000FFFFFFFFFFFFFFFFFFFFFFFF92926D927D
:102C400092B66D92929292B692B6B6929292924942
:102C50006D6D926DB6B6B6DB929292B6B6B6B6DB35
:102C60006D9249B6B6B6B692B6B6B692DBB6B66D4A
:102C7000DB92B6B6926D929249B6DB0049242424C9
:102C8000242400242449494924DBFFFFB6FFFFFF29
:102C9000FFFFFFFFFFFFFFFFFFFFFFFFFFFFFFFF44
:102CA000FFFFFFFFFFFFFFFFFFFFFFFFFFFFFFFF34
:102CB000FFFFFFFFFFFFFFFFFFFFFFFFFFFFFFFF24
:102CC000FFFFFFFFFFFFFFFFFFFFFF00FFFFFFFF13
:102CD000FFFFFFFFFFFFFFFFFFFFFFFFFFB6929227
:102CE0006D6D6D6D6DB692B6929292B69292929211
:102CF0006D92B692B692B692B6B6B692B692B6B695
:102D000092B6B6B649DBB6DBB6B66DB6B6B6B6B6F3
:102D100092B6B6DBDB926D92926DFFFF002400004D
:102D2000244924244900242492DBFFFFFF6DFFFF88
:102D3000FFFFFFFFFFFFFFFFFFFFFFFFFFFFFFFFA3
:102D4000FFFFFFFFFFFFFFFFFFFFFFFFFFFFFFFF93
:102D5000FFFFFFFFFFFFFFFFFFFFFFFFFFFFFFFF83
:102D6000FFFFFFFFFFFFFFFFFFFFFFFFFFFFFFFF73
:102D7000FFFFFFFFFFFFFFFFFFFFFFFFFFDB929261
:102D80006D92929292929292929292B692B692B6DC
:102D90006DB692B692929292B6B6B692B692B6923C
:102DA000B69292DBB69292DB9292DBB692B6DBB62B
:102DB000DB9292B6B6B692B6929249240049244963
:102DC00024494900246DB6B6DBFFFFFFFFFFFFFF7C
:102DD000FFFF92FFFFFFFFFFFFFFFFFFFFFFFFFF70
:102DE000FFFFFFFFFFFFFFFFFFFFFFFFFFFFFFFFF3
:102DF000FFFFFFFFFFFFFFFFFFFFFFFFFFFFFFFFE3
:102E0000FFFFFFFFFFFFFFFFFFFFFFFFDBFFFFFFF6
:102E1000FFFFFFFFFFFFFFFFFFFFFFFFFFFFFF922F
:102E20009292B692926D926D9292929292B6929284
:102E300092B692B6926D929292DBB69292B6B6929A
:102E400092B69292B692B6DB6D6D926DB69292DBAF
:102E5000B6B6B6DB92DBB66D929249002400002430
:102E6000246DB6B6B6B6DBB6B6240000FFFFFFFF92
:102E7000FFFFFF6DFFFFFFFFFFFFFFFFFFFFFFFFF4
:102E8000FFFFFFFFFFFFFFFFFFFFFFFFFFFFFFFF52
:102E9000FFFFFFFFFFFFFFFFFFFFFFFFFFFFFFFF42
:102EA000FFFFFFFFFFFFFFFFFFFFFF49FFFFFFFFE8
:102EB000FFFFFFFFFFFFFF6DFFFFFFFFFFFFFF6D46
:102EC000B66D6DB692926D926DB692B6926D6D9230
:102ED0006D92B69292499292926DDBB6DBB6B6B61F
:102EE0009292B6B692B692B6DBB69292B692B6B659
:102EF000DB92B6DBB6B6B6B66D6DB6B62424B66D4B
:102F0000DBB6B6B6B6922424000000246DFFFFFFA6
:102F1000FFFFFFFF6DFFFFFFFFFFFFFFFFFFFFFF53
:102F2000FFFFFFFFFFFFFFFFFFFFFFFFFFFFFFFFB1
:102F3000FFFFFFFFFFFFFFFFFFFFFFFFFFFFFFFFA1
:102F4000FFFFFFFFFFFFFFFFFFFFFFFF49FFFFFF47
:102F5000FFFFFFFFFFFFFFFFB6FFFFFFFFFFFFDBEE
:102F6000499292929292926D926D6D9292B6926DFA
:102F70006D926D92B6B649926D9292DBB6B6B6B6C8
:102F8000B66DB6B692B6B6DBB692B62492B6B6B603
:102F9000DBB6B692B6B6B692924949B6DBB6B692F1
:102FA000FFB64900000024000024002424B6FFFFDF
:102FB000FFFFFFFFFFDBFFFFFFFFFFFFFFFFFFFF45
:102FC000FFFFFFFFFFFFFFFFFFFFFFFFFFFFFFFF11
:102FD000FFFFFFFFFFFFFFFFFFFFFFFFFFFFFFFF01
:102FE000FFFFFFFFFFFFFFFFFFFFFFFFFFFFFFFFF1
:102FF000FFFFFFFFFFFFFFFFFFDBFFFFFFFFDBDB4D
:10300000FFB66DB6929292926D6D92929292B69236
:10301000929292B66D9292926D929292DBB692B625
:10302000B69292B6B6B6B6DBB6B6DB926D49B6B618
:10303000B6DBDBB6B6B6B6B6B6244949DBDBDB4950
:10304000242424242400000049DBB6DB0024DBFF19
:10305000FFB6FFFFFFFFFFFFFFFFFFFFFFFFFFFFC9
:10306000FFFFFFFFFFFFFFFFFFFFFFFFFFFFFFFF70
:10307000FFFFFFFFFFFFFFFFFFFFFFFFFFFFFFFF60
:10308000FFFFFFFFFFFFFFFFFFFFFFFFFFFFFFFF50
:10309000FFFFFFFFFFFFFFFFFFFFFFFFFFFFFFDB64
:1030A000DBFF92929292926D6D6D9292926D9292DE
:1030B0006D929292929292249292929292B692925F
:1030C00092B69292B6B692B6DB92DBB6B692B624C0
:1030D000B6B6DBB6B6929292B6B6246D00DBDB24B0
:1030E0002400002424B69292B6B6B6DBDB0024FF9F
:1030F000FFFF92FFFFFFFFFFFFFFFFFFFFFFFFFF4D
:10310000FFFFFFFFFFFFFFFFFFFFFFFFFFFFFFFFCF
:10311000FFFFFFFFFFFFFFFFFFFFFFFFFFFFFFFFBF
:10312000FFFFFFFFFFFFFFFFFFFFFFFFFFFFFFFFAF
:10313000FFFFFFFFFFFFFFFFFFFFFFFFFFFFFFFF9F
:10314000DBFFDBB6926D6D6D926D6D6DB66D926D40
:1031500092926D92B66D9292926DB69292B6929252
:103160009292B6B6B6B692B6B6B692B6B6B692B6B3
:103170009292DBB6DBB6B6B6B692926D6D49B69258
:103180002400B6B6DBB6DBDBDBB624B6DBB6242424
:10319000FFFFFFDBFFFFFFDBFFFFFFFFFFFFFFFF87
:1031A000FFFFFFFFFFFFFFFFFFFFFFFFFFFFFFFF2F
:1031B000FFFFFFFFFFFFFFFFFFFFFFFFFFFFFFFF1F
:1031C000FFFFFFFFFFFFFFFFFFFFFFFFFFFFFFFF0F
:1031D000FFFFFFFFFFFFFFFFFFFFFF6DFFFFDBFFB5
:1031E000FFFFFFB6926D92926D926D6D92B69292C4
:1031F00092926D9292926D6D92926D246D6DB6B6B3
:10320000B6B6B6B6B6B6B6B6B6B6B6B692926D9213
:1032100092B692DBDB92B6DB92B6DB926D4949DB6C
:10322000002400DBDBDB6D0000242424DBDB4924ED
:1032300049FFFFFFFFFFFFFF92FFFFFFFFFFFFFFC1
:10324000FFFFFFFFFFFFFFFFFFFFFFFFFFFFFFFF8E
:10325000FFFFFFFFFFFFFFFFFFFFFFFFFFFFFFFF7E
:10326000FFFFFFFFFFFFFFFFFFFFFFFFFFFFFFFF6E
:10327000FFFFFFFFFFFFFFFFFFFFFFFF6DFFDBDB38
:10328000FFFFDBDB49926D926D92926D9292926D8F
:10329000926D6D9292B692492424242449B692B636
:1032A000DBB6B6B692B6B6929292B69292B6B6B671
:1032B00092B692B66DDBDBB692B6B6B69249496D60
:1032C000DB000049B6DB24242400002400DBDB0003
:1032D000246DFFFFFFFFFFFFFF92FFFFFFFFFFFFD8
:1032E000FFFFFFFFFFFFFFFFFFFFFFFFFFFFFFFFEE
:1032F000FFFFFFFFFFFFFFFFFFFFFFFFFFFFFFFFDE
:10330000FFFFFFFFFFFFFFFFFFFFFFFFFFFFFFFFCD
:10331000FF6DFFB6FFFFFFFFFFFFFFFFFF6DFFFF2A
:10332000FFFFFFDBDB24926D926D6D6D6D9292B6A7
:10333000B6926D2424244949242424492449B66D95
:103340009292B6B6926D92B692B6B6DBB692B66D62
:103350009292B692B6DBB6B6B692926DB6924949E3
:10336000B6FF002449FFDB00242424242400DBDBF7
:103370002400DBFFFFFFFFFFFFFF6DFFFFFFFFFFED
:10338000FFFFFFFFFFFFFFFFFFFFFFFFFFFFFFFF4D
:10339000FFFFFFFFFFFFFFFFFFFFFFFFFFFFFFFF3D
:1033A000FFFFFFFFFFFFFFFFFFFFFFFFFFFFFFFF2D
:1033B000FFFFFF9224FFFFFFFFFFFFFFFFFFDBFF89
:1033C000FFFFFFFFFFDB6D9249926D6D6D496D6DE3
:1033D000926D9249240000246DDBDBFF922400B63D
:1033E00092DB9292B6B69292B6B6B6B6B6B6B6DBE7
:1033F000DB92B692DBDBFF926DB6DBB6B66D6D2469
:1034000049FFDB0024DBFF920024000024496DFF0C
:10341000FF0024FFFFFFFFFFFFFFFFFFFFFFFFFF96
:10342000FFFFFFFFFFFFFFFFFFFFFFFFFFFFFFFFAC
:10343000FFFFFFFFFFFFFFFFFFFFFFFFFFFFFFFF9C
:10344000FFFFFFFFFFFFFFFFFFFFFFFFFFFFFFFF8C
:10345000FFFFFF2449FFFFFFFFFFFFFFFFFFFFFF0D
:10346000FFFFFFDBDBDBFF926D6D6D6D6DB6926D67
:103470006D92926D240049FFDBB6DBDBB692000053
:1034800092B6B6B66D92B692B6B6B6B6B692B6B6B5
:103490006DB6B6DB92B6B6DBB6B649B6DB92B66DA4
:1034A0006D6DB6DB2400DBDB922400000024249247
:1034B000DBFF0024FFDBFF92FFFFFFDBFFFFFFFFCF
:1034C000FFFFFFFFFFFFFFFFFFFFFFFFFFFFFFFF0C
:1034D000FFFFFFFFFFFFFFFFFFFFFFFFFFFFFFFFFC
:1034E000FFFFFFFFFFFFFFFFFFFFFFFFFFFFFFFFEC
:1034F000FFFFFFFFFFFFFFFFFFFFFFFFFFFFFFFFDC
:10350000FFFFFFFFFFFFFFDB926D6D926D92926DEB
:103510006D92929292004992B6DBDB92DB926D241F
:10352000246DB6DBB66DB6B692B6B6B692B6B6B682
:103530006DB692929292B6B6FFDB92B6B6DBDBB670
:1035400049496DDB920000DBDB0024000000002411
:10355000DBB6490024FFFFFFDBFFFFFFDBFFFFFFC0
:10356000FFFFFFFFFFFFFFFFFFFFFFFFFFFFFFFF6B
:10357000FFFFFFFFFFFFFFFFFFFFFFFFFFFFFFFF5B
:10358000FFFFFFFFFFFFFFFFFFFFFFFFFFFFFFFF4B
:10359000FFFFFFFFFFDB6DFFFFFFFFFFFFFFFFFFF1
:1035A00092FFFFFFFFFFFFFFDBB66D6D92926D6D27
:1035B00092926D926D920024B6DBB62400DB92925B
:1035C000002492B6B69292B692B6B6DBB692B69296
:1035D000926DB6B6B6B692B6DBB6B6B624B66DB6D2
:1035E00092496D49B6242400DBDB2449000049B62A
:1035F000FFB6DB244900FFFFFFDBFFFFFF92FFFF69
:10360000FFFFFFFFFFFFFFFFFFFFFFFFFFFFFFFFCA
:10361000FFFFFFFFFFFFFFFFFFFFFFFFFFFFFFFFBA
:10362000FFFFFFFFFFFFFFFFFFFFFFFFFFFFFFFFAA
:10363000FFFFFFFFFFFFFFFFFFFFFFFFFFFFFFFF9A
:10364000FF6DFFFFFFFFDBFFB649929292929292CD
:10365000929292926D92B62424B6B6492424DB6DE0
:1036600024496D92B6DBB692B69292B6B6B6B6B6AD
:10367000B69292929292B66DDBDBFFB692B6B6B678
:10368000DBB6494992DB004949B6DB6DB6DBDB248A
:10369000DBDBDBDB242424FFFFFFFFFFFFFF92FFC8
:1036A000FFFFFFFFFFFFFFFFFFFFFFFFFFFFFFFF2A
:1036B000FFFFFFFFFFFFFFFFFFFFFFFFFFFFFFFF1A
:1036C000FFFFFFFFFFFFFFFFFFFFFFFFFFFFFFFF0A
:1036D000FFFFFFFFFFFF2492FFFFFFFFFFFFFFFF42
:1036E000FFFF6DFFFFFFFFFFDBDB6D926D6D6D6D0B
:1036F0006D6D9292929249494900DBDBDBFF92B6F5
:10370000B62424B692DBB692B6B6B69292B692DBE7
:10371000DBB6DBB692929292B6B6DBB6DB92B6B669
:10372000B6929249496DDB0024B6FFFFDBDBDBDBA1
:103730006DB64924242449FFFFFFFFFFFFFFFF92DE
:10374000FFFFFFFFFFFFFFFFFFFFFFFFFFFFFFFF89
:10375000FFFFFFFFFFFFFFFFFFFFFFFFFFFFFFFF79
:10376000FFFFFFFFFFFFFFFFFFFFFFFFFFFFFFFF69
:10377000FFFFFFFFFFFFFFFF246DFFFFFFFFFFFFC6
:10378000FFFFFF92FFFFFFDBFFDBFFB66D6D6D6D8F
:1037900092B692926D6D6D92494924DBDBDBDBB60C
:1037A0004924242492B6B6B6B6B69292DBDBB6DBD9
:1037B000DBB69292DBB692B6DBDBB692DBB6B6B680
:1037C000B6DBB649926D49B60000DBDBFFDB6D244A
:1037D0002400242424240024FFFFFF6DFFFFFFFFAB
:1037E000FFFFFFFFFFFFFFFFFFFFFFFFFFFFFFFFE9
:1037F000FFFFFFFFFFFFFFFFFFFFFFFFFFFFFFFFD9
:10380000FFFFFFFFFFFFFFFFFFFFFFFFFFFFFFFFC8
:10381000FFFFFFFFFFFFFFFFB69249FFFFFFFFFF24
:10382000FFFFFFFF6DDBFFFFFFFFDBFFB6926D9237
:103830006D92926D6D6D9292922449926D24242422
:103840002449002449B6B6DBB692B6DBB6B6B6B6A6
:10385000B6DBDB92B6B6B69292B6DB6DFFB692B629
:10386000B6B6926D6D006D6DB624244924242424CF
:103870002400000049DBFFDBFFFFFFFF6DFFFFFFC0
:10388000FFFFFFFFFFFFFFFFFFFFFFFFFFFFFFFF48
:10389000FFFFFFFFFFFFFFFFFFFFFFFFFFFFFFFF38
:1038A000FFFFFFFFFFFFFFFFFFFFFFFFFFFFFFFF28
:1038B000FFFFFFFFFFFFFFFFFFFF92FFFFFFFFFF85
:1038C000FFFFFFFFFFFFFFDBFFFFDBDBDBDB6D6DE0
:1038D000926D926D6D6D92926D6D00492449242414
:1038E000246DB692B66D6DDBB6DBB692B692B6922B
:1038F000B6DBB649B6B6DBB69292B692DBDBDBB688
:10390000B6DBB66DDB6D49246D49244924242400BF
:10391000246DB6FFFFB6DBFFFFFFFFFFFF6DFFFF6C
:10392000FFDBFFFFFFFFFFFFFFFFFFFFFFFFFFFFCB
:10393000FFFFFFFFFFFFFFFFFFFFFFFFFFFFFFFF97
:10394000FFFFFFFFFFFFFFFFFFFFFFFFFFFFFFFF87
:10395000FFFFFFFFFFFFFFFFFFFFFF49DBFFFFFF51
:10396000FFFFFFFFFF6DFFFFFFFFFFFFFFDB9292F7
:10397000929292B6926D92926D6D6D0000246D6D73
:103980009292926D9292DB00B6DBB6DBB6B6B6DBF6
:10399000B6B6DBDBFF92DBDBDBB6DBB6DBB6DBB67A
:1039A000B6B6B6B692B6496D49DB00240024B6FF20
:1039B000B6DB49B6DBFFFFFFFFFFFFFFFFFFB6FFF0
:1039C000FFFF92FFFFFFFFFFFFFFFFFFFFFFFFFF74
:1039D000FFFFFFFFFFFFFFFFFFFFFFFFFFFFFFFFF7
:1039E000FFFFFFFFFFFFFFFFFFFFFFFFFFFFFFFFE7
:1039F000FFFFFFFFFFFFFFFFFFFFFFFFDBFFFFFFFB
:103A0000FFFFFFFFFFFF49FFFFFFFFFFFFDB2492E8
:103A10009292926D499292B69292929292B692B688
:103A20009292B6B66D6D92B692DBDB92B69292B67A
:103A3000DBDB92B66DB6B6B6DBB692DBB6B692DB22
:103A4000DBB6B6B6B6B6DB6D6DB6B6DBFFFFDBDB5D
:103A5000FFDBFFFF6DDBFFFFFFFFFFFFFFFFFFFF50
:103A6000FFFFFF92FFFFFFFFFFFFFFFFFFFFFFFFD3
:103A7000FFFFFFFFFFFFFFFFFFFFFFFFFFFFFFFF56
:103A8000FFFFFFFFFFFFFFFFFFFFFFFFFFFFFFFF46
:103A9000FFFFFFFFFFFFFFFFFFFFFFFFFFFFFFFF36
:103AA000FFFFFFFFFFFFFF24FFFFFFFFFFFFDB2400
:103AB000926D926D6D926D6D6D929292B6929292A0
:103AC000DB92B6926D92B6B692B6FF6DDB92B6B649
:103AD000B6DBB6B6DBFFB6DB92DB6DDBB6B6DB92F0
:103AE000FFB649B6DBB6B64992B6B6DBDBDBDBFF29
:103AF000FFFFFFFF9249FFFFFFFFFFFFFFFFFFFFF9
:103B0000FFFFFFFF6DFFFFFFFFFFFFFFFFFFFFFF57
:103B1000FFFFFFFFFFFFFFFFFFFFFFFFFFFFFFFFB5
:103B2000FFFFFFFFFFFFFFFFFFFFFFFFFFFFFFFFA5
:103B3000FFFFFFFFFFFFFFFFFFFFFFFFFFFFFFFF95
:103B4000FFFFFFFFFFFFFFFF24FFFFFFFFFFDBDBA8
:103B50006D926DB6B66DB6929292B6926D92929249
:103B600092926D6D92B6B692B692B6DBFF6DB6DBF1
:103B7000B6B6B6B6926DDB92B6DBB6B6B6DBB6DBE2
:103B80006DDBDBB649B6B6FFDBFFDB92DBFF49FF3F
:103B9000FFFFFFFFFFFF49FFFFFFFFFFFFFFFFFFEB
:103BA000B6FFFFDB92FFFFFFFFFFFFFFFFFFFFFFFF
:103BB000FFFFFFFFFFFFFFFFFFFFFFFFFFFFFFFF15
:103BC000FFFFFFFFFFFFFFFFFFFFFFFFFFFFFFFF05
:103BD000FFFFFFFFFFFFFFFFFFFFFFFFFFFFFFFFF5
:103BE000FFFFFFFFFFFFFFFFFFDBDBFFFFFFFFFF2D
:103BF000DB6D9292926D929292B6926D92929292A7
:103C00006D6D929292B6DBB69292B6DBDBB6DB922A
:103C1000DBB6DBB6DBB6DBB6DB92DBB6B6DBB6DB40
:103C20004949DBFFFFFFFFFFFFFFFFFF6DFFFFFFC6
:103C300024FFFFFFFFFFFFFFFFFFFFFFFFFFFFFF6F
:103C40009249DBFFFFFFFFFFFFFFFFFFFFFFFFFFCB
:103C5000FFFFFFFFFFFFFFFFFFFFFFFFFFFFFFFF74
:103C6000FFFFFFFFFFFFFFFFFFFFFFFFFFFFFFFF64
:103C7000FFFFFFFFFFFFFFFFFFFFFFFFFFFFFFFF54
:103C8000FFFFFFFFFFFFFFFFFFDBFFFFFFFFFFFF68
:103C9000FFFF929292926D92B6B6929292B69292E3
:103CA000929292B692B6B66DB6B692B6B649DBB6F9
:103CB000DBB6B6B6DBB66DFFDB6DDBDBFF6D92DB33
:103CC000DB92DBFFFFFFFF6DFFFFFFFFFF6DFFFFDD
:103CD000FFFFB6FFFFFFFFDBFFFFFFFFFF6D6DFF85
:103CE000FFFF6DFFFFFFFFFFFFFFFFFFFFFFFFFF76
:103CF000FFFFFFFFFFFFFFFFFFFFFFFFFFFFFFFFD4
:103D0000FFFFFFFFFFFFFFFFFFFFFFFFFFFFFFFFC3
:103D1000FFFFFFFFFFFFFFFFFFFFFFFFFFFFFFFFB3
:103D2000FFFFFFFFFFFFFFFFFFFFDBFFDBFFFFFFEB
:103D3000FFFF6DB692929292B69292929292B69242
:103D400092B66D926D92B6B66DB692B692DBB6B67D
:103D5000B6B69249DBDBB6DBFF2449DBFFFFFFFF92
:103D6000DBFFFFFFB6FFFFFFB6FFFFFFFFFFDBFF3D
:103D7000FFFFFFFF6DFFFFFFB6926DDBFFFFFFFF51
:103D8000FFFFFF6DFFFFFFFFFFFFFFFFFFFFFFFFD5
:103D9000FFFFFFFFFFFFFFFFFFFFFFFFFFFFFFFF33
:103DA000FFFFFFFFFFFFFFFFFFFFFFFFFFFFFFFF23
:103DB000FFFFFFFFFFFFFFFFFFFFFFFFFFFFFFFF13
:103DC000FFFFFFFFFFFFFFFFFFFFFF92FFFFDBFF94
:103DD000FFFFDB4992929292929292926D9292920E
:103DE0009292B6B6929292B6926DB6B692B6DB6DDC
:103DF000B6B6B6B6DB6D6D49FFDBFFFFFFFFFFFF19
:103E0000B6FFFFFFFFFFFFFFFFFFFFFFFFFFFFFF0B
:103E1000FFFFFFFFFFDB6D6D6D92FFFFFFFFFFFFF9
:103E2000FFFFFFFFDBFFFFFFFFFFFFFFFFFFFFFFC6
:103E3000FFFFFFFFFFFFFFFFFFFFFFFFFFFFFFFF92
:103E4000FFFFFFFFFFFFFFFFFFFFFFFFFFFFFFFF82
:103E5000FFFFFFFFFFFFFFFFFFFFFFFFFFFFFFFF72
:103E6000FFFFFFFFFFFFFFFFFFFFFFFF49FFFFFF18
:103E7000FFFFFFFF4992929292926DB692929292B8
:103E800092B6929292B6B692B692B66D92B6B6DBF2
:103E900092B66D49B6FFFF92B6FFFFFFDBFFFFFF53
:103EA000B6FFFFFFFFFFDBFFFFB6FFFFFFFFFF9245
:103EB000FFFFDB926DFFFF6DFF496DFFFFFFFFFF0F
:103EC000FFFFFFFFFFFFFFFFFFFFFFFFFFFFFFFF02
:103ED000FFFFFFFFFFFFFFFFFFFFFFFFFFFFFFFFF2
:103EE000FFFFFFFFFFFFFFFFFFFFFFFFFFFFFFFFE2
:103EF000FFFFFFFFFFFFFFFFFFFFFFFFFFFFFFFFD2
:103F0000FFFFFFFFFFFFFFFFFFFFFFFFFF6DFFFF53
:103F1000FFFFFFFFFF92B6DB926D92B692B6B692AC
:103F2000B692B6B692B6B692B6B6B6B6B6B6DB49E5
:103F30006D92FFFFFFFFFFFF9292FFFFFFFFFFFF6A
:103F4000DBFFFFFFFFFFFFB6FFDBFFFFFFFFFFB65B
:103F50006D92FFFFFFFFFFFFFF496DFFFFFFFFFFB8
:103F6000FFFFFFFFFFFFFFFFFFFFFFFFFFFFFFFF61
:103F7000FFFFFFFFFFFFFFFFFFFFFFFFFFFFFFFF51
:103F8000FFFFFFFFFFFFFFFFFFFFFFFFFFFFFFFF41
:103F9000FFFFFFFFFFFFFFFFFFFFFFFFFFFFFFFF31
:103FA000FFFFFFFFFFFFFFFFFFFFFFFFFFFFFFFF21
:103FB000FFFFFFFFFFFFB69292929292B6B6B692C3
:103FC00092B6929292B692B6B692B6B66D6DFFFF69
:103FD000FFFFB6FFFFFFFFFFB6FFFFDBFFFFFFDBCB
:103FE000FFFFFFFFFFFFFFFF6DFF6DFF926DDBFF28
:103FF000FF6DFFFFFFFFFFFFFFFFFFFFFFFFFFFF63
:10400000FFFFFFFFFFFFFFFFFFFFFFFFFFFFFFFFC0
:10401000FFFFFFFFFFFFFFFFFFFFFFFFFFFFFFFFB0
:10402000FFFFFFFFFFFFFFFFFFFFFFFFFFFFFFFFA0
:10403000FFFFFFFFFFFFFFFFFFFFFFFFFFFFFFFF90
:10404000FFFFFFFFFFFFFFFFFFFFFFFFFFFFFFFF80
:10405000FFDBFFFFDBFFFFDB9292B66DB6B692B6D9
:1040600092929292929292DB9249DBFFB6FFFFFF0F
:10407000FFFFFFFFDBFFFFB6FF49FFFFFF92FF924D
:10408000FFFFFFFFFFFFFFFFFF49B6FFFFFFFFFF3F
:10409000FFFFB6FFFFFFFFFFFFFFFFFFFFFFFFFF79
:1040A000FFFFFFFFFFFFFF92DBFFFFFFFFFFFFFFB1
:1040B000FFFFFFFFFFFFFFFFFFFFFFFFFFFFFFFF10
:1040C000FFFFFFFFFFFFFFFFFFFFFFFFFFFFFFFF00
:1040D000FFFFFFFFFFFFFFFFFFFFFFFFFFFFFFFFF0
:1040E000FFFFFFFFFFFFFFFFFFFFFFFFFFFFFFB629
:1040F000FFFFFFFFFFFFFFB6B692B69292B692B6F1
:10410000929292B6DB926DDBFFFFFFFFFF92FFFF03
:10411000FFFFFFFFFF6DFF92FFDBFFFFFFFFFF24AD
:10412000FFFFFFFFFFFF92DBFFFF6DB6FFFFFFFF0B
:10413000FFFFFFDBFFFFFFFFFFFFFFFFFFFFFFFFB3
:10414000FFFFFFFFFFFFDBFF6DFFFFFFFFFFFFFF35
:10415000FFFFFFFFFFFFFFFFFFFFFFFFFFFFFFFF6F
:10416000FFFFFFFFFFFFFFFFFFFFFFFFFFFFFFFF5F
:10417000FFFFFFFFFFFFFFFFFFFFFFFFFFFFFFFF4F
:10418000FFFFFFFFFFFFFFFFFFFFFFFFFFFFFFFF3F
:1041900049FFFFFFFFFFFFFF49B66D92B692926D98
:1041A00049926DB6DBFFFFFFFFFFFFFFFFFF92FFAE
:1041B000FFFFFFFFFFFF4992FFFFDBFFFFFFB6FF9F
:1041C000FFB6FF92DBFFFFFFFFFFFF92B6FFFFFF8F
:1041D000FFFFFFFFFFFFFFFFFFFFFFFFFFFF926DEE
:1041E000FFFFFFFFFFFFFF92FFFFFFFFFFFFFFFF4C
:1041F000FFFFFFFFFFFFFFFFFFFFFFFFFFFFFFFFCF
:10420000FFFFFFFFFFFFFFFFFFFFFFFFFFFFFFFFBE
:10421000FFFFFFFFFFFFFFFFFFFFFFFFFFFFFFFFAE
:10422000FFFFFFFFFFFFFFFFFFFFFFFFFFFFFFFF9E
:10423000FF24FFFFFFFFFFFFDB4992B692DBB66D65
:10424000B624DBFFFFFFFFFFFFFFDBFFFFFFFFFFEA
:10425000FFFFFFFFFFFFDB6DFFFFDBFFFFFFDBFF6C
:10426000DBDBFFB6FFFFFFFFFFFFFFFFB6FFFFFF38
:10427000FFFFFFFFFFFFFFFFFFFFFFFFFFFFB6494D
:10428000FFFFFFFFFFFFFFFF926D92FFFFFFFFFFAA
:10429000FFFFFFFFFFFFFFFFFFFFFFFFFFFFFFFF2E
:1042A000FFFFFFFFFFFFFFFFFFFFFFFFFFFFFFFF1E
:1042B000FFFFFFFFFFFFFFFFFFFFFFFFFFFFFFFF0E
:1042C000FFFFFFFFFFFFFFFFFFFFFFFFFFFFFFFFFE
:1042D000FFFFB6FFFFFFFFFFFFDB6D496DDBFFDB7D
:1042E000FFDB49FFFFFFFFFFFFFFFFFFFFFFFFFFB8
:1042F000FFFFFFFFFFFFB6FF92FFFFB6FFFFB6FF16
:10430000FFFFFFFFFF92FFFFFFFFFFFFFFFFFFFF2A
:10431000FFFFFFFFFFFFFFFFFFFFFFFFFFFFFFFFAD
:10432000FFFFFFFFFFFFFFFFFF926DFFFFFFFFFF9C
:10433000FFFFFFFFFFFFFFFFFFFFFFFFFFFFFFFF8D
:10434000FFFFFFFFFFFFFFFFFFFFFFFFFFFFFFFF7D
:10435000FFFFFFFFFFFFFFFFFFFFFFFFFFFFFFFF6D
:10436000FFFFFFFFFFFFFFFFFFFFFFFFFFFFFFFF5D
:10437000FFFFFFFFFFFFFFFFFFFFDBFFDBFFFFFF95
:10438000FFFFDB92FFFFFFFFFFFFFFFFFFFFFFFFCE
:10439000FFFFFFFFFFFF49FFDB6DFFB6FFFFFFFFE2
:1043A000FFFFFFFFFFFFFFFFFFFFFFFFFFFFFFFF1D
:1043B000FFFFFFFFFFFFDBB6FFFFFFFFFFFFFFB6C3
:1043C000B649FFFFFFFFFFFFFFFFFFFF92FFFFFF69
:1043D000FFFFFFFFFFFFFFFFFFFFFFFFFFFFFFFFED
:1043E000FFFFFFFFFFFFFFFFFFFFFFFFFFFFFFFFDD
:1043F000FFFFFFFFFFFFFFFFFFFFFFFFFFFFFFFFCD
:10440000FFFFFFFFFFFFFFFFFFFFFFFFFFFFFFFFBC
:10441000FFFFFFB6FFFFFFFFFFDBFFFFFFFFFFFF19
:10442000FFFFFFFFDBDBDBFFFFFFFFFFFFFFFFFF08
:10443000FFB6FFFFFFDB6DFFFFFFFFFFFF92FFFFF8
:10444000FFFFFFFFFFFFFFFFFFFFFFFFFFFFFFFF7C
:10445000FFFFFFFFFFFF926DFFFFFFFFFFFFFFFF6B
:10446000496D49FFFFFFFFFFFFFFFF92B6DBFFFF34
:10447000FFFFFFFFFFFFFFFFFFFFFFFFFFFFFFFF4C
:10448000FFFFFFFFFFFFFFFFFFFFFFFFFFFFFFFF3C
:10449000FFFFFFFFFFFFFFFFFFFFFFFFFFFFFFFF2C
:1044A000FFFFFFFFFFFFFFFFFFFFFFFFFFFFFFFF1C
:1044B000FFFFFFFF6DFFFFFFFFFFFFFFFFFFFFFF9E
:1044C000FFFFFFFFDBFFFFFFFFFFFFFFFFFFFFFF20
:1044D000FFFFB692FFDBFFFFFFFFFFFF6DB6FFFFA1
:1044E000FFFFFFFFFFFFFFFFFFFFFFFFFFFFFFB625
:1044F000FFFFFFFFFFFFFFFFDBDBFFFFFFFFFFFF14
:10450000FF92FFDBFFFFFFFFFFFFFFB6B692FFFF4B
:10451000FFFFFFFFFFFFFFFFFFFFFFFFFFFFFFFFAB
:10452000FFFFFFFFFFFFFFFFFFFFFFFFFFFFFFFF9B
:10453000FFFFFFFFFFFFFFFFFFFFFFFFFFFFFFFF8B
:10454000FFFFFFFFFFFFFFFFFFFFFFFFFFFFFFFF7B
:10455000FFFFFFFFFF6DFFFFFFFFFFFFFFFFFFFFFD
:10456000FFFFFFDBDBB6FFFFFFFFFFFFFFFFB692A2
:10457000FFFFFFFFFF49FFFFFFFFFFFFFFFFFFFF01
:10458000FFFFFFFFFFFFFFFFFF92DBFFFFFFFFFFCC
:10459000B6FFFFFFFFFFFFFFDB6D6DFFFFFFFFFFBC
:1045A000FFFF6D6D92FFFFFFFFFFFFFFFFFFFFFFAC
:1045B000FFFFFFFFFFFFFFFFFFFFFFFFFFFFFFFF0B
:1045C000FFFFFFFFFFFFFFFFFFFFFFFFFFFFFFFFFB
:1045D000FFFFFFFFFFFFFFFFFFFFFFFFFFFFFFFFEB
:1045E000FFFFFFFFFFFFFFFFFFFFFFFFFFFFFFFFDB
:1045F000FFFFFFFFFFFF6DFFFFFFFFFFFFFFFFFF5D
:10460000FFFFFFFFFFFF24FFFFFFFF9292FFFFFF6F
:10461000FFFFFFFFFF6DFFFFFFFFFFFFFFFFFFFF3C
:10462000FFFFFFFFFFFFFFFFFFB6DB92FFFFFFFF74
:10463000FFFFFFFFFFFFFFFFFF4992DBFFFFFFFFD1
:10464000FFFFFFB6B66DFFFFFFFFFFFFFFFFFFFF9E
:10465000FFFFFFFFFFFFFFFFFFFFFFFFFFFFFFFF6A
:10466000FFFFFFFFFFFFFFFFFFFFFFFFFFFFFFFF5A
:10467000FFFFFFFFFFFFFFFFFFFFFFFFFFFFFFFF4A
:10468000FFFFFFFFFFFFFFFFFFFFFFFFFFFFFFFF3A
:10469000FFFFFFFFFFFFFFB6FFFFFFFFFFFFFFFF73
:1046A000FFFFFFFFFFFFFF2492B6FFFFFFFFFFFFAB
:1046B000FFFFFFFFFFFFFFFFFFFFFFFFFFFFFFFF0A
:1046C000FFFFFFFFFFFFFFFFFFFF926D6DFFFFFF8B
:1046D000FFFFDBB6FFFFFFFFFFFFFFFFFFFFFFFF57
:1046E000FFFFFFFFFFFFFFFFFFFFFFFFFFFFFFFFDA
:1046F000FFFFFFFFFFFFFFFFFFFFFFFFFFFFFFFFCA
:10470000FFFFFFFFFFFFFFFFFFFFFFFFFFFFFFFFB9
:10471000FFFFFFFFFFFFFFFFFFFFFFFFFFFFFFFFA9
:10472000FFFFFFFFFFFFFFFFFFFFFFFFFFFFFFFF99
:10473000FFFFFFFFFFFFFFFFDBFFFFFFFFFFFFFFAD
:10474000FFFFFFFFDB6DDBFFB6FFFFFFFFFFFFFF9C
:10475000FFFFFFFFFFFFFFFFFFFFFFFFFFFFFFFF69
:10476000FFFFFFFFFFFFFFFFFFFFFFFFFFB6FFFFA2
:10477000FFFFB6B6B6FFFFFFFFFFDBFF92FFFFFFB5
:10478000FFFFFFFFFFFFB6FFFFFFFFFFFFFFFFFF82
:10479000FFFFFFFFFFFFFFFFFFFFFFFFFFFFFFFF29
:1047A000FFFFFFFFFFFFFFFFFFFFFFFFFFFFFFFF19
:1047B000FFFFFFFFFFFFFFFFFFFFFFFFFFFFFFFF09
:1047C000FFFFFFFFFFFFFFFFFFFFFFFFFFFFFFFFF9
:1047D000FFFFFFFFFFFFFFFFFFFFFFFFFFFFFFFFE9
:1047E000DB49B6FFFFFFFFFFFFFFFFFFFFFFFFFFFC
:1047F000FFFFFFFFFFFFFFFFFFFFFFFFFFFFFFDBED
:10480000FF92FFFFFFFFFFFFFFFFFFFFB692FFFFDB
:10481000FFFFFFDBFFB6FFFFFFFFFF6DB66DFFFF82
:10482000FFFFFFFFFF9292B6FFFFFFFFFFFFFFFFBB
:10483000FFFFFFFFFFFFFFFFFFFFFFFFFFFFFFFF88
:10484000FFFFFFFFFFFFFFFFFFFFFFFFFFFFFFFF78
:10485000FFFFFFFFFFFFFFFFFFFFFFFFFFFFFFFF68
:10486000FFFFFFFFFFFFFFFFFFFFFFFFFFFFFFFF58
:10487000FFFFFFFFFFFFFFFFFFB6FFFFFFDB6DB690
:10488000FFFFFFFFFFFFFFFFFF92FFFFFFFFFFFFA5
:10489000FFFFFFFFFFFFFFFFFFFFFFFFFFFFFFFF28
:1048A000DBDBFFFFFFFFFFFFFFFFFFFFFFFFFFFF60
:1048B000FFFFFFFF929292FFFFFFFFFFFFFFFFFF4F
:1048C000FFFFFFFFFFFFFFFFFFFFFFFFFFFFFFFFF8
:1048D000FFFFFFFFFFFFFFFFFFFFFFFFFFFFFFFFE8
:1048E000FFFFFFFFFFFFFFFFFFFFFFFFFFFFFFFFD8
:1048F000FFFFFFFFFFFFFFFFFFFFFFFFFFFFFFFFC8
:10490000FFFFFFFFFFFFFFFFFFFFFFFFFFFFFFFFB7
:10491000FFFFFFFFFFFFFFFFFFFF6DB6FFFFFFFF82
:10492000FFFFFFFFFFFFFFFFFFFFFFFFFFFFFFFF97
:10493000FFFFFFFFFFFFFFDB49FFFFFFFFFFFFFF61
:10494000FFFFFFFFFFFFFFFFFFFFFFFFFFFFFFB6C0
:10495000DBFFFFFFFFB6926DFFFFFFFFFFFFFFFFD3
:10496000FFFFFFFFFFFFFFFFFFFFFFFFFFFFFFFF57
:10497000FFFFFFFFFFFFFFFFFFFFFFFFFFFFFFFF47
:10498000FFFFFFFFFFFFFFFFFFFFFFFFFFFFFFFF37
:10499000FFFFFFFFFFFFFFFFFFFFFFFFFFFFFFFF27
:1049A000FFFFFFFFFFFFFFFFFFFFFFFFFFFFFFFF17
:1049B000FFFFFFFFFFFFFFFFFFFFFFFFFFFFFFFF07
:1049C000FFFFFFFFFFFFFFFFFFFFFFFFFFFFFFFFF7
:1049D000FFFFFFFFFFFFFF92B6DBFFFFFFFFFFFFC1
:1049E000FFFF92B6FFFFFFFFFFFFFFFFFFFFDBFFB1
:1049F0006DFFFFFFFFFFFFFFFFFFFFFFFFFFFFFF59
:104A0000FFFFFFFFFFFFFFFFFFFFFFFFFFFFFFFFB6
:104A1000FFFFFFFFFFFFFFFFFFFFFFFFFFFFFFFFA6
:104A2000FFFFFFFFFFFFFFFFFFFFFFFFFFFFFFFF96
:104A3000FFFFFFFFFFFFFFFFFFFFFFFFFFFFFFFF86
:104A4000FFFFFFFFFFFFFFFFFFFFFFFFFFFFFFFF76
:104A5000FFFFFFFFFFFFFFFFFFFFFFFFFFFFFFFF66
:104A6000FFFFFFFFFFFFFFFFFFFFFFFFFFFFFFFF56
:104A7000FFFFFFFFFFFFFFFF6DFFFFFFFFFFFFFFD8
:104A8000FFFFFFFF6DFFFFFFFFFFFFFFFFFFFFB611
:104A90006DB6FFFFFFFFFFFF6DDBFFFFFFFFFFFFB7
:104AA000FFFFFFFFFFFFFFFFFFFFFFFFFFFFFFFF16
:104AB000FFFFFFFFFFFFFFFFFFFFFFFFFFFFFFFF06
:104AC000FFFFFFFFFFFFFFFFFFFFFFFFFFFFFFFFF6
:104AD000FFFFFFFFFFFFFFFFFFFFFFFFFFFFFFFFE6
:104AE000FFFFFFFFFFFFFFFFFFFFFFFFFFFFFFFFD6
:104AF000FFFFFFFFFFFFFFFFFFFFFFFFFFFFFFFFC6
:104B0000FFFFFFFFFFFFFFFFFFFFFFFFFFDB92FF46
:104B1000FFFFFFFFFFFFFFFFFFFF92FFFFFFFFFF12
:104B2000FFFFFFFFDBFFFFFFFFFFFFFFFFFFFFFFB9
:104B3000FFFF6DFFFFFFFFDBDBB6FFFFFFFFFFFFA8
:104B4000FFFFFFFFFFFFFFFFFFFFFFFFFFFFFFFF75
:104B5000FFFFFFFFFFFFFFFFFFFFFFFFFFFFFFFF65
:104B6000FFFFFFFFFFFFFFFFFFFFFFFFFFFFFFFF55
:104B7000FFFFFFFFFFFFFFFFFFFFFFFFFFFFFFFF45
:104B8000FFFFFFFFFFFFFFFFFFFFFFFFFFFFFFFF35
:104B9000FFFFFFFFFFFFFFFFFFFFFFFFFFFFFFFF25
:104BA000FFFFFFFFFFFFFFFFFFFFFFFFFFDBB6245D
:104BB000B6FFFFFFFFFFFFFFFFFFB6B6FFFFFFFFE0
:104BC000FFFFFFFFDBB6DBFFFFFFFFFFFFFFFFFF86
:104BD000FFFF6DB6FFFFFFFFFFFFFFFFFFFFFFFFC0
:104BE000FFFFFFFFFFFFFFFFFFFFFFFFFFFFFFFFD5
:104BF000FFFFFFFFFFFFFFFFFFFFFFFFFFFFFFFFC5
:104C0000FFFFFFFFFFFFFFFFFFFFFFFFFFFFFFFFB4
:104C1000FFFFFFFFFFFFFFFFFFFFFFFFFFFFFFFFA4
:104C2000FFFFFFFFFFFFFFFFFFFFFFFFFFFFFFFF94
:104C3000FFFFFFFFFFFFFFFFFFFFFFFFFFFFFFFF84
:104C4000FFFFFFFFFFFFFFFFFFFFFFFF92FFFFDB05
:104C50006DFFFFFFFFFFFFFFFFFFFF6DFFFFFFFF88
:104C6000FFFFFFFFFFB6B6FFFFFFFFFFFFFFFFFFE6
:104C7000FFFFFFDBFFFFFFFFFFFFFFFFFFFFFFFF68
:104C8000FFFFFFFFFFFFFFFFFFFFFFFFFFFFFFFF34
:104C9000FFFFFFFFFFFFFFFFFFFFFFFFFFFFFFFF24
:104CA000FFFFFFFFFFFFFFFFFFFFFFFFFFFFFFFF14
:104CB000FFFFFFFFFFFFFFFFFFFFFFFFFFFFFFFF04
:104CC000FFFFFFFFFFFFFFFFFFFFFFFFFFFFFFFFF4
:104CD000FFFFFFFFFFFFFFFFFFFFFFFFFFFFFFFFE4
:104CE000FFFFFFFFFFFFFFFFFFFFFFFFFF92B692F7
:104CF0004992FFFFFFFFFFFFFFFFFFFFFFFFFFFFE7
:104D0000FFFFFFFFFFFFFFFFFFFFFFFFFFFFFFFFB3
:104D1000FFFFFFFFFFFFFFFFFFFFFFFFFFFFFFFFA3
:104D2000FFFFFFFFFFFFFFFFFFFFFFFFFFFFFFFF93
:104D3000FFFFFFFFFFFFFFFFFFFFFFFFFFFFFFFF83
:104D4000FFFFFFFFFFFFFFFFFFFFFFFFFFFFFFFF73
:104D5000FFFFFFFFFFFFFFFFFFFFFFFFFFFFFFFF63
:104D6000FFFFFFFFFFFFFFFFFFFFFFFFFFFFFFFF53
:104D7000FFFFFFFFFFFFFFFFFFFFFFFFFFFFFFFF43
:104D8000FFFFFFFFFFFFFFFFFFFFFFFFFF49B6FF32
:104D9000FF9249FFFFFFFFFFFFFFFFFFFF92B6FFFC
:104DA000FFFFFFFFFFFFDBDB92FFFFFFFFFFFFFFC8
:104DB000FFFFFFFFFFFFFFFFFFFFFFFFFFFFFFFF03
:104DC000FFFFFFFFFFFFFFFFFFFFFFFFFFFFFFFFF3
:104DD000FFFFFFFFFFFFFFFFFFFFFFFFFFFFFFFFE3
:104DE000FFFFFFFFFFFFFFFFFFFFFFFFFFFFFFFFD3
:104DF000FFFFFFFFFFFFFFFFFFFFFFFFFFFFFFFFC3
:104E0000FFFFFFFFFFFFFFFFFFFFFFFFFFFFFFFFB2
:104E1000FFFFFFFFFFFFFFFFFFFFFFFFFFFFFFFFA2
:104E2000FFFFFFFFFFFFFFFFFFFFFFFFFFFF496DDA
:104E3000FF6D6DFFFFFFFFFFFFFFFFFFFFFFFFFFA6
:104E4000FFFFFFFFFFFFFF4992B6FFFFFFFFFFFFDE
:104E5000FFFFFFFFFFFFFFFFFFFFFFFFFFFFFFFF62
:104E6000FFFFFFFFFFFFFFFFFFFFFFFFFFFFFFFF52
:104E7000FFFFFFFFFFFFFFFFFFFFFFFFFFFFFFFF42
:104E8000FFFFFFFFFFFFFFFFFFFFFFFFFFFFFFFF32
:104E9000FFFFFFFFFFFFFFFFFFFFFFFFFFFFFFFF22
:104EA000FFFFFFFFFFFFFFFFFFFFFFFFFFFFFFFF12
:104EB000FFFFFFFFFFFFFFFFFFFFFFFFFFFFFFFF02
:104EC000FFFFFFFFFFFFFFFFFFFFFFFFFFFF9292CC
:104ED0006DFF9292FFFFFFFFFFFFFFFFFFFF929228
:104EE0006DFFFFFFFFFFFFFFFFFFFFFFFFFFFFFF64
:104EF000FFFFFFFFFFFFFFFFFFFFFFFFFFFFFFFFC2
:104F0000FFFFFFFFFFFFFFFFFFFFFFFFFFFFFFFFB1
:104F1000FFFFFFFFFFFFFFFFFFFFFFFFFFFFFFFFA1
:104F2000FFFFFFFFFFFFFFFFFFFFFFFFFFFFFFFF91
:104F3000FFFFFFFFFFFFFFFFFFFFFFFFFFFFFFFF81
:104F4000FFFFFFFFFFFFFFFFFFFFFFFFFFFFFFFF71
:104F5000FFFFFFFFFFFFFFFFFFFFFFFFFFFFFFFF61
:104F6000FFFFFFFFFFFFFFFFFFFFFFFFFFFFFFB69A
:104F700049DBFF9249FFFFFFFFFFFFFFFFFFFF92AB
:104F80006D6DFFFFFFFFFFFFFFFFFFFFFFFFFFFF55
:104F9000FFFFFFFFFFFFFFFFFFFFFFFFFFFFFFFF21
:104FA000FFFFFFFFFFFFFFFFFFFFFFFFFFFFFFFF11
:104FB000FFFFFFFFFFFFFFFFFFFFFFFFFFFFFFFF01
:104FC000FFFFFFFFFFFFFFFFFFFFFFFFFFFFFFFFF1
:104FD000FFFFFFFFFFFFFFFFFFFFFFFFFFFFFFFFE1
:104FE000FFFFFFFFFFFFFFFFFFFFFFFFFFFFFFFFD1
:104FF000FFFFFFFFFFFFFFFFFFFFFFFFFFFFFFFFC1
:10500000FFFFFFFFFFFFFFFFFFFFFFFFFFFFFFFFB0
:10501000FFFFFFFF6DFFFFFFFFFFFFFFFFFFFFFF32
:105020006DFFFFFFFFFFFFFFFFFFFFFFFFFFFFFF22
:10503000FFFFFFFFFFFFFFFFFFFFFFFFFFFFFFFF80
:10504000FFFFFFFFFFFFFFFFFFFFFFFFFFFFFFFF70
:10505000FFFFFFFFFFFFFFFFFFFFFFFFFFFFFFFF60
:10506000FFFFFFFFFFFFFFFFFFFFFFFFFFFFFFFF50
:10507000FFFFFFFFFFFFFFFFFFFFFFFFFFFFFFFF40
:10508000FFFFFFFFFFFFFFFFFFFFFFFFFFFFFFFF30
:10509000FFFFFFFFFFFFFFFFFFFFFFFFFFFFFFFF20
:1050A000FFFFFFFFFFFFFFFFFFFFFFFFFFFFFFFF10
:1050B000FFFF92FF926DDBFFFFFFFFFFFFFFFFFF90
:1050C000FFFFFFFFFFFFFFFFFFFFFFFFFFFFFFFFF0
:1050D000FFFFFFFFFFFFFFFFFFFFFFFFFFFFFFFFE0
:1050E000FFFFFFFFFFFFFFFFFFFFFFFFFFFFFFFFD0
:1050F000FFFFFFFFFFFFFFFFFFFFFFFFFFFFFFFFC0
:10510000FFFFFFFFFFFFFFFFFFFFFFFFFFFFFFFFAF
:10511000FFFFFFFFFFFFFFFFFFFFFFFFFFFFFFFF9F
:10512000FFFFFFFFFFFFFFFFFFFFFFFFFFFFFFFF8F
:10513000FFFFFFFFFFFFFFFFFFFFFFFFFFFFFFFF7F
:10514000FFFFFFFFFFFFFFFFFFFFFFFFFFFFFFFF6F
:10515000FFFF92DBFFFFDBDBFFFFFFFFFFFFFFFF38
:10516000FFFFFFFFFFFFFFFFFFFFFFFFFFFFFFFF4F
:10517000FFFFFFFFFFFFFFFFFFFFFFFFFFFFFFFF3F
:10518000FFFFFFFFFFFFFFFFFFFFFFFFFFFFFFFF2F
:10519000FFFFFFFFFFFFFFFFFFFFFFFFFFFFFFFF1F
:1051A000FFFFFFFFFFFFFFFFFFFFFFFFFFFFFFFF0F
:1051B000FFFFFFFFFFFFFFFFFFFFFFFFFFFFFFFFFF
:1051C000FFFFFFFFFFFFFFFFFFFFFFFFFFFFFFFFEF
:1051D000FFFFFFFFFFFFFFFFFFFFFFFFFFFFFFFFDF
:1051E000FFFFFFFFFFFFFFFFFFFFFFFFFFFFFFFFCF
:1051F000FFFFFFFFFFFF6DFFFFFFFFFFFFFFFFFF51
:10520000FFFFFFFFFFFFFFFFFFFFFFFFFFFFFFFFAE
:10521000FFFFFFFFFFFFFFFFFFFFFFFFFFFFFFFF9E
:10522000FFFFFFFFFFFFFFFFFFFFFFFFFFFFFFFF8E
:10523000FFFFFFFFFFFFFFFFFFFFFFFFFFFFFFFF7E
:10524000FFFFFFFFFFFFFFFFFFFFFFFFFFFFFFFF6E
:10525000FFFFFFFFFFFFFFFFFFFFFFFFFFFFFFFF5E
:10526000FFFFFFFFFFFFFFFFFFFFFFFFFFFFFFFF4E
:10527000FFFFFFFFFFFFFFFFFFFFFFFFFFFFFFFF3E
:10528000FFFFFFFFFFFFFFFFFFFFFFFFFFFFFFFF2E
:10529000FFFFFFFFFFFFFFFFFFFFFFFFFFFFFFFF1E
:1052A000FFFFFFFFFFFFFFFFFFFFFFFFFFFFFFFF0E
:1052B000FFFFFFFFFFFFFFFFFFFFFFFFFFFFFFFFFE
:1052C000FFFFFFFFFFFFFFFFFFFFFFFFFFFFFFFFEE
:1052D0002DE9F84F92B01546029100211C9ADFF893
:1052E00004828DF82F2081469A4608910FF28C4651
:1052F0004FF0FF370CE025280FD015F8011B02985E
:10530000C8470028029000F0D7800898401C0890F9
:1053100028780028EFD10898E6E00020002100223C
:1053200005900691079201E041F0010115F8010F87
:105330002028F9D023280CD02B2804D02D2805D0E4
:10534000302809D0BAE041F00201EFE741F0040152
:10535000ECE741F00801E9E741F01001E6E70A92C5
:1053600009E00A98404505DA00EB800402EB4402AC
:10537000303A0A926D1C2A78A2F130000A28F0D344
:1053800028782E2818BF099725D115F8010F2A284B
:105390000AD1DAF80000CAF800006D1C50F8042B9E
:1053A000CAF80000099216E02D280CBF6D1C0020E1
:1053B000002209920AE040B9099A424505DA02EB57
:1053C000820403EB4403303B09936D1C2B78A3F15B
:1053D00030020A2AEFD3ADF82C103046297800F0BD
:1053E000DFF908B115F8010B8DF82E009DF82E009D
:1053F000682804BF2978682903D162208DF82E001F
:105400006D1C0CA80490524615F8013B01A94846B2
:1054100000F098F800284FD10A980599079A069C41
:10542000401A801A041B9DF82C0041070FD420203D
:10543000002C8DF800000ADDA34601236A4601A96D
:10544000484600F084F9B8BBBBF1010BF5D1059BD0
:105450000CAA01A9484600F07AF968BBDDF81CB037
:105460003020BBF1000F8DF8000009DD01236A46F2
:1054700001A9484600F06BF9F0B9BBF1010BF5D179
:10548000069B039A01A9484600F061F9A0B99DF86E
:105490002C0041077FF53CAF2020002C8DF8000048
:1054A0007FF736AF01236A4601A9484600F04FF95D
:1054B00010B9641EF6D12BE7384615E02A287FF490
:1054C0004EAFDAF80020CAF8002052F8040BCAF8F0
:1054D000002000280A9003D540420A9041F00401C0
:1054E0006D1C4DE7CBCCCC0C13B0BDE8F08F62281F
:1054F0000ED0682819D1002A0A680A60106803D003
:10550000121D0A6000B217E0121D0A6080B217E097
:10551000002A0A680A60106803D0121D0A6040B2AF
:105520000AE0121D0A60C0B20AE0002A0A680A6096
:10553000106803D0121D0A60C1177047121D0A605F
:105540000021704770B51C460D46252CEE681146AB
:1055500000F08480582C37D0632C0ED0642C18BFF8
:10556000692C14D06F2C2FD0702C49D0732C53D0B1
:10557000752C18BF782C27D076E02869421C2A6148
:105580000A680A6052F8043B0A60335476E095F8E2
:105590002A000122FFF7ABFF0028286004D5286904
:1055A000411C29612D220DE0288D810704D5286931
:1055B000411C29612B2205E0C0071CD52869411C2C
:1055C00029612022325416E095F82A000022FFF7C4
:1055D0008EFF286095F8280001070CD5286850B187
:1055E00044F02001782906D1286930213154401C2B
:1055F000421C2A613454214628693044A86007E0DF
:105600000868086050F8042B08602A60AE607821B2
:10561000284600F035F831E00868086050F8044B7F
:105620000860AC603CB900BF56A000F0E1F84FF054
:10563000FF34201A70BD2E6A002E04D5204600F0DB
:10564000F7F8044608E032460021204600F00CF945
:10565000002814BF041B34466C610FE02869411C0C
:1056600029612522325409E02969481C2861252234
:105670007254210002D0431C2B613454002070BDB1
:10568000F0B402466F29D46808BF082605D041F05F
:105690002000782814BF0A261026182513686429CC
:1056A00018BF6929184602D1002B48BF4042F0B903
:1056B000136AE3B9082E39D192F82800010735D5CD
:1056C00030201725E07531E000280ED592F828002B
:1056D00000F01400102808D1546A11699069641A06
:1056E000241AE31A012BA8BF9361F0BC7047B0FBEA
:1056F000F6F706FB170030306D1EC3B23A2BA4BF7D
:10570000A1F1510318186055380003D09368671948
:10571000BB42ECD3082E09D192F82800010705D529
:10572000605D302802D06D1E30206055C5F1180331
:10573000106A5361611983429160C5DA118DC31AF1
:105740004FF6EF70014093611185F0BC7047F8B5DA
:1057500005460E4617461C46002074B117F8011B7B
:105760007068A847706030B1F069401CF06100209B
:10577000641EF3D1F2BD4FF0FF30F2BD686C747A55
:105780004C0000007072696E74665F733A2062614B
:105790006420257320617267756D656E740000006A
:1057A000C9B202788A421AB11CBF10F8012FF9E77A
:1057B00018BF0020704730B4002513E050F8042BC8
:1057C000D30744BFA9F101039A18091F042942F81D
:1057D000045BFAD213468C0744BF15809B1CC90793
:1057E00048BF1D7050F8041B0029E7D130BC70473A
:1057F00080B500B906A005490B681BB12222002123
:10580000984701E000F05CF8222002BD202D012025
:10581000636F6E73747261696E742068616E646C1C
:1058200065723A20626164206D657373616765001B
:1058300000F10103810704D010F8011B820781B138
:10584000FAD10268A2F10131914311F0803104BF15
:1058500050F8042FF6E709BAB1FA81F100EBD10054
:10586000401CC01A7047FEE7C9B2830706D0521E1B
:1058700022D310F8013B9942F7D11FE0083A13D325
:1058800002F1040241EA012141EA014150F8043BDE
:10589000121F21BF4B40A3F1013C2CEA030C1CF06A
:1058A000803FF3D0C9B2001F083210F8013B521EEE
:1058B00028BF91EA030FF8D818BF0120401E704797
:1058C000012000F001B8FEE780B5AFF30080024A86
:1058D00011001820ABBEFBE72600020038B504001B
:1058E000002201214C2000F015FA002201214D2058
:1058F00000F010FA002201214E2000F00BFA0022E5
:1059000001214F2000F006FA00220121502000F072
:1059100001FADFF85853286830F4805028603220AC
:1059200000F08EFA286850F480502860322000F091
:1059300087FA112000F0E8F80A2000F081FA3A20F6
:1059400000F0E2F8552000F001F9262000F0DCF824
:10595000042000F0FBF8F22000F0D6F8012000F05F
:10596000F5F8E02000F0D0F83F2000F0EFF8252017
:1059700000F0ECF81C2000F0E9F81E2000F0E6F83A
:10598000202000F0E3F8122000F0E0F82A2000F0D8
:10599000DDF8902000F0DAF8242000F0D7F811208C
:1059A00000F0D4F8002000F0D1F8002000F0CEF88C
:1059B000002000F0CBF8002000F0C8F8002000F034
:1059C000C5F8E12000F0A0F8202000F0BFF820206A
:1059D00000F0BCF8202000F0B9F8202000F0B6F864
:1059E000052000F0B3F8002000F0B0F8152000F01A
:1059F000ADF8A72000F0AAF83D2000F0A7F8182085
:105A000000F0A4F8252000F0A1F82A2000F09EF86C
:105A10002B2000F09BF82B2000F098F83A2000F0A3
:105A200095F8B12000F070F8002000F08FF8002009
:105A300000F08CF8B42000F067F8072000F086F83A
:105A4000C02000F061F80A2000F080F8022000F089
:105A50007DF8C12000F058F8022000F077F8C5204A
:105A600000F052F84F2000F071F85A2000F06EF864
:105A7000C72000F049F8402000F068F82A2000F024
:105A800043F8002000F062F8002000F05FF80020EA
:105A900000F05CF8A82000F059F82B2000F034F852
:105AA000002000F053F8002000F050F8002000F033
:105AB0004DF8B32000F04AF8362000F025F8200019
:105AC000C0B2002803D0C02000F040F802E0A020BF
:105AD00000F03CF8B72000F017F8002000F036F88E
:105AE000292000F011F82C2000F00EF831BD000044
:105AF0000100481E002906D000210A00032AF7DA17
:105B000000BF521CFAE77047DFF86021116831F4DA
:105B10000051116000210B00DBB2082B15DA13686D
:105B200033F400431360030604D5136853F4804331
:105B3000136003E0136833F480431360136853F475
:105B4000004313604000491CE5E7704770B504004E
:105B5000DFF81851286850F4005028600026300003
:105B6000C0B208281BDA286830F400402860012001
:105B7000FFF7BEFF200604D5286850F48040286057
:105B800003E0286830F480402860286850F4004022
:105B900028600120FFF7ACFF6400761CDFE770BDD2
:105BA000DFF8CC20116851F40051116000210B0086
:105BB000DBB2102B15DA136833F4004313600304CF
:105BC00004D5136853F48043136003E0136833F47F
:105BD00080431360136853F4004313604000491C72
:105BE000E5E77047F8B504000D0016001F002A20F5
:105BF000FFF78AFF0020FFF7A9FF2000C0B2FFF7E0
:105C0000A5FF0020FFF7A2FF3000C0B2FFF79EFF04
:105C10002B20FFF779FF0020FFF798FF2800C0B284
:105C2000FFF794FF0020FFF791FF3800C0B2FFF7A5
:105C30008DFF2C20FFF768FFF1BD70B504008123B4
:105C40009F2200210020FFF7CDFF00259F2D0BD2C2
:105C500000200600812E05D2200080B2FFF7A0FFB1
:105C6000761CF7E76D1CF1E770BD000080F00F4077
:105C700080F00F402DE9F84F04000D0016001F00C2
:105C8000DDF828807B19DBB23019421ED2B2290020
:105C9000C9B22000C0B2FFF7A5FF5FF0000A3100D3
:105CA000C9B23800C0B241438A451CD25FF0000B34
:105CB00018F80A00C0B2C008C0B2C00218F80A1032
