:1000000088C70120A91D0000911E0000A70900005B
:10001000070A0000471100006B11000000000000FB
:10002000000000000000000000000000E7120000D7
:100030008B14000000000000D3160000B51E000065
:10004000D11E0000D91E0000E11E0000E91E0000C4
:10005000F11E0000F91E0000011F0000091F000032
:10006000111F0000191F0000211F0000291F0000A0
:10007000311F0000391F0000411F0000491F000010
:10008000511F000079200000792000007920000035
:1000900079200000792000007920000079200000FC
:1000A000591F0000611F0000691F0000711F000040
:1000B000791F0000811F000079200000891F0000C7
:1000C000911F0000991F0000A11F0000A91F000040
:1000D000B11F0000B91F0000C11F000079200000FF
:1000E00079200000792000007920000079200000AC
:1000F000792000007920000079200000792000009C
:10010000CF1B0000D51B0000E71B0000ED1B00000B
:10011000792000007920000079200000792000007B
:10012000792000007920000079200000792000006B
:10013000A11B000079200000A51C00007920000010
:1001400079200000C91F0000F51B0000D11F00002E
:10015000792000007920000079200000792000003B
:100160007920000079200000D91F0000E11F000065
:10017000E91F0000F11F0000F91F0000012000002E
:10018000092000001120000019200000212000009B
:1001900029200000312000003920000079200000D3
:1001A0007920000079200000792000004120000023
:1001B0007920000079200000492000005120000033
:1001C000592000006120000069200000712000001B
:1001D00079200000792000007920000079200000BB
:1001E00079200000792000007920000079200000AB
:1001F000792000007920000079200000792000009B
:10020000792000007920000079200000792000008A
:1003F000792000007920000079200000FFFFFFFF36
:10040000FFFFFFFFFFFFFFFFFFFFFFFFFEFFFFFFFD
:100410002DE9F84F92B01546029100211C9ADFF8A1
:1004200004828DF82F2081469A4608910FF28C465F
:100430004FF0FF370CE025280FD015F8011B02986C
:10044000C8470028029000F0D7800898401C089008
:1004500028780028EFD10898E6E00020002100224B
:1004600005900691079201E041F0010115F8010F96
:100470002028F9D023280CD02B2804D02D2805D0F3
:10048000302809D0BAE041F00201EFE741F0040161
:10049000ECE741F00801E9E741F01001E6E70A92D4
:1004A00009E00A98404505DA00EB800402EB4402BB
:1004B000303A0A926D1C2A78A2F130000A28F0D353
:1004C00028782E2818BF099725D115F8010F2A285A
:1004D0000AD1DAF80000CAF800006D1C50F8042BAD
:1004E000CAF80000099216E02D280CBF6D1C0020F0
:1004F000002209920AE040B9099A424505DA02EB66
:10050000820403EB4403303B09936D1C2B78A3F169
:1005100030020A2AEFD3ADF82C103046297800F0CB
:10052000DFF908B115F8010B8DF82E009DF82E00AB
:10053000682804BF2978682903D162208DF82E002D
:100540006D1C0CA80490524615F8013B01A94846C1
:1005500000F098F800284FD10A980599079A069C50
:10056000401A801A041B9DF82C0041070FD420204C
:10057000002C8DF800000ADDA34601236A4601A97C
:10058000484600F084F9B8BBBBF1010BF5D1059BDF
:100590000CAA01A9484600F07AF968BBDDF81CB046
:1005A0003020BBF1000F8DF8000009DD01236A4601
:1005B00001A9484600F06BF9F0B9BBF1010BF5D188
:1005C000069B039A01A9484600F061F9A0B99DF87D
:1005D0002C0041077FF53CAF2020002C8DF8000057
:1005E0007FF736AF01236A4601A9484600F04FF96C
:1005F00010B9641EF6D12BE7384615E02A287FF49F
:100600004EAFDAF80020CAF8002052F8040BCAF8FE
:10061000002000280A9003D540420A9041F00401CE
:100620006D1C4DE7CBCCCC0C13B0BDE8F08F62282D
:100630000ED0682819D1002A0A680A60106803D011
:10064000121D0A6000B217E0121D0A6080B217E0A6
:10065000002A0A680A60106803D0121D0A6040B2BE
:100660000AE0121D0A60C0B20AE0002A0A680A60A5
:10067000106803D0121D0A60C1177047121D0A606E
:100680000021704770B51C460D46252CEE681146BA
:1006900000F08480582C37D0632C0ED0642C18BF07
:1006A000692C14D06F2C2FD0702C49D0732C53D0C0
:1006B000752C18BF782C27D076E02869421C2A6157
:1006C0000A680A6052F8043B0A60335476E095F8F1
:1006D0002A000122FFF7ABFF0028286004D5286913
:1006E000411C29612D220DE0288D810704D5286940
:1006F000411C29612B2205E0C0071CD52869411C3B
:1007000029612022325416E095F82A000022FFF7D2
:100710008EFF286095F8280001070CD5286850B195
:1007200044F02001782906D1286930213154401C39
:10073000421C2A613454214628693044A86007E0ED
:100740000868086050F8042B08602A60AE607821C1
:10075000284600F035F831E00868086050F8044B8E
:100760000860AC603CB900BF56A000F0E1F84FF063
:10077000FF34201A70BD2E6A002E04D5204600F0EA
:10078000F7F8044608E032460021204600F00CF954
:10079000002814BF041B34466C610FE02869411C1B
:1007A00029612522325409E02969481C2861252243
:1007B0007254210002D0431C2B613454002070BDC0
:1007C000F0B402466F29D46808BF082605D041F06E
:1007D0002000782814BF0A261026182513686429DB
:1007E00018BF6929184602D1002B48BF4042F0B912
:1007F000136AE3B9082E39D192F82800010735D5DC
:1008000030201725E07531E000280ED592F8280039
:1008100000F01400102808D1546A11699069641A14
:10082000241AE31A012BA8BF9361F0BC7047B0FBF8
:10083000F6F706FB170030306D1EC3B23A2BA4BF8B
:10084000A1F1510318186055380003D09368671957
:10085000BB42ECD3082E09D192F82800010705D538
:10086000605D302802D06D1E30206055C5F1180340
:10087000106A5361611983429160C5DA118DC31A00
:100880004FF6EF70014093611185F0BC7047F8B5E9
:1008900005460E4617461C46002074B117F8011B8A
:1008A0007068A847706030B1F069401CF0610020AA
:1008B000641EF3D1F2BD4FF0FF30F2BD686C747A64
:1008C0004C0000007072696E74665F733A2062615A
:1008D0006420257320617267756D656E7400000079
:1008E000C9B202788A421AB11CBF10F8012FF9E789
:1008F00018BF0020704730B4002513E050F8042BD7
:10090000D30744BFA9F101039A18091F042942F82B
:10091000045BFAD213468C0744BF15809B1CC907A1
:1009200048BF1D7050F8041B0029E7D130BC704748
:1009300080B500B906A005490B681BB12222002131
:10094000984701E000F05CF8222002BD7CA701205E
:10095000636F6E73747261696E742068616E646C2B
:1009600065723A20626164206D657373616765002A
:1009700000F10103810704D010F8011B820781B147
:10098000FAD10268A2F10131914311F0803104BF24
:1009900050F8042FF6E709BAB1FA81F100EBD10063
:1009A000401CC01A7047FEE7C9B2830706D0521E2A
:1009B00022D310F8013B9942F7D11FE0083A13D334
:1009C00002F1040241EA012141EA014150F8043BED
:1009D000121F21BF4B40A3F1013C2CEA030C1CF079
:1009E000803FF3D0C9B2001F083210F8013B521EFD
:1009F00028BF91EA030FF8D818BF0120401E7047A6
:100A0000012000F001B8FEE780B5AFF30080024A94
:100A100011001820ABBEFBE72600020038B50446E3
:100A2000002201214C2000F009FA002201214D2072
:100A300000F004FA002201214E2000F0FFF900220C
:100A400001214F2000F0FAF900220121502000F08E
:100A5000F5F9DFF85C53286820F4805028603220D4
:100A600000F026FA286840F480502860322000F018
:100A70001FFA112000F0DEF80A2000F019FA3A20DF
:100A800000F0D8F8552000F0F6F8262000F0D2F853
:100A9000042000F0F0F8F22000F0CCF8012000F083
:100AA000EAF8E02000F0C6F83F2000F0E4F8252046
:100AB00000F0E1F81C2000F0DEF81E2000F0DBF86A
:100AC000202000F0D8F8122000F0D5F82A2000F0FD
:100AD000D2F8902000F0CFF8242000F0CCF81120BC
:100AE00000F0C9F8002000F0C6F8002000F0C3F8BC
:100AF000002000F0C0F8002000F0BDF8002000F059
:100B0000BAF8E12000F096F8202000F0B4F8202098
:100B100000F0B1F8202000F0AEF8202000F0ABF893
:100B2000052000F0A8F8002000F0A5F8152000F03E
:100B3000A2F8A72000F09FF83D2000F09CF81820B4
:100B400000F099F8252000F096F82A2000F093F89C
:100B50002B2000F090F82B2000F08DF83A2000F0C8
:100B60008AF8B12000F066F8002000F084F8002038
:100B700000F081F8B42000F05DF8072000F07BF869
:100B8000C02000F057F80A2000F075F8022000F0AD
:100B900072F8C12000F04EF8022000F06CF8C52079
:100BA00000F048F84F2000F066F85A2000F063F893
:100BB000C72000F03FF8402000F05DF82A2000F048
:100BC00039F8002000F057F8002000F054F8002019
:100BD00000F051F8A82000F04EF82B2000F02AF881
:100BE000002000F048F8002000F045F8002000F058
:100BF00042F8B32000F03FF8362000F01BF8002C3C
:100C000014BFC020A02000F036F8B72000F012F882
:100C1000002000F030F8292000F00CF8BDE8324048
:100C20002C2007E003E0401E00BF00BF00BF0028EB
:100C3000F9D17047DFF87821116821F40051116073
:100C40000821136823F400435FEA006C136004D5A5
:100C5000136843F48043136005E0D2F800C02CF41D
:100C6000804CC2F800C04000136843F40043491EA2
:100C70001360E6D1704770B5DFF834510646286836
:100C800040F4005028600824296821F400412960BC
:100C90000120FFF7C7FF300604D5296841F48041E1
:100CA000296003E0286820F480402860012029683A
:100CB00041F4004129607600FFF7B4FF641EE3D1E0
:100CC00070BDDFF8F020116841F40051116010216F
:100CD000136823F400435FEA004C136004D51368E3
:100CE00043F48043136005E0D2F800C02CF4804C3C
:100CF000C2F800C04000136843F40043491E13606B
:100D0000E6D17047F8B504460D4616461F462A2020
:100D1000FFF790FF0020FFF7AEFF2046FFF7ABFF85
:100D20000020FFF7A8FF3046FFF7A5FF2B20FFF7B5
:100D300081FF0020FFF79FFF2846FFF79CFF002060
:100D4000FFF799FF3846FFF796FFBDE8F240FFE74F
:100D50002C206FE7F8B5044681239F220021002054
:100D6000FFF7D0FF9F22DFF8C8308121186840F4D8
:100D700000501860254610201E6826F400462F04F7
:100D80001E6004D51E6846F480461E6003E01F689E
:100D900027F480471F606D001E6846F40046401E21
:100DA0001E60E9D1491EE1D1521EDED1F1BD000025
:100DB00080F00F4080F00F4038B514461D462218D1
:100DC0006B18521EDBB2D2B2FFF79CFF15FB04F486
:100DD00064B1049D15F8010BC1088008400140EA88
:100DE000C1200843FFF76DFF641EF3D131BD1CB570
:100DF0000020FFF713FE4FF6FF70FFF7ABFF0D4C1F
:100E000000947F23A02200210020FFF7D5FF4FF49C
:100E10007A7000F04DF8204600F066F80648009021
:100E200080234E2200210020FFF7C6FF13BD0000E3
:100E300080F00F40000000200C7C01201A4BF0B421
:100E40001D684FF400764409A64035431D6000F04C
:100E50001F00164D05EB84035E6956F8203023F41D
:100E6000E06346F8203056F8203043F4807346F8AB
:100E7000203056F820700F4346F8207055F8243083
:100E800001240029596904FA00F014BF0143814389
:100E90005961002A19BF196808431A6822EA00003C
:100EA0001860F0BC7047000038800440A84F002054
:100EB000FFE7010013D00A490A6842F001020A6004
:100EC000002308490B6088600122052048600A6001
:100ED00008680206FCD508684008400008607047B2
:100EE00038800440000004402DE9F8432DED108BBC
:100EF0009CB004460AA86A496A4E482200F0E0F80D
:100F00000AA8012790ED100B90ED0E1B90ED069BAB
:100F100090ED04AB90ED02BB8DED080B8DED061B43
:100F20009FED61CB90ED0C0B90ED0A1B8DED040B4A
:100F30008DED021B90ED080B8DED000B384600F097
:100F400003F95B4A5B4B00F011F9012541EC1D0BE5
:100F5000284600F0F9F853EC1C2B00F007F941EC9F
:100F60001F0BDDE90A0153EC1F2B00F0BDF9804691
:100F7000894651EC1B0B53EC1D2B00F0B5F9424692
:100F80004B4600F0F3F853EC1A2B00F0EFF841EC6D
:100F90001E0B51EC190B53EC1F2B00F0A5F98046EA
:100FA0008946DDE9000153EC1D2B00F09DF9424616
:100FB0004B4600F0DBF8DDE9022300F0D7F841EC06
:100FC000180BDDE9040153EC1F2B00F08DF980466E
:100FD0008946DDE9060153EC1D2B00F085F94246F8
:100FE0004B4600F0C3F8DDE9082300F0BFF841EC00
:100FF0001F0B51EC1E0B53EC1F2B00F047FA41EC7A
:101000001E0B51EC180B53EC1F2B00F03FFA41EC78
:10101000180B51EC1E0B0022284B00F05BFB2ED866
:10102000254B00F06FFB2AD251EC180B234B00F03C
:1010300051FB24D8194B00F065FB20D2B0EE480AD2
:10104000F0EE680A00F076FBB0EE408AF0EE608ABF
:10105000B0EE4E0AF0EE6E0A00F06CFB51EC100B95
:1010600000F09AFB804651EC180B00F095FB00EB6A
:10107000800104EB4110404410F8A12C32706D1C2B
:10108000761C4F2DFFF664AF7F1C8E2FFFF656AFF8
:101090001CB0BDEC108BBDE8F18300BF00C05F4009
:1010A000081D00000C7C012042597F9B7C5B24C002
:1010B000E924DB612E8F46C0000064400000F03F51
:1010C000103A07D330B4B1E83810103AA0E838101D
:1010D000F9D230BC530724BFB1E80810A0E80810CB
:1010E00044BF51F8043B40F8043BD20724BF31F819
:1010F000022B20F8022B44BF0B7803707047121F9D
:1011000017D35B0009D151F8043B20F8023B1B0CBC
:10111000121F20F8023BF6D20BE051F8043B00F816
:10112000013B1B0A20F8023B1B0C121F00F8013B7D
:10113000F3D238BF121D521E24BF11F8013B00F834
:10114000013BF8D87047FEE7C11768B14840401A24
:10115000B0FA80F29040D21CC907C2F5846241EA1D
:10116000025202EBD02140057047FEE770B44FF009
:10117000004591EA030F40F12D836B40841A71EB17
:10118000030604D26E40001BB141121973414FF4A3
:10119000001C1CEB410F34BF7CEB430683E00C0DBD
:1011A000A4EB1356362E00F37C80012E45EAC323B0
:1011B00041DC43EA525312BFD20292025B0824057B
:1011C00045EAC12141EA5051D2EBC020994125D4D2
:1011D00007D1B0FA80F610FA06F162D0002020366E
:1011E00008E0B1FA81F6B140C6F1200220FA02F21D
:1011F0001143B0404FEAF474B4EB465434F00106A6
:101200004FEA74040AD8D6F50016760D04F00044AF
:10121000F04061FA06F25040F1404840C00A40EA0E
:10122000415021F0004128BF5FEA500550F1000015
:1012300044EBD12135E0DB0A45EAC121C90AB6F108
:1012400020050EDD42EA0242120CC5F1200603FA27
:1012500006F6EB4042EA06056D42984161F1000155
:101260000DE062FA06F5F240554063FA06FC82EAA8
:101270000C02F3405A406D42904161EB030111F4BE
:10128000801F05D1641E620502D06D0040414941B6
:1012900021F48011430875F1004350F1000041EB47
:1012A000045170BC70471CEB410F15D223F0004372
:1012B00052EA43060BD04FEA4C0CBCEB410F04D86A
:1012C0000C0D661E342EB7DDEBE7801A994150EA0B
:1012D000410608BF0021E4E708BF1CEB430F28BF0D
:1012E0006FF00001DDE7FEE7B0B581EA030C0CF01A
:1012F000004C40F2FF7515EA11541DBF15EA135753
:10130000AC42AF4239E0E41923EA455343F4801379
:10131000C90241F0004141EA505EC7021100A7FB3B
:10132000020200284FF00000EEFB01204FF0000108
:10133000E3FB072118BF42F0010240180021494198
:10134000E3FB0E01A4F580640F0302D2520040417A
:10135000494154F101046CDD470872F1004250F13B
:10136000000051EB0451A1F580115CBF41EA0C0172
:10137000B0BD4CEA05510020B0BD05EA1357AC42A0
:1013800014BFAF4241E050EA410E1CBF52EA430E87
:1013900002E061460020B0BD24423C441BD15FEA1C
:1013A000070EF6D0090302BF01460020AEF1140E6D
:1013B000B1FA81F7AEEB070401FA07FE0C37C7F16B
:1013C000200100FA07F7C8404EEA000E23EA455311
:1013D00043F48013A2E733F00043B3FA83F704BF6A
:1013E000B2FA82FE77440B3FE41BB7F1200E2FBF09
:1013F00002FA0EF3BB40C7F1200E22FA0EFE38BFF0
:1014000043EA0E03BA40641C82E750EA410E14BF5F
:1014100052EA430E6FF000014FF4001717EB430F31
:101420008ABF194617EB410FB5E74CEA055100207A
:10143000B0BDD4F10104B4F120070FDAC4F12007E4
:10144000520828BF42F0010210FA07F501FA07F727
:10145000E1BF2A43E0403843E1400FE0352C98DCFF
:10146000C7F1200452EA400220FA07F218BF42F006
:10147000010231FA07F0A1400A43002172F1004253
:1014800050F1000051EB0C01B0BDFEE7F0B540F2A9
:10149000FF7581EA030C0CF0004C15EA11541DBFD6
:1014A00015EA1357AC42AF42E5E0BC41C1F313016A
:1014B000C3F31303801A994143F4801304D2641ECA
:1014C0004000494180185941C90241EA5051B1FBDD
:1014D000F3F603FB1611A2FB0675D7EBC020A9415A
:1014E00002D2761E80185941C90241EA5051B1FB1F
:1014F000F3FE03FB1E11A2FB0E75D7EBC020A94122
:1015000003D2AEF1010E80185941890241EA90518F
:10151000760546EA8E2EB1FBF3F603FB1611A2FB0D
:101520000675D7EB8020A94102D2761E801859415A
:10153000C90241EA50514EEA060EB1FBF3F603FB35
:101540001611A2FB0675D7EBC020A94102D2761E68
:1015500080185941C90241EA5051B1FBF3F703FB2E
:101560001711A2FB0735D3EBC020A94167F1000793
:101570000CBF004247F0010766F3D5274FEA1E3142
:10158000B80814F5806412DDBD0775F1004250EB18
:101590000E5051EB045111F5801F5CBF41EA0C0164
:1015A000F0BD4CF07F6141F0E0410020F0BDBD078F
:1015B0006D0840EA0E5041F48011D4F10104B4F1F9
:1015C00020060ADAC4F120060200E04001FA06F320
:1015D000E1401843B24015430EE0342C13DCC6F151
:1015E000200445EA40056D0820FA06F2154321FA69
:1015F00006F0A1400D43002175F1004250F10000BA
:1016000051EB0C01F0BD00205FEA0C01F0BDCFB939
:1016100092185B41B3FA83F704BFB2FA82F6BF199E
:101620000B3FB7F120062FBF02FA06F3BB40C7F10C
:10163000200622FA06F638BF3343BA401CB1E4193B
:10164000641E33E77F4231F00041B1FA81F404BFF8
:10165000B0FA80F6A4190B3CB4F120062FBF00FAB3
:1016600006F1A140C4F1200620FA06F638BF314346
:10167000A0403C1B1AE7AC421ABF05EA1357AF4221
:1016800012E050EA41061CBF52EA4306BFE750EAA7
:101690004107304661461CBF41EA0551F0BD52EAA0
:1016A000430C08BFC143F0BD00204FF4001616EBF9
:1016B000410F98BF16EB430F08BF16EB410F24BF35
:1016C000C14305E016EB430F0CBF61464CEA0551E0
:1016D000F0BDFEE74FF4001C1CEB410F94BF1CEB68
:1016E000430F09E041EA030C50EA4C0C52EA0C0C9F
:1016F00003D28B4208BF8242704714BF9942904286
:10170000704700004FF4001C1CEB410F94BF1CEB12
:10171000430F09E041EA030C50EA4C0C52EA0C0C6E
:1017200003D2994208BF9042704714BF8B42824255
:101730007047000051EC100B00B500F003F841ECCD
:10174000100B00BD40F2FF7C0CEA115240F2FE3358
:10175000D21A17DD352A1DDAB2F1150308DA6FEA5D
:101760004C53D34031EA5301C918994300207047C4
:101770006FF00002DA4030EA5200801841F10001B7
:101780009043704701F0004104BF41F07C5141F4A7
:101790007001002070470000C1F30A5340F2FE328E
:1017A0009B1A14DDD3F120034FEAE17208DDC90270
:1017B00041EA505141F00040D840801850407047F5
:1017C00003F2E13010B1D24382F0004070470020B4
:1017D00070470000841A71EB030603D2001BB1416D
:1017E000121973414FF4001C1CEB410F34BF7CEB0A
:1017F000430442E00C0DA4EB1356352E4FDC45EAB2
:10180000C323DB0A45EAC121C912B6F120050DDD6B
:1018100063FA05F6EB4086EA0305124218BF45F06D
:101820000105C01851F100010CD213E062FA06F56F
:10183000F2405540F3415A40B340F3405A408018BB
:10184000594107D349085FEA30005FEA350528BFF0
:1018500045F0010501F58011420875F1004250F193
:10186000000041EB04514E0016F5001F70BC38BF5C
:1018700070470020090D090570471CEB410F10D27D
:1018800052EA43060BD0BCEB410F05D80C0DAB431D
:10189000661E342EB6DD02E0AB438018594170BCA1
:1018A000704770BC704701680A680A4482604B68E0
:1018B0001344C3600831016070478168C268914277
:1018C00009D101680B68CA188260D1F804C062446B
:1018D000C260083101608268521C826012F8010DFA
:1018E000704738B504460D46A068E168884213D1B8
:1018F00020686168884208BFFFF782F82168207C71
:101900000A6800B14A44A26010464A680244E26094
:10191000083190422160EBD0A068401CA06000F824
:10192000015D31BD2DE9F84189B000F10801009158
:101930000A460168490802EBC103002202920392A1
:10194000019300F108010268520801EBC2030493FD
:101950000022017901F001018DF8201040680499FE
:101960000692400801EBC001059107920098019989
:10197000884203D06846FFF796FF76E005980AB0E4
:10198000BDE8F0810298039988420BD10098016864
:101990000844009902904A6810440390009800F1AE
:1019A000080100910298401C029010F8011D04A843
:1019B000FFF797FF6D1EE5D1002C56D06846BF0893
:1019C000FFF77BFF07F00307032F804603D168462C
:1019D000FFF773FF0746049D0698079E08EB07284C
:1019E00008E0083DA5F10800A8EB0108016840687F
:1019F0000E18304655F8081C411A4145F1D3C8F17C
:101A00000008A41C00EB08072FD0B74206D155F8F8
:101A1000047B55F8040B3E18B742F8D00698079996
:101A200017F8018B884219D104980599884208BF9C
:101A3000FEF7E6FF049801689DF82000069110B1BA
:101A400001EB09000690049906984A688118049AE7
:101A500002F10803884207910493E5D00698401CE0
:101A60000690641E00F8018DCFD102980399884238
:101A70003FF47CAF6846FFF720FF074617F00305E9
:101A800003D16846FFF719FFC51C3C090F2C91D103
:101A90006846FFF712FF00F10F048BE7F0B43B4BF1
:101AA0001C6844F4785405001C603BD0401E0F288D
:101AB00038D8DFE800F0080B0E1114171A1D202388
:101AC000262C292F3235042100222BE0042102226A
:101AD00028E00421042225E00421082222E0042138
:101AE0000A221FE004210C221CE004210E2219E02E
:101AF0000421102216E00421122213E004211422F2
:101B000010E0042118220DE004211C220AE0042127
:101B10001D2207E004211E2204E004211F2201E00F
:101B2000032116221A481B4F8024047001F0070578
:101B30000571194C2568266846F47F062660DF602B
:101B400002F01F03256043F04003437183799C0634
:101B5000FCD583795C06FCD5002303708379C3F33D
:101B60008103032BFAD152B21032322010FB02F261
:101B700002EBD27249B209485210491C92FBF1F1B2
:101B80000170027852084270F0BC704738800440FF
:101B9000004006400000270100F0014082A701201C
:101BA0001C480168CA0202D51B4B0021197002684B
:101BB000910202D5184B01221A7001684A0202D51F
:101BC000154B022119704FF0FF3202607047134825
:101BD000134A01E01348144A016841F00101016011
:101BE0000120107070471148114AF5E71148124A58
:101BF000F2E70000114801798A0600D4704780B5E9
:101C000000F02FF8BDE804404FEA00010CA000F0FE
:101C100031B80000A0A00440085000200C7103401F
:101C200078A701201C71034079A701202C71034083
:101C30007AA701203C7103407BA7012000A00E4041
:101C4000BDD3CAD5B5BDD7D6B7FBA3BA202563206F
:101C50000A000000064909690A791306FCD5C87113
:101C6000704701798A06FCD590F90700704700009B
:101C7000F44F00200EB4C0B5024603A80021019025
:101C8000009101AB0121044878440C30FEF7C0FB01
:101C900006BC5DF810FB00BFFB010000DFF800F0A0
:101CA000D14F002010B5DFF8500001684A040168E8
:101CB00015D541F48041DFF84840DFF8402001604D
:101CC0000420237803EB830102EB8111FFF7E6FF89
:101CD0002078F128ACBF0020401C207010BD0A0401
:101CE00009D5016841F4004101600022DFF81000CD
:101CF00001210270417010BDA0C004400C500020B2
:101D000080A7012000000000055C2031264EF73F2F
:101D1000FA6F3CF3D7BAF7BF96B2922128E552404A
:101D20001F474EE2B2F9FB3FE0D469A430DFDC3F4D
:101D3000FF6311B7EEE0E33F3B0DC7E01C8F2FBF01
:101D4000DD8E75CF127E08BF519AE1DF33FAEF3F87
:101D500080B500F007F808490A884FF6FE70024087
:101D60000A8001BD72B605484CF2205101804DF643
:101D70002812028062B67047002005400E20054000
:101D800080B50B20FFF78AFE054A064813684FF618
:101D9000FF010B4003431360BDE80140FFF727B884
:101DA0000CED00E00005FA0572B605480549016032
:101DB0000A6882F308880448804762B603480047EF
:101DC00008ED00E000000000791E0000C51E0000C4
:101DD00010B5074979441831064C7C44163404E0A8
:101DE0000A68081D114488470146A142F8D110BD78
:101DF0002C000000540000004EF68851CEF2000185
:101E0000086840F470000860BFF34F8FBFF36F8F16
:101E10004FF00070E1EE100A70470000DBEAFFFFB0
:101E2000785701000C50002000000000F9FAFFFF75
:101E3000020000000200000044020000510E0000F9
:101E400000000020095000000120C046002801D0F9
:101E5000FFF7BEFFAFF300800020AFF30080FFF775
:101E60008FFF00F000F800F001B800000746384688
:101E7000FEF7CAFDFBE7000080B5FFF769FF0348E6
:101E8000016841F47001016001BD000088ED00E0CF
:101E9000704738B504460D46284600F005F8A842BC
:101EA00018BF0024204632BD0149FFF7D3BE00BF52
:101EB000604F002002488168027E8A188260704765
:101EC00058A70120AFF30080FFF796FFFFF7BCFF94
:101ED00000480047792000000048004779200000B2
:101EE00000480047792000000048004779200000A2
:101EF0000048004779200000004800477920000092
:101F00000048004779200000004800477920000081
:101F10000048004779200000004800477920000071
:101F20000048004779200000004800477920000061
:101F30000048004779200000004800477920000051
:101F40000048004779200000004800477920000041
:101F50000048004779200000004800477920000031
:101F60000048004779200000004800477920000021
:101F70000048004779200000004800477920000011
:101F80000048004779200000004800477920000001
:101F900000480047792000000048004779200000F1
:101FA00000480047792000000048004779200000E1
:101FB00000480047792000000048004779200000D1
:101FC00000480047792000000048004779200000C1
:101FD00000480047792000000048004779200000B1
:101FE00000480047792000000048004779200000A1
:101FF0000048004779200000004800477920000091
:102000000048004779200000004800477920000080
:102010000048004779200000004800477920000070
:102020000048004779200000004800477920000060
:102030000048004779200000004800477920000050
:102040000048004779200000004800477920000040
:102050000048004779200000004800477920000030
:102060000048004779200000004800477920000020
:102070000048004779200000FFF7FEBFF2DAFF01B9
:10208000F285DBED63DBDB99F182A1819D1101F12A
:102090007EA0D001DBDBB692F17AA1E3DBB69D2115
:1020A00001F176A1B5D6F17F01F10C9DF16EB8F585
:1020B0001239F169A2F10D9DFD6E6604F50DD6F0A1
:1020C0000369B66D494949A0F50C393002B6924909
:1020D0002401524926F15DA1F50B3917DBFF3921A7
:1020E0009DF4055F0000246D49006D42F90E7237C2
:1020F000FF923910030000496DB62AF0015A4924B5
:1021000092A1FB0DDBDB721405926D92DBB64924C4
:10211000394392B6C8F40257DB2400B6E2F50D3914
:1021200022B6931404926D6DDBB6243421CA15E8EF
:10213000136DFF0EF96483B10126DB2E119122B6D7
:10214000932002DB9200249D35E82692F0F95F830C
:10215000B10147DBB6CB219E11041C036D4992DB14
:102160006DB7031FDB4920031102F0014CB6FF6D70
:10217000A1FD0D1D0635D611A02D190821A11101B3
:1021800021A1174924E7198811012324B60EF1462D
:10219000A1FD0E8105819632DB01310B2E92B90330
:1021A0001224A112929F15E4154B7224A1F239B6A4
:1021B000A1FD01CA09A1014532210135D6110185D0
:1021C0004118066D49B6B6240092DB7A21A331A1ED
:1021D000FD3E6604F30BDBB69D87B69231110961B3
:1021E000A172DBA115DE25D93A6D822F24B6C50375
:1021F0006D6604F133A1F50C392E92570742929681
:102200006192310156DB42197A11A13B6D247A1E8D
:102210004912051101F4013AB62424E2F1099F2282
:10222000DB9D1101776DB6D8810163DBDBB02196B0
:1022300011A1110F319E2D2C037D8A07F133A1F2DC
:10224000039244253A43DBDBA09724493B810A53A0
:10225000FFFF0B21A1134900251FDB9231034D2CF9
:1022600008F63A4942E1442D0C06116233246DA16F
:102270002224A5E53E110176DBF12DC50315354F6E
:102280006D922B08110177499296F93283A2DBA156
:102290002539119C11642DCA0432B69E19599541F5
:1022A000710B7DC50315352DC5033DC808598581C2
:1022B00052FA3ADB8426DB9F35A2197422FFA14231
:1022C00092AC3324928A86924736DB4131A12E921A
:1022D000000A1EB6C50311A25F6D923C0353926DB6
:1022E00055FD33C503614446DBA15E6DC506151778
:1022F0002DBF062114F20049A131012188155D1D71
:10230000F4041224DC2539256023926D01FD3BAED7
:102310000A65E21947119431B125214D3704310185
:10232000F20349A0118926B6672D02055E6D2605C8
:10233000219D3D5803FE3B6DF00B71A131682D5975
:1023400007532424A1353F41A1619F35D715392D6D
:1023500080071DF6093C01249292C5032DCB033161
:102360009C192411BAFE3BB68A076D66043E92B7EB
:1023700003119111931D31041D5C045AB6839649D3
:102380003C2D9C0A211C112A21B611B819BA4F9272
:102390006D57031D2303136D92011115F139A17DB2
:1023A000C5031E6D3F0756B6D43EDB3E096B922433
:1023B0009721012E92970A118E1C01DBFF6DF40408
:1023C0007FB692E90625D21DEA0B43496D9E31A0E6
:1023D000FD3AE9068EB6240392B6A11DBB034EDB7F
:1023E000660C2DC503119C12920E2D790C6649EFD7
:1023F00031A1211B25D711BE429204F24BB6A15147
:10240000934DDA093DBF063101436D921C15548E80
:102410006D2B0311A0318F119D1292CD119D95420C
:10242000FD43C50345D9172400D735EC5F92DBB1D6
:1024300005298D197115274D240345252D66043175
:102440008C353B11D0326DA43983FE3B926C09610F
:10245000A159FA29E915BE25D01197151E25501D41
:10246000B603217762B603210C798321931DA6055B
:10247000569242FE3EB6240371A1266DD9426D7973
:102480004D24031D3B0E15162DA70536DBD981A360
:10249000354142DB0A31A121C1A983FA3992839DDA
:1024A000C503226D525FDBDB9108266D46436D6DDF
:1024B0008E3534566D3E31123D350665E221C3112D
:1024C00001FD44C50371442D16037EDB59112DA770
:1024D000055170453E551C419D654263B6B6237E4D
:1024E0006D240331C6F240DBA1297F7D2E094D20EA
:1024F0001092B6A1317A71014542311021B7119B7A
:10250000190D566D41211EFA426D832FB6493009CF
:102510004D591135BE826D73597771A4454151A251
:1025200021011DAE0A95E3FE3C9224038DE9063D90
:102530000E0321015FB692F2071101779292D497B0
:10254000B6B64565E255E47EB66304412FF54142D7
:102550005DC7106EDB90082D82075E92980341885C
:102560009AB6846541311535507E92A7053117F131
:1025700039A16DC5033171553A2D9E0565AE110126
:102580006189AFB6B6380D6D070545E35F246DCFA1
:10259000033984F0013892B6FF0171A14D53073D14
:1025A000E00B519CADC50355396196854221242E1F
:1025B000B690047692E3FC013B92B66DE906614C5D
:1025C0003DED0B5D2E09A29206F204B6014572396B
:1025D000702D6404AFB6922303F3396DFF0169CF08
:1025E0002D840A41652DBD035DC00321AFAD1A03E3
:1025F000F60192E2454342DBA16D2D08F144A1555D
:10260000344DF207716A4692422984BDB90F754173
:1026100031A05D31087D9804FA426D8357DBB6A482
:10262000A36D9201F60A6DE265E13E9255083D2BDD
:102630000D65E5F142A146B63E71646DE104F10F0E
:10264000A131277700497D1101F00139B66DDBA179
:1026500093B6DBA1E53F6A9261F102012DE6104DD0
:102660007E041101A7DBB641F147A1F101016D0222
:1026700003F102A2354125433D4703513E7D5C03F2
:10268000FD422403F109A1F205B6015D48064DE3C0
:10269000062D7D0E879249E5FD43C503F103A1BEDA
:1026A000926404510141B38DE80611012D850B9D03
:1026B000C503FE3A6D2403F308FFB6A15111218C26
:1026C000F50246AD06054E92700E31A03102F93A80
:1026D00083FA0BDB83310131A14D10031101710924
:1026E00041A151C67D070545E1FD3BE90671A1F217
:1026F0000792A2218985EB90019292DBA075772D3C
:10270000220735E23D3303F143A1F208B6A0553A62
:102710007979D10121372DA70E7D66041DAD09FD04
:102720003C2B086983F5074211193D510465426548
:10273000DA95431D8B0B46493D3E6D470AFE442406
:10274000F00BF109A04101D108BD0D0A4D83067DB2
:102750006D0DFD3B2119FD1024037D200376923C75
:10276000498471A12D2103B3B62401F25AB6A162A6
:10277000929D9B92928D6DFE063137C3B66D9FFE82
:1027800032495C15713B610971A1DD8C07398335D4
:1027900047AF92B62F03BD0D0A2DE11C9101FD300C
:1027A0004C21FF01DBB6231852B69BB26DA1310D4F
:1027B00072B69C454555E399833DBF1179824DED35
:1027C000218BDBFFE0F11F019EB6AE0961A1F6018E
:1027D000923C11015E6D25034194110141B1B3B6E4
:1027E00092A16E6D47146101F22F92A1F303B6DB43
:1027F000A1F102015A6D79311E6192A6B6E341380A
:1028000099855DC1198105F12E0169CFF109A1D228
:1028100092A097929241411B75DD211936DBA121CF
:1028200058F739DBDB42F604DBDF654255D921017D
:1028300041ACA292A14F6D6D5E1A25584D3623F220
:102840002EDBA19138610BF20EB6A16EB6FF044EDD
:10285000922A0386DBE33E6D7318619C1D6E1A633A
:102860004949A1F539E271A1CD290355E295E33536
:10287000F0A9831D811011AD1DE3062D4B211D6DA7
:10288000041D3508F32F246DA1FE00B6C5036D06A7
:1028900005AD980D11017983619731A16A6D6A25A3
:1028A0004F6F4949691725E721197E49C503F53856
:1028B000421DF81A3DEB07E19F836D49A14101A636
:1028C000924E11012D1D082DF61015D77D3B033DAD
:1028D000E9065158F131016D730E4DAB0BEDA605B4
:1028E0003116319481A25392928B31143D8D103E5A
:1028F000240B1D2EDB2E082D7E24F33949DBA16D20
:102900005C1552B6A1B98A39F5498479805AB696D0
:1029100031016692424DED213D8D1DF331DB92A1D7
:102920008EDBFF037DAE0A9DAF0F219F7D3B097EAD
:102930006D1D033108A292A221B12D9C0A2D4C21BC
:102940004D9D152D591981A1F127A09EB624034153
:102950000A6EDBE90651A6619D25B359765545C23D
:10296000B6A02D2E234E6DAB204D63044F24922A2A
:1029700018F12DA19D140E654281A0210325DA2DA9
:10298000CD057292A161A031094DC80F4D1B053DC7
:102990000A20397A119E1DC8032D011FF63092E2DC
:1029A00081396D2403979292E4226D682184536DDE
:1029B00024A18DC80361A252B6A241A14D70242169
:1029C000A1FE33DBC503E5E342DBA17D250331A195
:1029D0003DB01E4D861D7D150363B6B6AB6D7A13F3
:1029E0009D24033D52261D6719FF2F24242403999B
:1029F000848DFD15610125E24D2D0415E63D031B77
:102A0000D1A1410155E33D66043D70244E6DEC219A
:102A10002EB62A18FD2E240392DBA15D3508AD48A1
:102A20000631A115122D160651A1B3B692A52101AA
:102A30003DD91211362D91243E497024390A1D3298
:102A400007F0022F242449FFA1813B81A14D56119B
:102A50004DC010295431B53249A196923711016306
:102A600092B60A110C29092DAC1D19D8210D3D571C
:102A70000BF131A18D7A1265E25EB6B41061A12D21
:102A800028063D6107E5E3510D6D140F2D0D073D3F
:102A9000C5034DD5052D29033E6D8907F12BA1F204
:102AA00003B6A14D62047D24035D0905A3496DA011
:102AB00055D721045DCC0825E3AD710E6E49712414
:102AC000FD2C240391399D2119419B2106450C5E63
:102AD00049791BF202B6016DD014257311C43DA1D2
:102AE0000531CC893B6546F12401FE006DC5037DAF
:102AF000240341A16DC719296461A18ADB79110101
:102B000011A12DF9033D21075F6D242F28CEDBBED7
:102B100004F92A83713B7D2B085D6604A0026D9247
:102B20006D92018FB69219084EB6DE2853B692AC5C
:102B30003119254111AE318E96B633F12BA1A10189
:102B40006594519BF3016D920131A0E6DBE94D3FA5
:102B5000173D580476DB878541F340FFDBA1F10781
:102B6000014DB0034DDB0696DBEF57926DD26BB68D
:102B7000DB29ADA70BA3DBDBAFF128019D2119F108
:102B800004015DC003310655DF3106253A1101719C
:102B90000541E8619331CCF234FF0141A14D8A0730
:102BA000F104A36BB6926F21A0354C29C13A926E05
:102BB00041903DB3043986310583B6B61BF131012E
:102BC000F50F426692D76DBE0872DB8E71864106A4
:102BD0003D49068539F137A16151F201B6A186B6AA
:102BE000DA210173926D7E55765D04035D9805319F
:102BF000CCF33FDBFF0151FEF100A121955D5809A7
:102C00003DEE04117AB7B6921D86B63B45D6F0016B
:102C100041DBDBB6A07164E292A1397E4D06055519
:102C2000184977653847FFB63B9D0F03F14AA1CDA0
:102C30009711419D1106676D6D6111012D4D049A2B
:102C4000DB5C62B69CF9056EF136ACCDAE0A45D5BB
:102C5000210B210A7EDB4B0735CE212A7D9205AD63
:102C60004904F1038BF5384D7183419A3D6A046341
:102C7000B6B67C8D15035D400A4D7C054DAF088DC1
:102C8000041FF1018B1933F235FF01CDC5035972D1
:102C90007172610947B692C9254A9972E184AD669D
:102CA0000AF5364179406DEB04B6921086DB24516B
:102CB000A09531F101838D8308FE38B62F038D4C2A
:102CC000214153C59A41663EDB2003BEFFF604A1B5
:102CD000018111855EF63F92425101C93B41651168
:102CE0006C2D6904F108728D3803729297FE37DB00
:102CF000B205E148C95825365E92BD03F209B6A077
:102D000075D8726DDFF346DBB6A1BDD009219D51A8
:102D100010F102A07D7204AD7A04F53F41F306FF85
:102D2000B6A1417EFE06DB033331156D60067EDB06
:102D300070199542F13801E51936B608794AF5045B
:102D4000D8DD00058DBB03F0014F9292B6A1A7B666
:102D50006D53F505A765C991C86108F34BDBDBA18D
:102D60003179F50603A17A6DF60E7DE906711DF342
:102D700040B692A1615C7950F10562A6B6BC553AA5
:102D80006D24039D9E07F543E24D63387158D1A031
:102D9000751BA17A6539F001519292FF01F90C354A
:102DA000FE0592D23565E3F0016D92B6FF01918286
:102DB000BD5A076D1108F36FDBDBA185F9AD6F0418
:102DC0006D1D03F363DBB6A1BD8803FD061806FD88
:102DD0000D5003F14D01AEDB10268DDC09CEB6257A
:102DE00003F568DBD7B6B62B610CF374DBDBA02DE3
:102DF0004C0B966DE3869238FD70100321012DD89F
:102E000004AEB65A048D6B31F00173B6B6FF01B350
:102E100092928A9DC503F175A02542AD7D05F00211
:102E20007CB692B6FF012D460CF702B6B6E2F178F9
:102E300001FC0111DBDBFF6C09F16A011983F67FEC
:102E4000DBD6B101FF76DBDB4F04F10A01F001C6EE
:102E5000B692FF0110070204010104A701205404E7
:102E60005204042D991D61081003A44F0020900402
:102E7000F20F00011002F00F40400412800412C053
:102E8000041300F104100390044000A00412B004E5
:102E900012C0041024D00440064A02EB401C012357
:102EA000CCF8101003FA00F003490A6810430860D8
:102EB000704700BF009000400C80003412063411AF
:0D2EC0000412C00412D0040002A00E400352
:0400000500001EC514
:00000001FF
