:10000000787E0120A17500008976000077580000F5
:10001000EF5800001B5D0000C35D00000000000001
:100020000000000000000000000000007B600000F5
:10003000BF60000000000000A36100008D7600009A
:10004000A9760000B1760000B9760000C176000004
:10005000C9760000D1760000D9760000E176000074
:10006000E9760000F1760000F976000001770000E3
:100070000977000011770000197700002177000050
:100080002977000055780000557800005578000069
:10009000557800005578000055780000557800002C
:1000A0003177000039770000417700004977000080
:1000B0005177000059770000557800006177000003
:1000C0006977000071770000797700008177000080
:1000D000897700009177000099770000557800003B
:1000E00055780000557800005578000055780000DC
:1000F00055780000557800005578000055780000CC
:10010000AF730000B5730000C7730000CD7300002B
:1001100055780000557800005578000055780000AB
:10012000557800005578000055780000557800009B
:100130008173000055780000E974000055780000D4
:1001400055780000A1770000D3730000A977000064
:10015000557800005578000055780000557800006B
:100160005578000055780000B1770000B97700009D
:10017000C1770000C9770000D1770000D97700006F
:10018000E1770000E9770000F1770000F9770000DF
:10019000017800000978000011780000557800000F
:1001A0005578000055780000557800001978000057
:1001B000557800005578000021780000297800006B
:1001C000317800003978000041780000497800005B
:1001D00055780000557800005578000055780000EB
:1001E00055780000557800005578000055780000DB
:1001F00055780000557800005578000055780000CB
:1002000055780000557800005578000055780000BA
:1003F000557800005578000055780000FFFFFFFF9A
:10040000FFFFFFFFFFFFFFFFFFFFFFFFFEFFFFFFFD
:1004100000000000000000000000000000000000DC
:1004200000000000000000000000000000000000CC
:1004300000000000000000000000000000000000BC
:1004400000000000000000000000000000000000AC
:1036E00000F5E0700268914203D343681A449142A6
:1036F00002D380680028F5D17047DFF86C1708689E
:1037000090B94FF4805048604FF480324FF0FF3052
:10371000C86008610420DFF854378A604861C3F844
:10372000BC01DFF84C0708600120704701F1080375
:1037300013F0070F0EBF0023C3F1080303F00703C4
:103740001944D21A8161C26042F001034B60091D25
:103750004FF0280C41F802C0DFF80C271369C36151
:1037600070472DE9FC4B074601F1080010F0070FE8
:103770000FBF8946C0F1080000F0070001EB000907
:1037800002F1080111F0070F06D002F10800C0F1A4
:10379000080000F0070002441546A5EB090009EBFC
:1037A0000306A0EB030B43F00303C9F80430AE4259
:1037B00028BF01F005FA2879C10758BF01F000FAC7
:1037C000BBF1100F38BF01F0FBF9B869854208D191
:1037D000F9688B44C7F80CB0BE614BF00100706013
:1037E00051E1786985420AD1B9688B44C7F808B0BD
:1037F0007E614BF00100706046F80BB043E16868F1
:1038000000F00301012940F0AC80C008C000019025
:10381000C0081F2839D8AC68D5F80C800090454501
:1038200008BF01F0CDF9A54208BF01F0C9F96868E9
:103830000099C008C000B0EBC10F18BF01F0C0F97B
:10384000009907F1280000EBC100844206D03969D5
:103850008C42C0F08180E268AA427DD1A04506D1A9
:1038600000983968012383409943396076E08045A8
:1038700006D0396988456FD3D8F80800A8426BD1C3
:10388000C4F80C80C8F8084068E0EC68D5F81880E7
:10389000AC420CD0A8683969884223D3C268AA42D6
:1038A00004BFA168A9421DD1C460A0601CE005F15D
:1038B00014010C6834B905F110010C68A4B101E0E1
:1038C00011460C6804F114021068002802BF04F1CC
:1038D000100210680028F3D13869814202D3002217
:1038E0000A6001E001F06CF9B8F1000F36D0E96927
:1038F00007F5987000EB81000268954208D10460DA
:10390000A4B9E8697968012282409143796025E091
:103910003869804508D3D8F81010A94214BFC8F8F8
:103920001440C8F8104001E001F04AF9B4B1396917
:103930008C4211D3C4F81880286928B1884226BF68
:103940002061846101F03CF9686938B139698842C5
:1039500002D36061846101E001F032F901996D18D0
:103960008B4469684908490069604BF00100706048
:103970004FEADB0446F80BB01F2C23D807F12800D0
:1039800000EBC4084546BBF1100F38BF01F018F931
:10399000386820FA04F1CA0705D4012101FA04F4B9
:1039A00004433C6007E0D8F80800396988422CBF1E
:1039B000054601F005F9C8F80860EE60B560C6F884
:1039C0000C8060E05FEA1B2008BF002123D0B0F527
:1039D000803F28BF1F211ED2A0F58072120C02F07A
:1039E00008029040A0F58051090C01F004018840C4
:1039F000A0F580431B0CC2F10E0203F00203521A21
:103A0000D21A984002EBD032D01D2BFA00F101F00F
:103A1000010101EB4201F161002307F59872736126
:103A200002EB810033617A6822FA01F3DC0707D4E4
:103A3000012303FA01F1114379600660B0611DE0D2
:103A400002681F291DBF4908C1F119010BFA01F1D4
:103A5000594600E002465068C008C000584516D0DC
:103A600002F11003C80F03EB800349001868002817
:103A7000F0D13869834204D31E60B261F660B6604B
:103A800001E001F09DF809F10800BDE8F68B396905
:103A900090688A4228BF8842F3D3C6609660B060BF
:103AA000F2600020B061EEE72DE9FE4F04468B4640
:103AB000A5692E46904699463146FFF711FE0268E9
:103AC000416802EB010AAAF1270111F007000EBFBD
:103AD0000021C1F1080101F007010AEB0100A0F18A
:103AE0002F0706F110018F4238BF374607F1180241
:103AF000002101920091A8F1280259462046FFF7C3
:103B000015FE07F1080010F0070F18BF01F058F874
:103B10001B20786007F1080104F5E07090E80C5074
:103B200081E80C50C0F800B0C0F80480C0F80C90D8
:103B3000816007220198009900E0001D491C00F1F6
:103B4000080353454260F8D30129D8BF01F038F883
:103B5000B74200F09580BF1B301D321DC159490886
:103B60004900D15147F0010070604FEAD70BF7517F
:103B7000BBF11F0F21D804EBCB0000F12805A846AC
:103B8000102F38BF01F01CF8206820FA0BF1CA078B
:103B900005D4012101FA0BF10843206006E0A86872
:103BA000216988422CBF804601F00AF8AE60C8F84F
:103BB0000C60C6F80880F5606FE0380A08BF002185
:103BC00023D0B0F5803F28BF1F211ED2A0F5807200
:103BD000120C02F008029040A0F58051090C01F08F
:103BE00004018840A0F580431B0CC2F10E0203F0D3
:103BF0000203521AD21A984002EBD032D01D27FA93
:103C000000F101F0010101EB420104EB810200230C
:103C100002F59870F16173613361626822FA01F311
:103C2000DB0707D4012303FA01F111436160066049
:103C3000B0611DE002681F291DBF4908C1F11901CB
:103C400007FA01F1394600E002465068C008C0009A
:103C5000B84216D002F11003C80F03EB80034900ED
:103C600018680028F0D12069834204D31E60B26135
:103C7000F660B56011E003B0BDE8F04F00F0A0BF02
:103C80000BE0216990688A4228BF8842F3D3C6605E
:103C90009560B060F2600020B06103B0BDE8F08FC5
:103CA0002DE9F041704F05463868884608B9FFF79E
:103CB00024FDB96801EB08002F30491E20EA0101FC
:103CC00088457DD205F5D876B06828B13268891864
:103CD0008A4275D2884273D300F092FF01001CBF64
:103CE0000C6811F1010F6BD03068201805F5D872FF
:103CF00030605368984238BF18467060A86960BB4E
:103D0000286908B1814200D22961316174610020C3
:103D1000F0614FF0FF303A686A62286205F12802CC
:103D20000020D260926002F1080757611761801C81
:103D300010322028F5D34D48854208BFA4F128024F
:103D400028D055F8040CC00805EBC002A2F1080009
:103D50000A19121A283A01461CE005F5E0700246DD
:103D600000E092687AB3136857681F44B942F8D1EB
:103D7000137B1F0727D4AB691768BB4223D3D2F844
:103D800004C06744BB421ED2A444C2F804C0E86821
:103D9000A96922182846FFF7C9FC1FE08068C0B156
:103DA00003689342FAD1027B130712D402680160C0
:103DB0004368E418446043462846BDE8F041D0E437
:103DC0000020BDE8F0812A69914238BF29610A19B3
:103DD000E5E7002322462846FFF766FEE8688045AF
:103DE000EED2A0EB0800A969E86001EB0802AA6125
:103DF00040F00100506048F00300486001F1080005
:103E0000BDE8F08130B4184B1A6882B94FF4805283
:103E10005A604FF480344FF0FF32DA601A610422A6
:103E2000124D9C605A61C5F8BC21114A1A6011F10B
:103E3000400F17D28269AAB1C368283199420BD2C8
:103E400000F5E0710C68A24203D34D682C44A242F5
:103E500002D389680029F5D1C16999423CBF4FF06E
:103E6000FF32C26100F0A8BE503E0120283C012074
:103E70006859883C2DE9F84F00258946090AC9F19F
:103E8000000B08BF002323D0B1F5803F28BF1F23BC
:103E90001ED2A1F58072120C02F008029140A1F529
:103EA00080531B0C03F004039940A1F58044240CBB
:103EB000C2F10E0204F00204D21A121BA14002EB5E
:103EC000D132D11D29FA01F303F0010303EB4203C0
:103ED000074607F5987858F8230030B31F2B0FBF1B
:103EE0004C465C08C4F1190409FA04F4AC4659467E
:103EF00000E064004268D208D200A2EB09028A42C4
:103F000003D21100054600F06981426910304FEA82
:103F1000D47B50F82B00002A1CBF82429446002814
:103F2000E7D18B466046B0BBBDBB012202FA03F36A
:103F30005B005842796803430B4000F04E815842C1
:103F400003405B1E180B00F01000C340590901F03C
:103F50000801CB409A0802F00402D3405C0804F048
:103F600002040818E3401018C3F340062018304438
:103F7000F3401B1858F823000DE008464168C908B3
:103F8000C900A1EB090159453CBF8B4605460169B3
:103F90000029F2D140690028F0D1002D00F01D81E8
:103FA000B868A0EB0900834580F0178139698D421C
:103FB000C0F011816868C008C00009EB0B0188429D
:103FC00018BF00F0FDFD05EB0906B54280F0038146
:103FD000EC68D5F818A0AC420CD0A86839698842C2
:103FE00023D3C268AA4204BFA168A9421DD1C460FC
:103FF000A0601CE005F114010C6834B905F1100152
:104000000C68A4B101E011460C6804F114021068B8
:10401000002802BF04F1100210680028F3D13869AB
:10402000814202D300220A6001E000F0C9FDBAF12A
:10403000000F36D0E86908EB800001688D4209D195
:104040000460200014D1E86979680122824091431C
:10405000796026E03869824508D3DAF81010A94261
:1040600014BFCAF81440CAF8104001E000F0A8FDDF
:10407000BCB13869844212D3C4F818A0286930B1A1
:104080003969884226BF2061846100F099FD686922
:1040900038B13969884202D36061846101E000F07F
:1040A0008FFDBBF1100F0CD2D94449F00300291D3C
:1040B0006860281D51F8092042F0010240F80920EB
:1040C00088E049F0030068604BF0010070604FEA3F
:1040D000DB0046F80BB01F281DD807EBC00101F12B
:1040E0002804396821FA00F2D307A34605D4012237
:1040F00002FA00F00843386006E0A0683969884297
:104100002CBF834600F05CFDA660CBF80C60C6F8BF
:1041100008B0F4605EE05FEA1B2008BF002123D0F6
:10412000B0F5803F28BF1F211ED2A0F58072120C6F
:1041300002F008029040A0F58051090C01F0040142
:104140008840A0F580431B0CC2F10E0203F002036D
:10415000521AD21A984002EBD032D01D2BFA00F13D
:1041600001F0010101EB4201F16100227261326153
:1041700008EB81007A6822FA01F4E30707D40124EE
:1041800004FA01F1114379600660B0611DE0026834
:104190001F291DBF4908C1F119010BFA01F1594648
:1041A00000E002465068C008C000584518D002F12F
:1041B0001003C80F03EB8003490018680028F0D1F2
:1041C0003869834204D31E60B261F660B66001E0D4
:1041D00000F0F6FC14E100F0F3FC0EE18B46A2E6E1
:1041E000396990688A4228BF8842F1D3C6609660D8
:1041F000B060F2600020B061ECE72DE9F84F0646B0
:104200008846716848420140491E080B00F01000C2
:10421000C1404A0902F00802D1408B0803F00403B0
:10422000D9404D0805F002051018E9401818C1F3EF
:104230004004281806F5987A2044E14009185AF8F5
:1042400021104868C008C0000D46A0EB080909E02D
:1042500001464868C008C000A0EB080048453CBFC4
:1042600081460D4608690028F2D149690029F0D13C
:1042700030698542C0F0BF806968C90808EB090B46
:10428000C900594518BF00F09BFC05EB08008542AA
:10429000009080F0B080EF68AC69AF420CD0A868A5
:1042A0003169884223D3C268AA4204BFB968A942CF
:1042B0001DD1C760B8601CE005F114010F6837B963
:1042C00005F110010F68A7B101E011460F6807F171
:1042D00014021068002802BF07F1100210680028BD
:1042E000F3D13069814202D300220A6001E000F07C
:1042F00067FC002C31D0E8690AEB800001688D4230
:1043000008D107608FB9E869716801228240914342
:10431000716022E03069844205D32169A94214BF4B
:104320006761276101E000F04BFCB7B1306987425B
:1043300011D3BC61286930B13169884226BF386128
:10434000876100F03DFC686938B13169884202D369
:104350007861876101E000F033FCB9F1100F0BD2F6
:104360004BF00300291D6860281D51F80B2042F016
:10437000010240F80B203DE048F003012A1D69606E
:1043800049F0010042F80800009941F80990D6F878
:1043900008804FEAD80BBBF1200F28BF00F010FCBB
:1043A000B8F1000F22D006EBCB00776900F12804AA
:1043B000A246B8F1100F38BF00F002FC306820FAB6
:1043C0000BF1CA0705D4012101FA0BF10843306053
:1043D00006E0A068316988422CBF824600F0F0FBFD
:1043E000A760CAF80C70C7F808A0FC60C6F808906F
:1043F0000098706104E000F0E3FB0020BDE8F28F5C
:1044000005F10800BDE8F28F2DE9FE4F0546AFF338
:104410000080F52DDFF89C6780F004810B2D31BF03
:1044200010250B35ED08ED003068EC08E04010F089
:10443000030F46D0C04300F00100041906F1280024
:1044400000EBC408E700D8F808506868C008C0004E
:10445000B84218BF00F0B4FBD5F80890454508BF36
:1044600000F0AEFB4D4508BF00F0AAFB6868C0082D
:10447000C000B84218BF00F0A3FBC84507D13068A0
:10448000012101FA04F420EA040434600DE03069EB
:10449000814508D3D9F80C10A94204D1C8F8089076
:1044A000C9F80C8001E000F08BFB47F00300291DE8
:1044B0006860281DCA5942F00102C25105F1080482
:1044C000F8E0B168A94280F0BE80002800F0A18029
:1044D0004FF0010808FA04F1490000FA04F44842D8
:1044E00001430C4060420440641E200B00F01000A9
:1044F000C440610901F00801CC40A20802F00402A6
:10450000D440630803F002030818DC401018C4F319
:10451000400718183818FC40241806F1280000EB52
:10452000C40AE700DAF80890D9F80400C008C0000F
:10453000B84218BF00F044FBD9F808B0D14508BF15
:1045400000F03EFBD94508BF00F03AFBD9F8040063
:10455000C008C000B84218BF00F032FBDA4506D1EF
:10456000306808FA04F420EA040434600DE031698C
:104570008B4508D3DBF80C00484504D1CAF808B0D5
:10458000CBF80CA001E000F01BFB7F1B45F0030003
:1045900009F10402C9F8040047F00101515109EB87
:1045A00005020192D751B4684FEAD40ABAF1200F3C
:1045B00028BF00F005FB34B3CDF800A006F12800B9
:1045C000756900EBCA0AD346102C38BF00F0F8FA20
:1045D0003168009821FA00F2D30704D408FA00F0F9
:1045E0000843306007E0DAF80800316988422CBFE0
:1045F000834600F0E5FACAF80850CBF80C50C5F82D
:1046000008B0C5F80CA0B76009F108040198706102
:1046100050E07068C0B329463046FFF7EEFD040055
:1046200011D047E015F1400F28BF4FF0FF350AD2F7
:104630000B35ED087068ED0028B129463046FFF7CC
:1046400019FC040036D1B068A8421DD3411B726921
:1046500010290AD350197061B16041F00103436021
:10466000415045F0030555600BE00021B1607161D8
:10467000131D40F003015160111D1C5844F001044A
:104680000C5002F1080415E0F06885420DD2401B81
:10469000B169F0604A19B26140F00100506045F024
:1046A00003054D6001F1080404E029463046FFF798
:1046B000F7FA0446AFF300802046FFF7EEBA002871
:1046C00000D170472DE9F047A0F10805AFF3008055
:1046D000DFF8E06431698D42C0F05982686800F00B
:1046E0000302012A00F05382C2084FEAC209C2073E
:1046F00005EB090839D42C6810F0030F00F049824B
:10470000604205448D42A144C0F0418270698542F7
:1047100000F0C680E408202C5ED2D5F80CA0AF686B
:10472000554508BF00F04CFABD4208BF00F048FAFA
:104730006868C008C000B0EBC40F18BF00F040FAB2
:1047400006F1280000EBC400874205D031698F4292
:104750003FD3FA68AA423CD1BA452CD13068012136
:1047600001FA04F420EA04043460454580F00F8225
:10477000D8F80440E00740F10A82A10700F16881FF
:10478000B069804540F09F80F168B5618944C6F802
:104790000C9049F00100686071698D4202D10020DF
:1047A0007061B060F069484580F0F38100213046C7
:1047B000FFF728FBEDE1824506D03069824508D33A
:1047C000DAF80810A94204D1C7F80CA0CAF808709A
:1047D000CBE700F0F5F9C8E7EC68AF69AC420BD065
:1047E000A868884222D3C168A94204BFA268AA422D
:1047F0001CD1C460A0601BE005F11402146834B938
:1048000005F1100214689CB101E01A46146804F125
:1048100014031868002802BF04F110031868002868
:10482000F3D18A4202D30021116001E000F0C8F9FF
:10483000002F9AD0E96906F5987000EB81000268B4
:10484000954209D10460200011D1E8697168012204
:1048500082409143716088E73069874205D33969A6
:10486000A94214BF7C613C6101E000F0A9F9002C71
:104870003FF47BAF31698C42ABD3A761286928B183
:10488000884226BF2061846100F09AF96869002897
:104890003FF46BAF316988429BD36061846164E708
:1048A00098F8040000F0030003287FF45EAFC6F818
:1048B000089049F00101D8F8040040084000C8F809
:1048C000040069600AE0706980450AD1B1687561C9
:1048D0008944C6F8089049F00100686045F80990DD
:1048E00057E1E408E400A144E408202C3AD2D8F8C7
:1048F0000CA0D8F80870D04508BF00F061F9B845A1
:1049000008BF00F05DF9D8F80400C008C000B0EBA3
:10491000C40F18BF00F054F906F1280000EBC400E2
:10492000874207D031698F42C0F08580FA684245DE
:1049300040F08180BA4507D13068012101FA04F4C2
:1049400020EA0404346078E0824506D0306982456C
:1049500071D3DAF8081041456DD1C7F80CA0CAF838
:1049600008706AE0D8F80C40D8F8187044450DD0AB
:10497000D8F808003169884223D3C268424504BF91
:10498000A16841451DD1C460A0601CE008F114017C
:104990000C6834B908F110010C68A4B101E01146AB
:1049A0000C6804F114021068002802BF04F1100220
:1049B00010680028F3D13069814202D300220A60D6
:1049C00001E000F0FDF8002F37D0D8F81C1006F5F4
:1049D000987000EB8100026890450AD104602000C5
:1049E00012D1D8F81C007168012282409143716095
:1049F00023E03069874205D33969414514BF7C61A2
:104A00003C6101E000F0DCF8BCB131698C4212D3AA
:104A1000A761D8F8100028B1884226BF20618461C0
:104A200000F0CEF8D8F8140038B13169884202D3CA
:104A30006061846101E000F0C3F849F00100686042
:104A400045F8099071698D420BD1C6F80890A0E035
:104A500064086400C8F8044049F00100686045F843
:104A600009904FEAD907202F22D206F1280000EB47
:104A7000C704A046B9F1100F38BF00F0A1F83068A4
:104A800020FA07F1CA0705D4012101FA07F7074305
:104A9000376006E0A068316988422CBF804600F08C
:104AA0008FF8A560C8F80C50C5F80880EC6070E07D
:104AB0005FEA192008BF002123D0B0F5803F28BF4E
:104AC0001F211ED2A0F58072120C02F00802904045
:104AD000A0F58051090C01F004018840A0F5804345
:104AE0001B0CC2F10E0203F00203521AD21A9840B4
:104AF00002EBD032D01D29FA00F101F0010101EBE7
:104B0000420106F59872002302EB8100E9616B61B6
:104B10002B61726822FA01F3DC0707D4012303FA40
:104B200001F1114371600560A8611DE002681F2951
:104B30001DBF4908C1F1190109FA01F1494600E018
:104B400002465068C008C000484526D002F1100354
:104B5000C80F03EB8003490018680028F0D13069C2
:104B6000834204D31D60AA61ED60AD6001E000F0F6
:104B700027F8306A401E30620BD1D6F8C80100E039
:104B800080680028FCD14FF0FF30306201E000F077
:104B900017F8AFF30080BDE8F087316990688A426A
:104BA00028BF8842E3D3C5609560A860EA60002012
:104BB000A861DEE7283C012030BC002070470000DF
:104BC000012000F033B830B4002513E050F8042B76
:104BD000D30744BFA9F101039A18091F042942F819
:104BE000045BFAD213468C0744BF15809B1CC9078F
:104BF00048BF1D7050F8041B0029E7D130BC704736
:104C00000749086808B1002070470648C008C0007E
:104C100008600549C908C900091A0160704700BF4A
:104C2000683E01207F7E012078DE012080B5AFF351
:104C30000080024A11001820ABBEFBE726000200EC
:104C40002DE9F0439FB00FF6A836269CDFF80489C3
:104C50008DF83B40029100240B944FF0FF3704463F
:104C600091461D460AE019F8011B0298A04700284A
:104C7000029000F0A1800B98401C0B9099F8000066
:104C800050B12528EFD1002100220591069207910D
:104C9000089209910A9203E00B98A0E041F001010B
:104CA00019F8010F2028F9D023280CD02B2804D084
:104CB0002D2805D0302809D080E041F00201EFE72F
:104CC00041F00401ECE741F00801E9E741F010018F
:104CD000E6E70D920AE00D98404505DA00EB80000A
:104CE00002EB4002303A0D9209F1010999F80020D7
:104CF000A2F130000A28EED399F800002E2818BF40
:104D00000C9726D119F8010F2A2808D128682860A5
:104D100009F1010950F8042B28600C9219E02D28A4
:104D20000CBF09F10109002000220C920BE040B9F0
:104D30000C9A424505DA02EB820203EB4203303B58
:104D40000C9309F1010999F80030A3F130020A2A05
:104D5000EDD3ADF83810304699F8001000F080FD22
:104D600008B119F8010B8DF83A009DF83A0068284F
:104D700005D199F8000068280CD1622106E06C2862
:104D800004BF99F800006C2804D171218DF83A1005
:104D900009F1010910A804902A4619F8013B694657
:104DA000204600F05CF838B910AA6946204600F0A9
:104DB00086F900287FF562AF384610E02A2888D1AE
:104DC0002A682A6052F8040B2A6000280D9003D547
:104DD00040420D9041F0040109F101098CE71FB038
:104DE000BDE8F083622820D0682811D06A2803D05B
:104DF0006C2827D0712825D10868C01D20F0070035
:104E00000860D0E900230830086019461046704752
:104E1000002A0A680A60106803D0121D0A6000B2F6
:104E200017E0121D0A6080B217E0002A0A680A60C3
:104E3000106803D0121D0A6040B20AE0121D0A6019
:104E4000C0B20AE0002A0A680A60106803D0121D86
:104E50000A60C1177047121D0A600021704770B5C3
:104E60001C460D46B4F125002E69114600F015814F
:104E70002038022863D9133840D00B3816D0401E92
:104E80001ED0401E02285AD9001F19D0401F00F022
:104E90008180401E32D0401E00F0CB80C01E00F04A
:104EA000DA80801E2AD0C01E28D0FCE06869421C2F
:104EB0006A610A680A6052F8043B0A603354FCE0F5
:104EC00095F83A000122FFF78DFFC5E9000100299E
:104ED00004D56869411C69612D220DE0288F810786
:104EE00004D56869411C69612B2205E0C00721D502
:104EF0006869411C6961202232541BE095F83A0030
:104F00000022FFF76FFFC5E9000195F8380001079F
:104F100010D5D5E90023002B08BF002A0AD044F0A1
:104F20002000782806D1686930213154401C421C89
:104F30006A613454214668693044E86087E0086853
:104F4000C01D20F007000860D0E900230830086089
:104F5000C5E90023D5E90001C80F04D06869411CE8
:104F600069612D220DE0288F810704D56869411CF5
:104F700069612B2205E0C00704D56869411C69619D
:104F80002022325468693044E8602146284600F007
:104F9000C4F992E005F13A02507820B14FF0FF34A5
:104FA0000FF6540062E01078622808D0682824D0F8
:104FB0006A2812D06C282ED071280ED02BE00A68F7
:104FC0000A6052F8040B0A6020B94FF0FF340FF664
:104FD00040004BE0E96A01706FE00A680A6052F82D
:104FE000040B0A6020B94FF0FF340FF624003DE0B7
:104FF000EA6AD317C0E900235FE00A680A6052F842
:10500000040B0A6020B94FF0FF340FF604002DE0C6
:10501000E96A018051E00A680A6052F8040B0A60EC
:1050200020B94FF0FF340FF2E8701FE0E96A016029
:1050300043E00A680A6052F8040B0A60002120F07D
:10504000000221F0FF33C5E90023EE6078212846F5
:1050500000F0BBF831E00868086050F8044B0860C5
:10506000EC603CB94FF0FF340FF2BC7000F004FC70
:10507000201A70BD2E6B002E04D5204600F01CFCBB
:10508000044608E032460021204600F031FC0028AA
:1050900014BF041B3446AC610FE06869411C6961B0
:1050A0002522325409E06969481C6861252272543E
:1050B000210002D0431C6B613454002070BD2DE9E7
:1050C000FC410F46064690467A6B7869396ABC6A9D
:1050D000121AB869521A796A121AF869521A121A0F
:1050E00097F83800141B41070FD42020002C8DF8AE
:1050F00000000ADD254601236A463946304600F0A5
:105100005FFB00285DD16D1EF5D17B6942463946B3
:10511000304600F055FB002853D130208DF80000B8
:105120003D6A002D09DD01236A463946304600F00C
:1051300047FB002845D16D1EF5D1BB69FA68394699
:10514000304600F03DFB00283BD130208DF80000B8
:105150007D6A002D08DD01236A463946304600F09D
:105160002FFB70BB6D1EF6D1F868B969FB69421858
:105170003946304600F024FB18BB30208DF8000083
:10518000BD6A002D08DD01236A463946304600F02D
:1051900017FBB0B96D1EF6D197F8380041070DD551
:1051A0002020002C8DF8000008DD01236A463946D6
:1051B000304600F005FB20B9641EF6D10020BDE8A2
:1051C000F6814FF0FF30BDE8F6812DE9FC4307463C
:1051D0006F293E6908BF082405D041F020007828D7
:1051E00014BF0A2410243C25D7E90023642918BFE2
:1051F00069299046994605D1002B03D5D8F10008BE
:1052000069EB4909B9F1000F08BFB8F1000F1FD1D0
:10521000386BE8B9082C4CD197F83800010748D50D
:1052200030203B2586F83B0043E000280ED597F858
:10523000380000F01400102808D17B6B7969386AB7
:105240005B1A1B1A9A1A002AC8BF3A62BDE8F38398
:105250008DF80010404649462246E31700F074FBE3
:105260003032D0B26D1E3A28019504DB9DF8000063
:10527000A0F151018A187255404649462246E3176B
:1052800000F062FB80465FEA010908BFB8F1000F39
:1052900003D0F86871198842DCD3082C09D197F83B
:1052A0003800010705D5705D302802D06D1E302012
:1052B0007055C5F13C02BA617119F960386B8242D0
:1052C000B3DA821A3A624FF6EF70398F01403987AC
:1052D000BDE8F3832DE9D04306460F4614464FF050
:1052E0000008DFF8749212E0E00707D542464B460B
:1052F0003046394600F040FC06460F4640464946D7
:1053000042464B4600F038FC641080468946002C2B
:10531000EAD130463946BDE8D0832DE9F04706464C
:1053200089468EB0D6E90001CDE9020104AC306BAC
:10533000002802D50620306305E001BF49F02000B7
:10534000672801213163D6E9002358004015401C2D
:105350000DD119030BD0A9F1610103201A29B06105
:1053600002D20FF2E04110E00FF2DC410DE05900F3
:105370004915491C0ED118030CD1A9F16101032074
:105380001A29B06116D30FF2C841F068032200F069
:10539000C5FCDBE023F00047B7F5801F1046194637
:1053A00022F000050DD20022002F08BF002D01922F
:1053B00003D116E00FF29441E7E701AA00F002FDE5
:1053C00008E06648664900EB1750019065480340C5
:1053D00010461943019B644D47F29752534393FB88
:1053E000F5F2C6E9000120F0000331F0004104BFEE
:1053F000002B002300F0A280DDE90240019220F0A2
:105400000045D2F1070204DD20462946FFF762FF7E
:105410000AE0524200205549FFF75CFF02460B4666
:105420002046294600F006FD044649F0200ABAF15C
:10543000660F306B06BF019D0A3506252D18142D09
:10544000C8BF1425302088468DF810000DF11107D3
:10545000002D33DD2046414600F010FE01460A468D
:1054600007F1080304200A27B2FBF7F707EB870EC2
:10547000A2EB4E02303203F8012C0A22B7FBF2F203
:1054800002EB820EA7EB4E073037401E03F8027D79
:10549000E9D1083D002D03F10807D9DD084600F0E9
:1054A00001FE02460B462046414600F009FE00225E
:1054B0002F4B00F061FB04468846CBE70DF111004D
:1054C0003F1A0DF1110404E00198401E7F1E019067
:1054D000641C20783028F7D0BAF1660F02D1019809
:1054E000401C04E0BAF1650F0CBF01200020336BB3
:1054F000C3189F42B8BF7B1E002B1ED4BB4204DAE8
:10550000E05C3528A8BF392000DA30201946621E39
:1055100002EB010800E05B1E18F80179491E874282
:10552000F9D0392802D1605C401C6054002904D5B0
:105530000198401C14465B1C0190019800B2009039
:105540001BB222464946304600F014F80EB0BDE8C2
:10555000F0870000CBCCCC0C0000244002FCFFFF05
:105560000000E03FFFFF0F80A08601000000F03F39
:1055700084D797412DE9F84783B005468A4691467E
:10558000984600F00FFEB8F1000F406A2F6B0678C6
:1055900003DC4FF001080FF2BC294AF02000BDF9EE
:1055A0003040662808BF641C13D0672840F08F8005
:1055B00014F1040F7ADBBC4278DA95F83800641CE9
:1055C000010702D4B845B8BF474620B23F1A48BFCA
:1055D00000270FFA84FAE868A969BAF1000F23DC02
:1055E0004A1C30234354002F03DC95F83800010790
:1055F00002D5E8688654521C17EB0A0FB8BF7C42EC
:1056000024B2E71960424745B8BFB846AA6168624C
:105610000FFA88F4EC61E868AB6922464946184401
:1056200000F07CFB3F1B18E022B29045084416DADC
:105630004246494600F072FBA8694044A861AAEBC3
:105640000801002F696203DC95F838100A0704D5B9
:10565000E9680E54E869401CE861AF6299E0494688
:1056600000F05CFBA869002F5044A8EB040803DCA1
:1056700095F838100A0702D5E9680E54401CA86155
:105680000FFA88F08742EB68A869B8BFB8460FFAEE
:1056900088F209EB0A01184400F040FBA9690FFAEF
:1056A00088F00144A961381A686272E0B84504DAEA
:1056B00095F838100A0758BF47467F1E48BF002795
:1056C000BAF1670F0CBF4FF0650A4FF0450AA969A0
:1056D000EB68481CA861002F19F8012B5A5403DC11
:1056E00095F838100A0719D5E968431CAB610E54C8
:1056F000002F13DDA8F1010630B28742D5F80CC0A7
:10570000B8BF3E4632B249460CEB030000F006FB40
:10571000A86936B23018BF1BA8616F62E868A96932
:105720000844002C80F800A003D42B224270811C76
:1057300003E02D2141706442811C00206A460AE08A
:1057400023460A2493FBF4F404EB8406A3EB4603FC
:1057500002F8013B401C24B2002CF1DC012806DCDD
:105760004AF02002652A04BF302201F8012B48B913
:10577000302001F8010B07E0401E1DF800303033E7
:1057800001F8013B0028F7DCEA68A8691044091A0F
:10579000E96195F8380000F0140010280DD16A690D
:1057A000A969686A8A18E9698218A86A8A18821839
:1057B000686B8242BCBF821A2A6204B0BDE8F087DF
:1057C000F8B505460E4617461C46002074B117F87A
:1057D000011BB068A847B06030B1F06A401CF062AD
:1057E0000020641EF3D1F2BD4FF0FF30F2BD000087
:1057F000686A6C747A4C00007072696E74665F73CC
:105800003A20256E20646973616C6C6F7765640063
:105810007072696E74663A2062616420256E206140
:105820007267756D656E74007072696E74665F7311
:105830003A2062616420257320617267756D656E20
:10584000740000006E616E004E414E00696E66008D
:10585000494E460030000268531C036011707047C7
:10586000C9B202788A421AB11CBF10F8012FF9E7B9
:1058700018BF00207047FEE780B500B906A00549B3
:105880000B681BB122220021984701E0FFF798F92D
:10589000222002BD6C3E0120636F6E7374726169D9
:1058A0006E742068616E646C65723A206261642077
:1058B0006D6573736167650000F10103810704D0B2
:1058C00010F8011B820781B1FAD10268A2F10131FF
:1058D000914311F0803104BF50F8042FF6E709BA64
:1058E000B1FA81F100EBD100401CC01A7047FEE70D
:1058F000C9B2830706D0521E22D310F8013B994249
:10590000F7D11FE0083A13D302F1040241EA012162
:1059100041EA014150F8043B121F21BF4B40A3F163
:10592000013C2CEA030C1CF0803FF3D0C9B2001FED
:10593000083210F8013B521E28BF91EA030FF8D835
:1059400018BF0120401E7047BBBBE1B1B2F5803FDC
:1059500080F07E80022A1ED98C46B1FBF2F102FB58
:1059600011C31B0443EA1043B3FBF2FC02FB1C33DC
:1059700080B240EA0343B3FBF2F002FB103240EA8C
:105980000C4000237047022A05D98446B0FBF2F090
:1059900002FB10C270474AB105D100F0010249086C
:1059A0005FEA3000704700220023704700F0FEBB22
:1059B0000B000200002100207047904271EB030CA5
:1059C000F6D3B3F5803F2FD2F0B5B3FA83F7B1FA2F
:1059D00081F4A7F10F0E3D1B5340CEF1200602FAD1
:1059E0000EF2F3415340B5F10F0746D80F3C2C445B
:1059F0004140C4F12006A040F1414140B1FBF3F623
:105A000003FB1611A2FB0645001BA94102D2761E1C
:105A10008018594180EA010221FA0EF362FA0EF26F
:105A200000215A403046F0BD30B4B1FBF3FC03FB1B
:105A30001C11A2FB0C45001BA94103D2ACF1010CC7
:105A40008018594130BC02460B4660460021704721
:105A5000B2F1807F65D3F0B5B2FA82F7B1FA81F482
:105A6000C7F10F063D1B22FA06F307F1110EF241B2
:105A700020355A40B5F10F07B8D94140C4F120068E
:105A8000A040F1414140B1FBF3FC03FB1C11A2FB20
:105A90000C45001BA94103D2BCF1010C80185941EF
:105AA0000F2F12D30F3FC90341EA5041B1FBF3F668
:105AB00003FB1611A2FB0645D4EBC030A94102D26C
:105AC000761E8018594146EACC3C07B34140C7F1E5
:105AD0002006B840F1414140B1FBF3F603FB16113B
:105AE000A2FB0645001BA94102D2761E801859412F
:105AF00080EA010221FA0EF3C7F1200462FA0EF2E5
:105B00000CFA07F05A402CFA04F13043F0BD80EA59
:105B1000010221FA0EF3002162FA0EF260465A40A9
:105B2000F0BD8C46B1FBF2F102FB11C31B0243EA4C
:105B30001063B3FBF2FC02FB1C331B024CEA002097
:105B400043EA1063B3FBF2FC02FB1C331B024CEA7A
:105B5000002043EA1063B3FBF2FC02FB1C331B0280
:105B60004CEA002043EA1063B3FBF2FC02FB1C3258
:105B70004CEA002000237047B0B581EA030C0CF01A
:105B8000004C40F2FF7515EA11541DBF15EA13577A
:105B9000AC42AF4239E0E41923EA455343F48013A1
:105BA000C90241F0004141EA505EC7021100A7FB63
:105BB000020200284FF00000EEFB01204FF0000130
:105BC000E3FB072118BF42F00102401800214941C0
:105BD000E3FB0E01A4F580640F0302D252004041A2
:105BE000494154F101046CDD470872F1004250F163
:105BF000000051EB0451A1F580115CBF41EA0C019A
:105C0000B0BD4CEA05510020B0BD05EA1357AC42C7
:105C100014BFAF4241E050EA410E1CBF52EA430EAE
:105C200002E061460020B0BD24423C441BD15FEA43
:105C3000070EF6D0090302BF01460020AEF1140E94
:105C4000B1FA81F7AEEB070401FA07FE0C37C7F192
:105C5000200100FA07F7C8404EEA000E23EA455338
:105C600043F48013A2E733F00043B3FA83F704BF91
:105C7000B2FA82FE77440B3FE41BB7F1200E2FBF30
:105C800002FA0EF3BB40C7F1200E22FA0EFE38BF17
:105C900043EA0E03BA40641C82E750EA410E14BF87
:105CA00052EA430E6FF000014FF4001717EB430F59
:105CB0008ABF194617EB410FB5E74CEA05510020A2
:105CC000B0BDD4F10104B4F120070FDAC4F120070C
:105CD000520828BF42F0010210FA07F501FA07F74F
:105CE000E1BF2A43E0403843E1400FE0352C98DC27
:105CF000C7F1200452EA400220FA07F218BF42F02E
:105D0000010231FA07F0A1400A43002172F100427A
:105D100050F1000051EB0C01B0BDFEE762B38B0700
:105D200008D0521E11F8013B00F8013B00F024801E
:105D30008B07F6D1830740F0208000BF103A07D3CD
:105D400030B4B1E83810103AA0E83810F9D230BCBD
:105D5000530724BFB1E80810A0E8081044BF51F869
:105D6000043B40F8043BD20724BF31F8022B20F853
:105D7000022B44BF0B7803707047121F17D35B00D0
:105D800009D151F8043B20F8023B1B0C121F20F8EC
:105D9000023BF6D20BE051F8043B00F8013B1B0A32
:105DA00020F8023B1B0C121F00F8013BF3D238BF56
:105DB000121D521E24BF11F8013B00F8013BF8D818
:105DC0007047FEE710B5144600F002F8226010BDDF
:105DD000C1F30A5343B14A0012F5001F28D2A3F2BF
:105DE000FE32A1EB0251704750EA410C20D001F085
:105DF000004C31EA0C01B1FA81F204BFB0FA80F331
:105E0000D2180B3AB2F120032CBF00FA03F19140F3
:105E100041EA0C013EBFC2F1200C20FA0CF31943F9
:105E20009040524240F2FD33D21A01EB03517047C9
:105E300000227047F0B540F2FF7581EA030C0CF0C8
:105E4000004C15EA11541DBF15EA1357AC42AF427E
:105E5000E5E0BC41C1F31301C3F31303801A994178
:105E600043F4801304D2641E400049418018594114
:105E7000C90241EA5051B1FBF3F603FB1611A2FB34
:105E80000675D7EBC020A94102D2761E8018594171
:105E9000C90241EA5051B1FBF3FE03FB1E11A2FB04
:105EA0000E75D7EBC020A94103D2AEF1010E8018C8
:105EB0005941890241EA9051760546EA8E2EB1FB9E
:105EC000F3F603FB1611A2FB0675D7EB8020A94160
:105ED00002D2761E80185941C90241EA50514EEA59
:105EE000060EB1FBF3F603FB1611A2FB0675D7EB0A
:105EF000C020A94102D2761E80185941C90241EA48
:105F00005051B1FBF3F703FB1711A2FB0735D3EB9D
:105F1000C020A94167F100070CBF004247F001070C
:105F200066F3D5274FEA1E31B80814F5806412DDF8
:105F3000BD0775F1004250EB0E5051EB045111F5C5
:105F4000801F5CBF41EA0C01F0BD4CF07F6141F065
:105F5000E0410020F0BDBD076D0840EA0E5041F45D
:105F60008011D4F10104B4F120060ADAC4F120064C
:105F70000200E04001FA06F3E1401843B240154345
:105F80000EE0342C13DCC6F1200445EA40056D0810
:105F900020FA06F2154321FA06F0A1400D43002134
:105FA00075F1004250F1000051EB0C01F0BD0020F2
:105FB0005FEA0C01F0BDCFB992185B41B3FA83F7E9
:105FC00004BFB2FA82F6BF190B3FB7F120062FBF0C
:105FD00002FA06F3BB40C7F1200622FA06F638BFE4
:105FE0003343BA401CB1E419641E33E77F4231F0F9
:105FF0000041B1FA81F404BFB0FA80F6A4190B3C59
:10600000B4F120062FBF00FA06F1A140C4F120062A
:1060100020FA06F638BF3143A0403C1B1AE7AC42D9
:106020001ABF05EA1357AF4212E050EA41061CBFFF
:1060300052EA4306BFE750EA4107304661461CBFBB
:1060400041EA0551F0BD52EA430C08BFC143F0BD1F
:1060500000204FF4001616EB410F98BF16EB430FCC
:1060600008BF16EB410F24BFC14305E016EB430FF9
:106070000CBF61464CEA0551F0BDFEE7400D4918E2
:1060800040EA81200CD2490DA1F58061491C40F005
:10609000004005DBD1F11F0154BFC840C017704755
:1060A00000207047014648B1B0FA80F18840C91C11
:1060B000C1F58461090501EBD02140057047FEE779
:1060C00070B44FF0004591EA030F40F171806B40CE
:1060D000841A71EB030603D2001BB14112197341FC
:1060E0004FF4001C1CEB410F34BF7CEB430442E037
:1060F0000C0DA4EB1356352E4FDC45EAC323DB0A07
:1061000045EAC121C912B6F120050DDD63FA05F695
:10611000EB4086EA0305124218BF45F00105C0189E
:1061200051F100010CD213E062FA06F5F24055403D
:10613000F3415A40B340F3405A408018594107D3C5
:1061400049085FEA30005FEA350528BF45F00105E0
:1061500001F58011420875F1004250F1000041EB59
:1061600004514E0016F5001F70BC38BF7047002068
:10617000090D090570471CEB410F10D252EA430686
:106180000BD0BCEB410F05D80C0DAB43661E342E73
:10619000B6DD02E0AB438018594170BC704770BC5B
:1061A0007047FEE700487047A00F002070470000CE
:1061B000841A71EB030604D26E40001BB141121920
:1061C00073414FF4001C1CEB410F34BF7CEB4306C2
:1061D00083E00C0DA4EB1356362E00F37C80012EC9
:1061E00045EAC32341DC43EA525312BFD202920272
:1061F0005B08240545EAC12141EA5051D2EBC02099
:10620000994125D407D1B0FA80F610FA06F162D090
:106210000020203608E0B1FA81F6B140C6F1200234
:1062200020FA02F21143B0404FEAF474B4EB465442
:1062300034F001064FEA74040AD8D6F50016760D3C
:1062400004F00044F04061FA06F25040F14048404A
:10625000C00A40EA415021F0004128BF5FEA5005E2
:1062600050F1000044EBD12135E0DB0A45EAC121C1
:10627000C90AB6F120050EDD42EA0242120CC5F150
:10628000200603FA06F6EB4042EA06056D42984105
:1062900061F100010DE062FA06F5F240554063FA43
:1062A00006FC82EA0C02F3405A406D42904161EBD9
:1062B000030111F4801F05D1641E620502D06D0038
:1062C0004041494121F48011430875F1004350F1E8
:1062D000000041EB045170BC70471CEB410F15D21C
:1062E00023F0004352EA43060BD04FEA4C0CBCEBC0
:1062F000410F04D80C0D661E342EB7DDEBE7801A73
:10630000994150EA410608BF0021E4E708BF1CEBB1
:10631000430F28BF6FF00001DDE700002DE9F041D9
:10632000ADF5485DB8B006460C46DFF8CC550DF526
:106330000D5029464FF47A62FFF700FD42F27820B3
:10634000684405F57A61C822FFF7F8FC42F2E400E0
:1063500041F26801684429444FF4CA72FFF7EEFC29
:1063600041F2FC1241F65070A91868444FF4CA7209
:10637000FFF7E4FC41F2903104A829444FF4FA52AB
:10638000FFF7DCFC00200DF50D51FF253278542A73
:10639000ACBFFF2200220A70401C7278542AAEBFA4
:1063A0004D7000224A70B278401C542AAEBF8D70E6
:1063B00000228A70F278401C542AAEBFCD700022B1
:1063C000CA70401C091D361DB0F57A6FDED10DF57F
:1063D0000D500090322350220021502000F0AEFCDE
:1063E00042F242336B4432224B2113F8020CFF2855
:1063F0000BD113F8010CFF2801BF9878DE78B0426A
:10640000FF2811D11D705D700EE0002804BF13F845
:10641000010C002808D19878DE78B04208BF002827
:1064200002D1187000265E705B1C491EDDD15B1D19
:10643000521ED9D142F2E0336B4450222D2113F881
:10644000A00CFF280ED113F8500CFF2801BF93F8C1
:10645000A00093F8F060B042FF2815D11D7083F8BA
:10646000505011E0002804BF13F8500C00280BD145
:1064700093F8A00093F8F060B04208BF002803D161
:106480001870002683F850605033491ED7D1521E31
:10649000A3F60F63D2D10DF50D5000903223502298
:1064A0003221002000F04AFC42F2A81343F2902669
:1064B0006B446E443221282006F1280212F8027C37
:1064C00012F801CC92F800E067447744B7F5FF7FFB
:1064D00008DA577892F802C0BC44D7786744FF2F97
:1064E00000F3D381401E521E0128E7DCD3F8C80018
:1064F000A0BB307848B97078B2781218F0781018CC
:10650000FF2810DD01221A600AE0FF280BD1707805
:10651000B2781218FF32FF2A05DD00201860012230
:10652000C3F8C8201AE0292006F1290212F8027CDB
:1065300012F801CC92F800E067447744B7F5FF7F8A
:1065400008DA577892F802C0BC44D7786744FF2F26
:1065500000F39B81401C521C5028E7DB503E1B1F60
:10656000491EA8D142F2140743F2B72C6F44EC4401
:10657000322228200CF1010111F8023C11F8016CC3
:1065800091F800E0F618B644BEF1FF0F08DD4B7835
:106590008E78F618CB78F318B3F5FF7FC0F27A81C6
:1065A000401C491C4D28E7DBD7F8C800A0BB0CF104
:1065B0002501C87840B988784B7809781B18591894
:1065C000FF290FDD4E2008E0FF280BD1887849789D
:1065D0000918FF31FF2905DD4F2038600121C7F878
:1065E000C81019E02720614611F8023C11F8016C2F
:1065F00091F800E0F618B644BEF1FF0F08DD4B78C5
:106600008E78F618CB78F318B3F5FF7FC0F242818D
:10661000401E491E0028E7D53F1F521EACF1500C0A
:10662000A7D142F23C3242F2140342F2A8163121C1
:106630006A446B446E4418683768381800EBD070B1
:10664000401042F80409D6F8C80088B1D3F8C80051
:1066500098B1491E361F1B1F0029ECD50DF50050BF
:106660000DF50051D0F8E000D1F8741251B90CE0EA
:106670000DF50050C0F87412F0E70DF50050C0F8A9
:10668000E010EBE710B1884200DB01460020002259
:10669000C1F132078C46BC459FED950ADFED940AA7
:1066A00018DA42F278236B4403EB8C0E10EE103AAA
:1066B00010EE906A60440CFB0C335EF8048B08FB10
:1066C0000C660CF1010CBC454244F3DB00EE103AC1
:1066D00000EE906A00FB00F301EE107A01EE903AB2
:1066E000B8EEC11AF8EEE11AB8EEC00AC1EE811A8E
:1066F00030EE610AB5EE400AF1EE10FA26461DD0E2
:1067000002FB00F301EE903AF8EEE11AF8EEE00A2F
:10671000C1EE811A70EEE10A01EE900A80EE800A65
:1067200000EE902AF8EEE00AF8EEE11A86ED010A92
:1067300041EEC00A80EE810A86ED000A04A801EB52
:10674000810200EB42121420002717701F2454709E
:106750009770D470177154719771D4710832401EBC
:10676000F3D142F2E40341F6507400226B446C44CE
:1067700002EB82000DF1100E53F8047B0EEB401E6D
:106780004FF0F80C0EF817C00DF1100808EB401888
:1067900008EB47074FF0000C87F801C00DF1100817
:1067A00054F8047B08EB40184FF0040E08F817E08B
:1067B0000DF1100C0CEB401000EB4707521CE020D1
:1067C000322A7870D4DB322916DA42F27820684413
:1067D00000EB810001EB810304AC50F8042B04EBC7
:1067E000431404AF04F8125007EB431707EB4202BF
:1067F000491C32295570EDDB64239F223221502041
:1068000000F0F8F904AF322550243878797801EB9C
:10681000002188B200F0CDF9BF1C641EF5D16D1EB9
:10682000F2D1306837A500F0A5FA02460B4629469A
:1068300001A800F0C3FA4FF6FF740094002301AAE8
:106840000F21002000F05CFA706800F093FA024615
:106850000B46294601A800F0B1FA0094002301AAD2
:106860000F210C2000F04CFA542222A101A800F0C4
:10687000A5FA0094002301AA0E21002000F040FA9E
:106880000DF5485D38B0BDE8F08118600120C3F80F
:10689000C80063E6401C38600120C7F8C800BBE6AA
:1068A00038B5002000F032F84FF6FF7000F0CAF95A
:1068B00000F0A4FA4FF4E1311048114C00F0C0FA96
:1068C0000094322350220021002000F037FA4FF4C8
:1068D0007A7000F04BFB0820FDF796FD054629462F
:1068E0002046FFF71BFD284600F05CFBFEE700009A
:1068F00000000000256400001004000000A00E400D
:106900000000002025352E346600000038B504460E
:10691000002201214C2000F047FB002201214D20E4
:1069200000F042FB002201214E2000F03DFB00223E
:1069300001214F2000F038FB00220121502000F0FF
:1069400033FBDFF8E853286820F4805028603220B9
:1069500000F00CFB286840F480502860322000F0E2
:1069600005FB112000F0DEF80A2000F0FFFA3A20C3
:1069700000F0D8F8552000F0F6F8262000F0D2F804
:10698000042000F0F0F8F22000F0CCF8012000F034
:10699000EAF8E02000F0C6F83F2000F0E4F82520F7
:1069A00000F0E1F81C2000F0DEF81E2000F0DBF81B
:1069B000202000F0D8F8122000F0D5F82A2000F0AE
:1069C000D2F8902000F0CFF8242000F0CCF811206D
:1069D00000F0C9F8002000F0C6F8002000F0C3F86D
:1069E000002000F0C0F8002000F0BDF8002000F00A
:1069F000BAF8E12000F096F8202000F0B4F820204A
:106A000000F0B1F8202000F0AEF8202000F0ABF844
:106A1000052000F0A8F8002000F0A5F8152000F0EF
:106A2000A2F8A72000F09FF83D2000F09CF8182065
:106A300000F099F8252000F096F82A2000F093F84D
:106A40002B2000F090F82B2000F08DF83A2000F079
:106A50008AF8B12000F066F8002000F084F80020E9
:106A600000F081F8B42000F05DF8072000F07BF81A
:106A7000C02000F057F80A2000F075F8022000F05E
:106A800072F8C12000F04EF8022000F06CF8C5202A
:106A900000F048F84F2000F066F85A2000F063F844
:106AA000C72000F03FF8402000F05DF82A2000F0F9
:106AB00039F8002000F057F8002000F054F80020CA
:106AC00000F051F8A82000F04EF82B2000F02AF832
:106AD000002000F048F8002000F045F8002000F009
:106AE00042F8B32000F03FF8362000F01BF8002CED
:106AF00014BFC020A02000F036F8B72000F012F834
:106B0000002000F030F8292000F00CF8BDE83240F9
:106B10002C2007E003E0401E00BF00BF00BF00289C
:106B2000F9D17047DFF80422116821F40051116097
:106B30000821136823F400435FEA006C136004D556
:106B4000136843F48043136005E0D2F800C02CF4CE
:106B5000804CC2F800C04000136843F40043491E53
:106B60001360E6D1704770B5DFF8C051064628685B
:106B700040F4005028600824296821F4004129606D
:106B80000120FFF7C7FF300604D5296841F4804192
:106B9000296003E0286820F48040286001202968EB
:106BA00041F4004129607600FFF7B4FF641EE3D191
:106BB00070BDDFF87C21116841F400511160102193
:106BC000136823F400435FEA004C136004D5136894
:106BD00043F48043136005E0D2F800C02CF4804CED
:106BE000C2F800C04000136843F40043491E13601C
:106BF000E6D17047F8B504460D4616461F462A20D2
:106C0000FFF790FF0020FFF7AEFF2046FFF7ABFF36
:106C10000020FFF7A8FF3046FFF7A5FF2B20FFF766
:106C200081FF0020FFF79FFF2846FFF79CFF002011
:106C3000FFF799FF3846FFF796FFBDE8F240FFE700
:106C40002C206FE7F8B5044681239F220021002005
:106C5000FFF7D0FF9F22DFF8DC308121186840F475
:106C600000501860254610201E6826F400462F04A8
:106C70001E6004D51E6846F480461E6003E01F684F
:106C800027F480471F606D001E6846F40046401ED2
:106C90001E60E9D1491EE1D1521EDED1F1BD2DE9C0
:106CA000F0471446CA0000EB40069846D21D760015
:106CB00000EB4005089FD3B2761DC9066800F2B20A
:106CC000090EC0B2FFF796FFDFF86C0004EB440139
:106CD000002500EB41090126CA460624AE401AF8F9
:106CE000C00C304214BF40463846FFF762FF641EB6
:106CF0000AF1010AF3D16D1C072DECDDBDE8F08728
:106D00002DE9FC41089C05460E461746984608E0CA
:106D10000094434617F8012B3146E8B2FFF7BFFF56
:106D20006D1C38780028F3D1BDE8F38180F00F4066
:106D300080F00F4080F00F401C70000038B5144602
:106D40001D4622186B18521EDBB2D2B2FFF752FF5B
:106D500015FB04F464B1049D15F8010BC10880080B
:106D6000400140EAC1200843FFF723FF641EF3D12E
:106D700031BD0000C0F3C75181B1FF2906D0C11059
:106D8000400721F0E04101F16051704741020CBF22
:106D900040F4E0016FF000410020704700F0004136
:106DA00000020AD0B0FA80FC00FA0CF001F1605148
:106DB000A1EB0C5101EBD021400570470CB430B56C
:106DC00083B00A4606A90291044600250194009565
:106DD00002AB01A9084878441E30FDF731FF019A43
:106DE000157000284EBF04460198041B204603B0CE
:106DF00030BC5DF80CFB00BF5FEAFFFF80B50122ED
:106E00000121112000F0D0F801220121402000F0E2
:106E1000CBF8012201216F2000F0C6F801220121E8
:106E20009A2000F0C1F801220121522000F0BCF8A4
:106E3000BDE8084001220121532000F0B5B8000050
:106E400030B43D4A904206D13C4BDC6844F4806447
:106E5000DC603B4C2EE03B4B98420AD1374BDC6860
:106E600044F40064DC604FF44073374C236063608B
:106E700024E0364B984206D1304BDC6844F4805411
:106E8000DC60334C16E0334B98420AD12B4BDC6864
:106E900044F40054DC604FF440732B4C6363A363F1
:106EA0000CE02D4B984209D1244B1C6844F48064BB
:106EB0001C602A4C4FF44073636023609042C37897
:106EC00003F0F303C370837883701BBF1D4A9042A5
:106ED000234B244B244A1B7853430C01B3FBF4F29D
:106EE00094B2B4F5005FA8BF41F6FF7204781504B0
:106EF0002D0E04F0E00405F01F052C4304704270D1
:106F0000B3FBF1F1847AA1EB021104F0E00401F08B
:106F10001F010C438472017C41F088010174C17827
:106F200041F02C01C17030BC704701798A06FCD554
:106F300090F907007047000000A006402880044038
:106F40003890044000B006400CB0044000C0064039
:106F500008C0044000D0064000A00E4060D00440AD
:106F6000723E0120733E012040420F00FFE7010006
:106F700013D00A490A6842F001020A600023084956
:106F80000B6088600122052048600A6008680206DC
:106F9000FCD508684008400008607047388004400D
:106FA00000000440FDF78BBB1A4BF0B41D684FF492
:106FB00000764409A64035431D6000F01F00164DC1
:106FC00005EB84035E6956F8203023F4E06346F84D
:106FD000203056F8203043F4807346F8203056F8BD
:106FE00020700F4346F8207055F824300124002902
:106FF000596904FA00F014BF014381435961002A22
:1070000019BF196808431A6822EA00001860F0BC2A
:107010007047000038800440D80F002000000000B6
:1070200000000000004F00000000070007000014EF
:107030007F147F1400242A7F2A120023130864621D
:1070400000364955225000000503000000001C22B4
:107050004100000041221C000014083E08140008F2
:10706000083E080800005030000000080808080822
:10707000000060600000002010080402003E51493A
:10708000453E0000427F40000042615149460021D8
:1070900041454B31001814127F10002745454539F2
:1070A000003C4A494930000171090503003649494D
:1070B000493600064949291E000036360000000006
:1070C0005636000000081422410000141414141451
:1070D00000004122140800020151090600324979DA
:1070E000413E007E1111117E007F4949493E003E1C
:1070F00041414122007F4141221C007F49494941D1
:10710000007F09090901003E4149497A007F0808CA
:10711000087F0000417F4100002040413F01007F87
:1071200008142241007F40404040007F0204027F5B
:10713000007F0408107F003E4141413E007F090965
:107140000906003E4151215E007F0919294600468B
:10715000494949310001017F0101003F4040403F62
:10716000001F2040201F003F4038403F00631408AC
:10717000146300030478040300615149454300008F
:107180007F4141000015167C1615000041417F002B
:10719000000402010204004040404040000001029F
:1071A0000400002054545478007F48444438003888
:1071B0004444442000384444487F00385454541810
:1071C00000087E090102000C5252523E007F080462
:1071D00004780000447D4000002040443D00007FD2
:1071E000102844000000417F4000007E020C027C19
:1071F000007E0402027C003844444438007C1414AD
:10720000140800081414187C007C080404080048C2
:107210005454542000043F444020003C4040207C13
:10722000001C2040201C003C4030403C0044281002
:107230002844000C5050503C004464544C4400001E
:10724000083641000000007F0000000041360800C1
:107250000008040810080008082A1C0800081C2A56
:1072600008080004027F02040010207F2010001C88
:107270002A322A1C001C2244221C0000F0B43B4B82
:107280001C6844F4785405001C603BD0401E0F2855
:1072900038D8DFE800F0080B0E1114171A1D202350
:1072A000262C292F3235042100222BE00421022232
:1072B00028E00421042225E00421082222E0042100
:1072C0000A221FE004210C221CE004210E2219E0F6
:1072D0000421102216E00421122213E004211422BA
:1072E00010E0042118220DE004211C220AE00421F0
:1072F0001D2207E004211E2204E004211F2201E0D8
:10730000032116221A481B4F8024047001F0070540
:107310000571194C2568266846F47F062660DF60F3
:1073200002F01F03256043F04003437183799C06FC
:10733000FCD583795C06FCD5002303708379C3F305
:107340008103032BFAD152B21032322010FB02F229
:1073500002EBD27249B209485210491C92FBF1F17A
:107360000170027852084270F0BC704738800440C7
:10737000004006400000270100F00140723E01205D
:1073800024480168CA0202D5234B00211970026803
:10739000910202D5204B01221A7001684A0202D5DF
:1073A0001D4B022119704FF0FF32026070471B48DD
:1073B0001B4A01E01B481C4A016841F001010160C1
:1073C0000120107070471948194AF5E719481A4A00
:1073D000F2E738B519490A79930644BF0846FFF722
:1073E000A4FD174A916A99B913460D215C781C7067
:1073F0009D78DC785D709C70DB1C491EF6D182F8AC
:10740000270041B2452919BF40B26528012090628A
:1074100031BD0000A0A00440241000200C710340E6
:107420002C3E01201C7103402D3E01202C71034095
:107430002E3E01203C7103402F3E012000A00E4053
:10744000003E01202DE9FC4D016800F108054908C6
:1074500005EBC102019200F10803406800F0010A47
:1074600003EBC108400808EBC00B00200021019A83
:1074700095422FD02B686A68EE1832440092083586
:10748000009A9642F3D016F9014B009A964205D124
:107490002B686A68EE1832440092083516F8017BB2
:1074A000884210D1D84508BFFDF78AFBD8F8000004
:1074B000D8F80410BAF1000F18BF484401448842BC
:1074C00008F10808EED0002C00F8017B05D5641CFB
:1074D000E6D1D5E75846BDE8F68D641ED5D5CFE791
:1074E000DFF800F00110002010B5DFF8500001684F
:1074F0004A04016815D541F48041DFF84840DFF8BF
:10750000402001600420237803EB830102EB81110A
:10751000FFF7E6FF2078F128ACBF0020401C207068
:1075200010BD0A0409D5016841F400410160002240
:10753000DFF8100001210270417010BDA0C00440AE
:1075400028100020703E012080B500F007F808499F
:107550000A884FF6FE7002400A8001BD72B60548E7
:107560004CF2205101804DF62812028062B670471D
:10757000002005400E20054080B50B20FFF77EFE61
:10758000054A064813684FF6FF010B40034313609A
:10759000BDE80140FFF784B90CED00E00005FA05F5
:1075A00072B60548054901600A6882F308880448F4
:1075B000804762B60348004708ED00E00000000085
:1075C000717600009D76000010B5074979441831A6
:1075D000064C7C44163404E00A68081D11448847B0
:1075E0000146A142F8D110BD2C000000540000005B
:1075F0004EF68851CEF20001086840F47000086031
:10760000BFF34F8FBFF36F8F4FF00070E1EE100AA2
:1076100070470000B3D5FFFF4C2E0100281000205A
:107620000000000021FEFFFF020000000200000039
:1076300028020000C6020000000000202510000003
:107640000120C046002801D0FFF7BEFFAFF3008045
:107650000020AFF30080FFF78FFF00F000F800F08C
:1076600001B8000007463846FDF7E0FAFBE70000E6
:1076700080B5FFF769FF0348016841F470010160BC
:1076800001BD000088ED00E07047000002488168FD
:10769000027E8A1882607047303E0120AFF300807E
:1076A000FFF7A6FFFFF7CCFF004800475578000022
:1076B0000048004755780000004800475578000012
:1076C0000048004755780000004800475578000002
:1076D00000480047557800000048004755780000F2
:1076E00000480047557800000048004755780000E2
:1076F00000480047557800000048004755780000D2
:1077000000480047557800000048004755780000C1
:1077100000480047557800000048004755780000B1
:1077200000480047557800000048004755780000A1
:107730000048004755780000004800475578000091
:107740000048004755780000004800475578000081
:107750000048004755780000004800475578000071
:107760000048004755780000004800475578000061
:107770000048004755780000004800475578000051
:107780000048004755780000004800475578000041
:107790000048004755780000004800475578000031
:1077A0000048004755780000004800475578000021
:1077B0000048004755780000004800475578000011
:1077C0000048004755780000004800475578000001
:1077D00000480047557800000048004755780000F1
:1077E00000480047557800000048004755780000E1
:1077F00000480047557800000048004755780000D1
:1078000000480047557800000048004755780000C0
:1078100000480047557800000048004755780000B0
:1078200000480047557800000048004755780000A0
:107830000048004755780000004800475578000090
:107840000048004755780000004800475578000080
:1078500000002E00FFF7FEBFFE49F924FD49E96D47
:10786000F349EC6D0049F724FE00FA24FD49F96D57
:107870000049FD24E049F724FE49F76D0049FA2448
:107880000000FD24FD49046D6D492424D3490124E1
:1078900049F724FE49FA6D0049FD240000FC49F82F
:1078A00024FC49E96DF149EE240049FC6D04494985
:1078B000244949FC24FB49E06DF549EC240049FBCF
:1078C0006DFA24D76DFB49012449E924FD6DFD249F
:1078D000D26DFD49E62402496D49CF6DFC49E6248D
:1078E000F76DF624014924FD49E46DE424FA6DF6B0
:1078F000240049FD24FC49FE6DF992006DF892F5D3
:107900006D0049E624FD6D0049F3240049FC240282
:1079100049496DF892EC6DFE49E724006DEF2402B1
:10792000492424FD49E392016D49D224FE49E192A4
:10793000016D49D3240049E092FE6DD524FD49F440
:1079400092006DFA92F16DD42401496DDF92016DC0
:1079500049D724FD49DC920049D72401496DDD92C5
:10796000FE6DE124FC49FD6DFD92006DD392016D29
:1079700092F16DF092FE6DD292F16DBC92F56DF3C5
:1079800092006DC992F56DB692FA6DB892F86DB825
:1079900092F86DF692006DFC92006DC892F86DB889
:1079A00092F86DF792006DFC92006DCB92026D9291
:1079B00092F76DF792006DFC92006DCB92F46DF82A
:1079C00092006DFC92006DCA92F46DF992FE6DFD0D
:1079D00092006DCC92F16DFA92FD6DFD92FE6DCA32
:1079E00092F46DFA92FE6DFD92FE6DCC92016D9255
:1079F000F36DFB92FE6DFC92FE6DCD92026D929244
:107A0000F36DFC92FE6DFC92FE6DC992F36DFD92DA
:107A1000FD6DFD92FD6DCB92016D92F36DFD92FDBA
:107A20006DFD92FD6DCB92EB6DFD92FE6DCD92E3FF
:107A30006DCC92016D92ED6DFE92FC6DCD92016D5B
:107A400092EB6D0092FB6DCC92FC6D0092EE6D009E
:107A500092FD6DCA92026D6D92E96DCC92016D92AC
:107A6000E66DCE92016D92E56DCE92E26DCC92ED17
:107A70006D0049F86DCE92006DFD92F26D0049FAED
:107A8000240049FB6DCC92F66D02926D6DF524F6E3
:107A90006DD792EE6DF6240049ED6DEA92E46DFA31
:107AA000241B507800005078000050780000507877
:107AB0000000507800005078000050780000F8FF77
:107AC0000B527800005078000050780000FAFFFD5B
:107AD000004BF00F4040F00F4080F00F40C0F00F1F
:107AE0004000F10F400090044000A0044000B004AA
:107AF0004000C0044000D00440064A02EB401C0194
:107B000023CCF8101003FA00F003490A6810430868
:0E7B100060704700BF009000400C80004003F2
:040000050000769DE4
:00000001FF
