:10000000F8970120E1200000D92100001F13000013
:100010003B1300001F140000C31500000000000087
:100020000000000000000000000000003F18000079
:1000300079210000000000009F210000DD21000068
:10004000F921000001220000092200001122000015
:100050001922000021220000292200003122000084
:1000600039220000412200004922000051220000F4
:100070005922000061220000692200007122000064
:1000800079220000A1230000A1230000A123000089
:10009000A1230000A1230000A1230000A123000050
:1000A0008122000089220000912200009922000094
:1000B000A1220000A9220000A1230000B12200001B
:1000C000B9220000C1220000C9220000D122000094
:1000D000D9220000E1220000E9220000A123000053
:1000E000A1230000A1230000A1230000A123000000
:1000F000A1230000A1230000A1230000A1230000F0
:10010000BB1F0000C11F0000D31F0000D91F00004B
:10011000A1230000A1230000A1230000A1230000CF
:10012000A1230000A1230000A1230000A1230000BF
:100130008D1F0000A1230000B11A0000A1230000C0
:10014000A1230000F1220000DF1F0000F9220000BF
:10015000A1230000A1230000A1230000A12300008F
:10016000A1230000A12300000123000009230000B7
:10017000112300001923000021230000292300007F
:1001800031230000392300004123000049230000EF
:10019000512300005923000061230000A123000027
:1001A000A1230000A1230000A12300006923000077
:1001B000A1230000A1230000712300007923000087
:1001C000812300008923000091230000992300006F
:1001D000A1230000A1230000A1230000A12300000F
:1001E000A1230000A1230000A1230000A1230000FF
:1001F000A1230000A1230000A1230000A1230000EF
:10020000A1230000A1230000A1230000A1230000DE
:1003F000A1230000A1230000A1230000FFFFFFFFB5
:10040000FFFFFFFFFFFFFFFFFFFFFFFFFEFFFFFFFD
:100410001CB5044600F0CCFA80221221212000F005
:1004200081FB322000F0F2FB01AA0A21212000F01A
:100430008EFB0DF105020B21212000F088FB9DF8B9
:1004400004009DF8051041EA002147F22170814225
:100450000AD01F2200924FF478430FF2A0720021BD
:10046000002000F0EBFDFEE71F2000904FF47843E2
:100470000FF290720021002000F0E0FD00F0C9F8BA
:1004800003220921212000F04DFB432212212120CB
:1004900000F048FB4A226721212000F043FB0022A4
:1004A0000C21212000F03EFBFF221321212000F02F
:1004B00039FB20229C21212000F034FB204600F053
:1004C00038F800222B21212000F02CFB00222D21C6
:1004D000212000F027FB00222E21212000F022FB0A
:1004E0003F221721212000F01DFB5422182121203A
:1004F00000F018FB03221921212000F013FB7822C1
:100500001A21212000F00EFB50222921212000F089
:1005100009FB78222C21212000F004FB002232214B
:10052000212000F0FFFA00222A21212000F0FAFA0F
:1005300013BD70B5044625464B2D08DDC1220D21A3
:10054000212000F0EFFA0126962D16DD50E0412221
:100550000D21212000F0E6FA0126322D1BDDC5F128
:100560004B05284600F08AFD0022DFF8703600F0C7
:10057000B3FD0022DFF8683633E0C5F19605284662
:1005800000F07CFD0022DFF85C3600F0A5FD0022C3
:10059000DFF84C3625E0262D0EDBC5F13205284666
:1005A00000F06CFD0022DFF8403600F095FD0226D9
:1005B0000022DFF8383614E0132D18DB204600F057
:1005C000AFFE02460B460020DFF8241600F0B6FE10
:1005D0000022DFF81C3600F07FFD03260022DFF842
:1005E000143600F01DFF00F0EDFF044601E00E267A
:1005F000002432461121212000F094FAE2B2332186
:10060000212000F08FFA2404220EBDE8704034212E
:10061000CCE12DE9F84F8AB003223D21212000F0E2
:1006200081FA04467F224221212000F07BFA04193E
:100630008DF8254009224D21212000F073FA8DF814
:100640002400FF226421212000F06CFA8DF82300A1
:1006500020226521212000F065FA8DF82200002279
:100660006621212000F05EFA8DF8210048226721E2
:10067000212000F057FA8DF82000C5220F212120FB
:1006800000F050FA8DF81F00FF221321212000F006
:1006900049FA8DF81E00E0226321212000F042FA81
:1006A0008DF81D0011221421212000F03BFA8DF855
:1006B0001C003F222221212000F034FA8DF81B007B
:1006C00007222321212000F02DFA8DF81A00402264
:1006D0002421212000F026FA8DF81900302225214E
:1006E000212000F01FFA8DF81800A12226212120D8
:1006F00000F018FA8DF8170000222B21212000F0BD
:1007000011FA8DF81600AA226B21212000F00AFAB6
:100710008DF8150041220D21212000F003FA8DF8FB
:10072000140005229021212000F0FCF98DF813001F
:1007300001229121212000F0F5F98DF81200032209
:100740009221212000F0EEF98DF811000022932172
:10075000212000F0E7F98DF810009022942121204B
:1007600000F0E0F98DF80F008A229521212000F099
:10077000D9F98DF80E0006229621212000F0D2F939
:100780008DF80D000B229721212000F0CBF98DF878
:100790000C0095229821212000F0C4F98DF80B005F
:1007A000A0229921212000F0BDF98DF80A001E2217
:1007B0009A21212000F0B6F98DF8090008229B212A
:1007C000212000F0AFF98DF8080020229C21212083
:1007D00000F0A8F98DF8070081229E21212000F069
:1007E000A1F98DF806000422A621212000F09AF933
:1007F0008DF805000C227E21212000F093F98DF860
:10080000040016227F21212000F08CF904462A22C0
:100810008021212000F086F98DF803004E228121ED
:10082000212000F07FF98DF8020061228221212031
:1008300000F078F98DF801006F228321212000F06B
:1008400071F98DF800007B228421212000F06AF9E3
:10085000054686228521212000F064F906468E2275
:100860008621212000F05EF907469722872121206A
:1008700000F058F98046A4228821212000F052F986
:100880008146AF228921212000F04CF98246C52201
:100890008A21212000F046F98346D7228B2121208E
:1008A00000F040F99DF825309DF824109DF8232094
:1008B000CB189DF82210D3189DF82120CB189DF855
:1008C0002010D3189DF81F20CB189DF81E10D318A8
:1008D0009DF81D20CB189DF81C10D3189DF81B20E7
:1008E000CB189DF81A10D3189DF81920CB189DF835
:1008F0001810D3189DF81720CB189DF81610D31890
:100900009DF81520CB189DF81410D3189DF81320CE
:10091000CB189DF81210D3189DF81120CB189DF814
:100920001010D3189DF80F20CB189DF80E10D31877
:100930009DF80D20CB189DF80C10D3189DF80B20B6
:10094000CB189DF80A10D3189DF80920CB189DF8F4
:100950000810D3189DF80720CB189DF80610D3185F
:100960009DF80520CB189DF80410D318CB189DF8DE
:1009700003209DF80210E41814199DF801200C19A9
:100980009DF8001014190C192C1934193C19444401
:100990004C4454445C440419E8228C21212000F08A
:1009A000C1F80419E0B20BB0BDE8F08F2120B9E026
:1009B00080B501220321812000F018FEBDE8084027
:1009C00001220321802000F011BE0000642000BF3E
:1009D000401E0028FBD1704710B50121812000F096
:1009E0003AFE0121802000F036FEFFF7EFFF824C37
:1009F000206840F001002060216841F00201216080
:100A0000FFF7E4FF2068400840002060FFF7DEFFAA
:100A1000206820F002001AE010B50121812000F0CA
:100A20001AFE0121802000F016FEFFF7CFFF724C66
:100A30002068400840002060FFF7C8FF206840F0B1
:100A400002002060FFF7C2FF206840F00100206034
:100A5000BDE81040BAE770B506460121802000F0DD
:100A6000FAFD0824644D300604D5296841F00101DF
:100A7000296003E02868400840002860FFF7A6FFCF
:100A8000286840F0020028607600FFF79FFF286882
:100A900020F002002860FFF799FF641EE3D10021D7
:100AA000802000F0D8FDFFF791FF286840F0020099
:100AB0002860FFF78BFF2C69286820F0020028606F
:100AC000FFF784FF0121802000F0C5FD04F0010044
:100AD00070BD70B50121812000F0BDFD0021802096
:100AE00000F0B9FD00250824434EFFF76FFF306882
:100AF00040F0020030606D00FFF768FF3069C10709
:100B000048BF6D1CFFF762FF306820F00200641ED2
:100B10003060EAD10121802000F09DFDFFF756FFF3
:100B2000E8B270BD70B504460D461646FFF754FF97
:100B30006406200EFFF78FFF2846FFF78CFF304634
:100B4000FFF789FF0446FFF767FF204670BDF8B541
:100B50000E4617464500FFF73FFFE8B2FFF77BFF61
:100B60000446FFF733FF3046FFF775FF0419FFF720
:100B70002DFFFFF751FFFFF729FFFFF72DFF45F08E
:100B80000105E8B2FFF767FF0546FFF7A2FF3870DF
:100B90000121812000F05FFD0121802000F05BFD3C
:100BA000154E306820F0020030602C19FFF70EFF60
:100BB000306840F001003060FFF708FF306840F017
:100BC00002003060FFF702FF306820F00200306062
:100BD000FFF7FCFEFFF720FFE0B2F2BD00C052407D
:100BE0000080734000C062400000494000C0754072
:100BF00000C042400000784000F10F4037373235E6
:100C0000204E470037373235204F4B00FFE70100B9
:100C100013D00A490A6842F001020A600023084919
:100C20000B6088600122052048600A60086802069F
:100C3000FCD50868400840000860704738800440D0
:100C40000000044038B50446002201214C2000F089
:100C5000CDFC002201214D2000F0C8FC0022012122
:100C60004E2000F0C3FC002201214F2000F0BEFC0A
:100C700000220121502000F0B9FCDFF8F053286871
:100C800020F4805028603220FFF7C0FF286840F42D
:100C9000805028603220FFF7B9FF112000F0DEF805
:100CA0000A20FFF7B3FF3A2000F0D8F8552000F0F3
:100CB000F6F8262000F0D2F8042000F0F0F8F22038
:100CC00000F0CCF8012000F0EAF8E02000F0C6F8CF
:100CD0003F2000F0E4F8252000F0E1F81C2000F0AF
:100CE000DEF81E2000F0DBF8202000F0D8F81220FB
:100CF00000F0D5F82A2000F0D2F8902000F0CFF8CC
:100D0000242000F0CCF8112000F0C9F8002000F0F9
:100D1000C6F8002000F0C3F8002000F0C0F8002062
:100D200000F0BDF8002000F0BAF8E12000F096F8DD
:100D3000202000F0B4F8202000F0B1F8202000F0CE
:100D4000AEF8202000F0ABF8052000F0A8F8002055
:100D500000F0A5F8152000F0A2F8A72000F09FF8F9
:100D60003D2000F09CF8182000F099F8252000F0B4
:100D700096F82A2000F093F82B2000F090F82B2012
:100D800000F08DF83A2000F08AF8B12000F066F803
:100D9000002000F084F8002000F081F8B42000F07A
:100DA0005DF8072000F07BF8C02000F057F80A201B
:100DB00000F075F8022000F072F8C12000F04EF843
:100DC000022000F06CF8C52000F048F84F2000F039
:100DD00066F85A2000F063F8C72000F03FF8402082
:100DE00000F05DF82A2000F039F8002000F057F8F4
:100DF000002000F054F8002000F051F8A82000F086
:100E00004EF82B2000F02AF8002000F048F80020CF
:100E100000F045F8002000F042F8B32000F03FF861
:100E2000362000F01BF8002C14BFC020A02000F0DA
:100E300036F8B72000F012F8002000F030F8292032
:100E400000F00CF8BDE832402C2007E003E0401E23
:100E500000BF00BF00BF0028F9D17047DFF80C22A7
:100E6000116821F4005111600821136823F4004334
:100E70005FEA006C136004D5136843F48043136089
:100E800005E0D2F800C02CF4804CC2F800C040004D
:100E9000136843F40043491E1360E6D1704770B5F0
:100EA000DFF8C8510646286840F40050286008243E
:100EB000296821F4004129600120FFF7C7FF3006AF
:100EC00004D5296841F48041296003E0286820F4B2
:100ED000804028600120296841F4004129607600A3
:100EE000FFF7B4FF641EE3D170BDDFF88421116801
:100EF00041F4005111601021136823F400435FEAAC
:100F0000004C136004D5136843F48043136005E07C
:100F1000D2F800C02CF4804CC2F800C04000136826
:100F200043F40043491E1360E6D17047F8B5044608
:100F30000D4616461F462A20FFF790FF0020FFF7B8
:100F4000AEFF2046FFF7ABFF0020FFF7A8FF3046BB
:100F5000FFF7A5FF2B20FFF781FF0020FFF79FFF82
:100F60002846FFF79CFF0020FFF799FF3846FFF760
:100F700096FFBDE8F240FFE72C206FE7F8B5044686
:100F800081239F2200210020FFF7D0FF9F22DFF85E
:100F9000E4308121186840F4005018602546102084
:100FA0001E6826F400462F041E6004D51E6846F411
:100FB00080461E6003E01F6827F480471F606D00B5
:100FC0001E6846F40046401E1E60E9D1491EE1D16C
:100FD000521EDED1F1BD2DE9F0471446CA009A46F3
:100FE000D21DC700089ED3B2FF1DC906C006FAB2C3
:100FF000090E000EFFF79AFFDFF87C0004EB4401B6
:10100000002500EB41093046FFF76FFF0127C84676
:101010000624AF4018F8C00C384214BF5046304682
:10102000FFF763FF641E08F10108F3D13046FFF7B4
:101030005CFF6D1C072DE6DDBDE8F0872DE9FC4166
:10104000089C05460E461746984609E0009443461C
:1010500017F8010B02463146E8B2FFF7BCFF6D1CE2
:1010600097F900000028F1D1BDE8F38180F00F402E
:1010700080F00F4080F00F4040180000C11768B1A9
:101080004840401AB0FA80F29040D21CC907C2F51D
:10109000846241EA025202EBD0214005704730B42D
:1010A000002513E050F8042BD30744BFA9F1010336
:1010B0009A18091F042942F8045BFAD213468C07D8
:1010C00044BF15809B1CC90748BF1D7050F8041B06
:1010D0000029E7D130BC7047F0B540F2FF7581EAD6
:1010E000030C0CF0004C15EA11541DBF15EA135700
:1010F000AC42AF42E5E0BC41C1F31301C3F31303BB
:10110000801A994143F4801304D2641E400049417F
:1011100080185941C90241EA5051B1FBF3F603FB73
:101120001611A2FB0675D7EBC020A94102D2761E8C
:1011300080185941C90241EA5051B1FBF3FE03FB4B
:101140001E11A2FB0E75D7EBC020A94103D2AEF150
:10115000010E80185941890241EA9051760546EA0C
:101160008E2EB1FBF3F603FB1611A2FB0675D7EB2F
:101170008020A94102D2761E80185941C90241EA55
:1011800050514EEA060EB1FBF3F603FB1611A2FB1B
:101190000675D7EBC020A94102D2761E80185941AE
:1011A000C90241EA5051B1FBF3F703FB1711A2FB4F
:1011B0000735D3EBC020A94167F100070CBF0042FF
:1011C00047F0010766F3D5274FEA1E31B80814F53A
:1011D000806412DDBD0775F1004250EB0E5051EBFB
:1011E000045111F5801F5CBF41EA0C01F0BD4CF0C9
:1011F0007F6141F0E0410020F0BDBD076D0840EA8D
:101200000E5041F48011D4F10104B4F120060ADA41
:10121000C4F120060200E04001FA06F3E140184361
:10122000B24015430EE0342C13DCC6F1200445EA2D
:1012300040056D0820FA06F2154321FA06F0A14098
:101240000D43002175F1004250F1000051EB0C01FB
:10125000F0BD00205FEA0C01F0BDCFB992185B41F0
:10126000B3FA83F704BFB2FA82F6BF190B3FB7F1A6
:1012700020062FBF02FA06F3BB40C7F1200622FA70
:1012800006F638BF3343BA401CB1E419641E33E795
:101290007F4231F00041B1FA81F404BFB0FA80F628
:1012A000A4190B3CB4F120062FBF00FA06F1A140AF
:1012B000C4F1200620FA06F638BF3143A0403C1B9B
:1012C0001AE7AC421ABF05EA1357AF4212E050EAE0
:1012D00041061CBF52EA4306BFE750EA41073046C9
:1012E00061461CBF41EA0551F0BD52EA430C08BFFC
:1012F000C143F0BD00204FF4001616EB410F98BF1C
:1013000016EB430F08BF16EB410F24BFC14305E0A6
:1013100016EB430F0CBF61464CEA0551F0BDFEE7EA
:10132000014648B1B0FA80F18840C91CC1F584611A
:10133000090501EBD02140057047FEE770B44FF07E
:10134000004591EA030F40F1C5816B40841A71EBAF
:10135000030603D2001BB141121973414FF4001C64
:101360001CEB410F34BF7CEB430442E00C0DA4EBBB
:101370001356352E4FDC45EAC323DB0A45EAC1216B
:10138000C912B6F120050DDD63FA05F6EB4086EAD9
:101390000305124218BF45F00105C01851F10001C4
:1013A0000CD213E062FA06F5F2405540F3415A4080
:1013B000B340F3405A408018594107D349085FEAC7
:1013C00030005FEA350528BF45F0010501F58011C1
:1013D000420875F1004250F1000041EB04514E000B
:1013E00016F5001F70BC38BF70470020090D0905B5
:1013F00070471CEB410F10D252EA43060BD0BCEBF6
:10140000410F05D80C0DAB43661E342EB6DD02E04D
:10141000AB438018594170BC704770BC7047FEE701
:10142000B0B581EA030C0CF0004C40F2FF7515EAF0
:1014300011541DBF15EA1357AC42AF4239E0E4190D
:1014400023EA455343F48013C90241F0004141EAC5
:10145000505EC7021100A7FB020200284FF00000F7
:10146000EEFB01204FF00001E3FB072118BF42F023
:101470000102401800214941E3FB0E01A4F58064FC
:101480000F0302D252004041494154F101046CDD86
:10149000470872F1004250F1000051EB0451A1F5F0
:1014A00080115CBF41EA0C01B0BD4CEA055100203F
:1014B000B0BD05EA1357AC4214BFAF4241E050EA59
:1014C000410E1CBF52EA430E02E061460020B0BD4F
:1014D00024423C441BD15FEA070EF6D0090302BF49
:1014E00001460020AEF1140EB1FA81F7AEEB07040D
:1014F00001FA07FE0C37C7F1200100FA07F7C840D0
:101500004EEA000E23EA455343F48013A2E733F07A
:101510000043B3FA83F704BFB2FA82FE77440B3F6D
:10152000E41BB7F1200E2FBF02FA0EF3BB40C7F148
:10153000200E22FA0EFE38BF43EA0E03BA40641CA6
:1015400082E750EA410E14BF52EA430E6FF00001E9
:101550004FF4001717EB430F8ABF194617EB410FE3
:10156000B5E74CEA05510020B0BDD4F10104B4F157
:1015700020070FDAC4F12007520828BF42F0010209
:1015800010FA07F501FA07F7E1BF2A43E0403843B4
:10159000E1400FE0352C98DCC7F1200452EA40020C
:1015A00020FA07F218BF42F0010231FA07F0A14019
:1015B0000A43002172F1004250F1000051EB0C018E
:1015C000B0BDFEE7400D491840EA81200CD2490D1C
:1015D000A1F58061491C40F0004005DBD1F11F01FD
:1015E00054BFC840C017704700207047374BF0B455
:1015F0001D684FF400764409A64035431D6000F095
:101600001F00334D05EB84035E6956F8203023F448
:10161000E06346F8203056F8203043F4807346F8F3
:10162000203056F820700F4346F8207055F82430CB
:1016300001240029596904FA00F014BF01438143D1
:101640005961002A19BF196808431A6822EA000084
:101650001860F0BC70471E4B420953F82220002945
:1016600000F01F004FF0010C51690CFA00F014BF9C
:10167000084321EA000050617047F0B4134B1C6826
:101680004FF40075420995402C431C6000F01F0088
:101690000F4B03F11406012556F822400E0406F400
:1016A000702605FA00F746EAD111C4F8A07041F49B
:1016B000817144F8201005FA00F053F822104A69AD
:1016C00022EA00004861F0BC704700003880044006
:1016D00048000020841A71EB030604D26E40001B00
:1016E000B141121973414FF4001C1CEB410F34BF80
:1016F0007CEB430683E00C0DA4EB1356362E00F36F
:101700007C80012E45EAC32341DC43EA525312BFD9
:10171000D20292025B08240545EAC12141EA5051F8
:10172000D2EBC020994125D407D1B0FA80F610FA47
:1017300006F162D00020203608E0B1FA81F6B1400F
:10174000C6F1200220FA02F21143B0404FEAF474CD
:10175000B4EB465434F001064FEA74040AD8D6F5C7
:101760000016760D04F00044F04061FA06F2504095
:10177000F1404840C00A40EA415021F0004128BFF2
:101780005FEA500550F1000044EBD12135E0DB0A5F
:1017900045EAC121C90AB6F120050EDD42EA02423E
:1017A000120CC5F1200603FA06F6EB4042EA0605E4
:1017B0006D42984161F100010DE062FA06F5F240D8
:1017C000554063FA06FC82EA0C02F3405A406D422F
:1017D000904161EB030111F4801F05D1641E620585
:1017E00002D06D004041494121F48011430875F158
:1017F000004350F1000041EB045170BC70471CEBFA
:10180000410F15D223F0004352EA43060BD04FEAB2
:101810004C0CBCEB410F04D80C0D661E342EB7DD0A
:10182000EBE7801A994150EA410608BF0021E4E73E
:1018300008BF1CEB430F28BF6FF00001DDE7FEE798
:101840000000000000000000004F00000000070042
:10185000070000147F147F1400242A7F2A1200231B
:101860001308646200364955225000000503000049
:1018700000001C224100000041221C000014083E10
:1018800008140008083E0808000050300000000856
:10189000080808080000606000000020100804022A
:1018A000003E5149453E0000427F400000426151E8
:1018B0004946002141454B31001814127F10002782
:1018C00045454539003C4A49493000017109050345
:1018D00000364949493600064949291E0000363676
:1018E00000000000563600000008142241000014D9
:1018F00014141414000041221408000201510906B6
:1019000000324979413E007E1111117E007F494924
:10191000493E003E41414122007F4141221C007F5F
:1019200049494941007F09090901003E4149497A75
:10193000007F0808087F0000417F410000204041EF
:101940003F01007F08142241007F40404040007F5B
:101950000204027F007F0408107F003E4141413EA7
:10196000007F09090906003E4151215E007F0919E7
:1019700029460046494949310001017F0101003FE4
:101980004040403F001F2040201F003F4038403F64
:1019900000631408146300030478040300615149D0
:1019A000454300007F4141000015167C16150000DC
:1019B00041417F00000402010204004040404040D9
:1019C000000001020400002054545478007F484471
:1019D000443800384444442000384444487F0038A8
:1019E0005454541800087E090102000C5252523E11
:1019F000007F080404780000447D4000002040443B
:101A00003D00007F102844000000417F4000007E20
:101A1000020C027C007E0402027C003844444438FC
:101A2000007C1414140800081414187C007C0804AA
:101A3000040800485454542000043F444020003C13
:101A40004040207C001C2040201C003C4030403C9A
:101A5000004428102844000C5050503C004464546A
:101A60004C440000083641000000007F00000000E8
:101A7000413608000008040810080008082A1C085D
:101A800000081C2A08080004027F02040010207FBE
:101A90002010001C2A322A1C001C2244221C000098
:101AA000DFF800F071000020DFF800F001000020F6
:101AB00010B5DFF8980101684A04016815D541F4B2
:101AC0008041DFF8A441DFF88821016004202378F9
:101AD00003EB830102EB8111FFF7E2FF2078F1288D
:101AE000ACBF0020401C207010BD0A0409D501685D
:101AF00041F4004101600022DFF86C010121027015
:101B0000417010BD2DE9F84783B000F0B1F8002016
:101B1000FFF798F81F20FFF731FA3220FEF778FC24
:101B200009216E20FFF7A9FD8A216F20FFF7A5FD8F
:101B3000DFF820010168C1F30220021D072A38BF27
:101B4000002004D30121C01E01FA00F0401E000154
:101B5000DFF80411DFF80421DFF8F480DFF800A1DA
:101B6000DFF80091DFF8006100F02000087000212C
:101B70004FF08040106000226020FFF737FD002208
:101B800000216120FFF732FD002200216220FFF7D3
:101B90002DFD002200216320FFF728FD00220021F7
:101BA0006420FFF723FD002200216520FFF71EFDC2
:101BB000002200216620FFF719FD00220021672086
:101BC000FFF714FD81204FF4A071002202900191D3
:101BD00000926D234246DFF89410042000F0BEF816
:101BE000012000F0AAF870780028F9D0FFF75CFF18
:101BF00078239F2200210020FFF798F94F4678258F
:101C0000A02417F8010BC1088008400140EAC12058
:101C10000843FFF76AF9641EF3D16D1EF0D1454603
:101C200002242978504600F029F96978504600F0DE
:101C300025F9A978504600F021F9E978504600F0DE
:101C40001DF9641E05F5A075EBD1C9E7A0C00440DD
:101C5000980000200CED00E03EE400E004E100E02C
:101C600000A00E40982C0120F0770120D0F00F400A
:101C700080B5012201211120FFF7B8FC01220121CA
:101C80004020FFF7B3FC012201216F20FFF7AEFCDB
:101C9000012201219A20FFF7A9FC012201215220F3
:101CA000FFF7A4FCBDE80840012201215320FFF703
:101CB0009DBC000005281DD8DFE800F003070B0FCE
:101CC000131700220121112012E0002201214020DF
:101CD0000EE0002201216F200AE0002201219A205B
:101CE00006E000220121522002E0002201215320BF
:101CF000FFF77CBC7047000005281DD8DFE800F026
:101D000003070B0F131701220121112012E00122FA
:101D1000012140200EE0012201216F200AE0012272
:101D200001219A2006E001220121522002E0012235
:101D300001215320FFF75ABC7047074B195C491C1F
:101D40001954C9B201EBD1725208B1EB420108BF7C
:101D5000FFF7B0BFD0E70000E87701202DE9F041A0
:101D60009DF918502C0008BF012607D0012D08BF8F
:101D7000022603D0022D0CBF04261026089C079FC4
:101D8000DFF8E0C0DFF8E080DCF808E04EF0020E9B
:101D9000CCF808E0DCF804E04EF0020ECCF804E0E9
:101DA00008EB401ECEF80010CEF810200021AEF84F
:101DB0000410AEF81460290201F4E06105F0070593
:101DC0000D43AEF80650C7F30E01AEF81610AEF88C
:101DD0001E10264D26490A6822F080020A60CEF8BD
:101DE00008600021A206CEF80C1054BF7F420027E5
:101DF000CEF818704CF20A01AEF81C1001275909F0
:101E000001F1310242F080022A544FF40072DCF8F2
:101E10000000184D02FA01F10143CCF800105A09F4
:101E200055F822506E6903F01F008740BE436E6173
:101E300003F01F01104E56F8220004F00302A4091B
:101E400044EA024444F4807440F82140002B69695C
:101E500014BF6FF002006FF0010008406861BDE838
:101E6000F0810000388004400090004000100240E3
:101E700000800040480000205C000020027913062A
:101E8000FCD5C17170470000F0B43B4B1C6844F4B2
:101E9000785405001C603BD0401E0F2838D8DFE87E
:101EA00000F0080B0E1114171A1D2023262C292FC1
:101EB0003235042100222BE00421022228E00421F3
:101EC000042225E00421082222E004210A221FE046
:101ED00004210C221CE004210E2219E0042110220E
:101EE00016E00421122213E00421142210E0042140
:101EF00018220DE004211C220AE004211D2207E023
:101F000004211E2204E004211F2201E003211622E5
:101F10001A481B4F8024047001F007050571194C05
:101F20002568266846F47F062660DF6002F01F03FE
:101F3000256043F04003437183799C06FCD5837987
:101F40005C06FCD5002303708379C3F38103032B64
:101F5000FAD152B21032322010FB02F202EBD272EE
:101F600049B209485210491C92FBF1F10170027804
:101F700052084270F0BC7047388004400040064070
:101F80000000270100F00140F27701202448016899
:101F9000CA0202D5234B002119700268910202D5B2
:101FA000204B01221A7001684A0202D51D4B022102
:101FB00019704FF0FF32026070471B481B4A01E066
:101FC0001B481C4A016841F00101016001201070AA
:101FD00070471948194AF5E719481A4AF2E738B51F
:101FE00019490A79930644BF084600F031F8174AA8
:101FF000916A99B913460D215C781C709D78DC7844
:102000005D709C70DB1C491EF6D182F8270041B23E
:10201000452919BF40B265280120906231BD0000FA
:10202000A0A00440940000200C710340C47701205C
:102030001C710340C57701202C710340C677012035
:102040003C710340C777012000A00E409877012023
:1020500001798A06FCD590F90700704780B500F039
:1020600007F808490A884FF6FE7002400A8001BD51
:1020700072B605484CF2205101804DF628120280BC
:1020800062B67047002005400E20054030B450F87D
:10209000041B79B10268436802440830DC0744BF7E
:1020A000A9F10104E31852F8045B43F8045B091F2B
:1020B000F9D1ECE730BC704780B50B20FFF7E4FEA8
:1020C000054A064813684FF6FF010B4003431360AF
:1020D000BDE80140FFF716BD0CED00E00005FA0574
:1020E00072B60548054901600A6882F30888044809
:1020F000804762B60348004708ED00E0000000009A
:10210000C1210000ED21000010B5074979441831C4
:10211000064C7C44163404E00A68081D11448847C4
:102120000146A142F8D110BD2C0000004C00000077
:102130004EF68851CEF20001086840F47000086045
:10214000BFF34F8FBFF36F8F4FF00070E1EE100AB7
:10215000704700004BEFFFFF5C7701009800002004
:102160000000000029FFFFFF980000003802000077
:102170000000002000000000FEE700000120C04633
:10218000002801D0FFF7C0FFAFF300800020AFF3BD
:102190000080FFF791FF00F000F800F001B8FEE7C3
:1021A0000746384600F002F8FBE7000080B5AFF3C1
:1021B0000080024A11001820ABBEFBE72600020097
:1021C00080B5FFF74BFF0348016841F470010160DF
:1021D00001BD000088ED00E0704700000248816802
:1021E000027E8A1882607047C8770120AFF30080B2
:1021F000FFF79EFFFFF7C2FF00480047A123000042
:1022000000480047A123000000480047A123000028
:1022100000480047A123000000480047A123000018
:1022200000480047A123000000480047A123000008
:1022300000480047A123000000480047A1230000F8
:1022400000480047A123000000480047A1230000E8
:1022500000480047A123000000480047A1230000D8
:1022600000480047A123000000480047A1230000C8
:1022700000480047A123000000480047A1230000B8
:1022800000480047A123000000480047A1230000A8
:1022900000480047A123000000480047A123000098
:1022A00000480047A123000000480047A123000088
:1022B00000480047A123000000480047A123000078
:1022C00000480047A123000000480047A123000068
:1022D00000480047A123000000480047A123000058
:1022E00000480047A123000000480047A123000048
:1022F00000480047A123000000480047A123000038
:1023000000480047A123000000480047A123000027
:1023100000480047A123000000480047A123000017
:1023200000480047A123000000480047A123000007
:1023300000480047A123000000480047A1230000F7
:1023400000480047A123000000480047A1230000E7
:1023500000480047A123000000480047A1230000D7
:1023600000480047A123000000480047A1230000C7
:1023700000480047A123000000480047A1230000B7
:1023800000480047A123000000480047A1230000A7
:1023900000480047A123000000480047A123000097
:1023A000FFF7FEBFF0B400200E4A0F4B78211C1837
:1023B000282012F8025B04F8015B401E12F8026B41
:1023C00004F8016B12F8027B04F8017B12F8025B3F
:1023D00004F8015BEDD1A033491E02F5A072E6D1ED
:1023E000F0BC704798000020982C012000F00F40AE
:1023F00040F00F4080F00F40C0F00F4000F10F4060
:102400000090044000A0044000B0044000C004401C
:1024100000D00440064A02EB401C0123CCF8101007
:1024200003FA00F003490A6810430860704700BFD0
:0C243000009000400C8000400300000001
:04000005000021EDE9
:00000001FF
